{
  "transactions": [
    {
      "hash": "0x561e6f24468891614afe5e938d757e5ca3785f16c8b6e191f37b611181d516d5",
      "transactionType": "CREATE",
      "contractName": "AgentIdentity",
      "contractAddress": "0x99af42c59eda09a86543c57602e2c6a1aee2aa76",
      "function": null,
      "arguments": null,
      "transaction": {
        "from": "0xecf9541c6ff5e8774a6d8f64b57a4be473de49ef",
        "to": null,
        "gas": "0x19582c",
        "value": "0x0",
        "input": "0x6080604052600160005534801561001557600080fd5b50611589806100256000396000f3fe608060405234801561001057600080fd5b50600436106100f45760003560e01c80639f1c114111610097578063e1fe827211610066578063e1fe827214610234578063e652f67614610255578063e9780f251461027e578063ff2febfc1461029157600080fd5b80639f1c1141146101ac578063aee14460146101bf578063af2a565214610201578063ce91aede1461021457600080fd5b806330efc498116100d357806330efc4981461016a578063636d2f6414610173578063721acbf514610186578063736276aa1461019957600080fd5b8062339509146100f95780630af28bd31461013f5780631aa3a00814610154575b600080fd5b610122610107366004610df7565b6000908152600160205260409020546001600160a01b031690565b6040516001600160a01b0390911681526020015b60405180910390f35b61015261014d366004610e59565b6102b4565b005b61015c610319565b604051908152602001610136565b61015c60005481565b610152610181366004610ea5565b6103cf565b61015c610194366004610e59565b6104a5565b6101526101a7366004610ee1565b6105b8565b6101526101ba366004610f2f565b6107e7565b6101ec6101cd366004610df7565b6000908152600360209081526040808320546004909252909120549091565b60408051928352602083019190915201610136565b61015261020f366004610ea5565b610916565b610227610222366004610df7565b6109b3565b6040516101369190610f51565b610247610242366004610fa0565b610a5b565b604051610136929190610fcc565b610122610263366004610df7565b6005602052600090815260409020546001600160a01b031681565b61015261028c366004610f2f565b610c01565b61015c61029f366004610df7565b60009081526006602052604090206003015490565b60008381526001602052604090205483906001600160a01b031633146102f55760405162461bcd60e51b81526004016102ec90611053565b60405180910390fd5b60008481526001602081905260409091200161031283858361111e565b5050505050565b600080548180610328836111f4565b90915550604080518082018252338152815160208082018452600080835281840192835285815260019182905293909320825181546001600160a01b0319166001600160a01b0390911617815590519394509092909182019061038b908261120d565b505060408051602080825260009082015233925083917f0d063c6022bff16d09991a9f91882ffa112f5fb2529136f65eb4c77bbd047e43910160405180910390a390565b60008281526001602052604090205482906001600160a01b031633146104075760405162461bcd60e51b81526004016102ec90611053565b6001600160a01b03821661044b5760405162461bcd60e51b815260206004820152600b60248201526a1e995c9bc81dd85b1b195d60aa1b60448201526064016102ec565b60008381526001602052604080822080546001600160a01b0319166001600160a01b0386169081179091559051909185917fe0ff476e22f4d69e3d480837eed3c09426d182a1e7c32190fdf01fa0da8b116d9190a3505050565b60008381526001602052604081205484906001600160a01b03166104db5760405162461bcd60e51b81526004016102ec906112cd565b84338585600760008154809291906104f2906111f4565b9190505560405160200161050a9594939291906112ef565b6040516020818303038152906040528051906020012091506040518060800160405280868152602001336001600160a01b031681526020018585604051610552929190611340565b60408051918290039091208252600060209283018190528581526006835281902083518155918301516001830180546001600160a01b0319166001600160a01b039092169190911790558201516002820155606090910151600390910155509392505050565b60008381526001602052604090205483906001600160a01b03166105ee5760405162461bcd60e51b81526004016102ec906112cd565b6000848152600560205260409020546001600160a01b0316331461064a5760405162461bcd60e51b8152602060048201526013602482015272756e617574686f72697a656420736f7572636560681b60448201526064016102ec565b6000848152600260208181526040808420815160a081018352338152600f89900b81850190815260ff8981169483019485524267ffffffffffffffff90811660608501908152608085018a8152865460018082018955978c5298909a2094519790980290930180546001600160a01b0319166001600160a01b0390971696909617865590519490920180549351955196516fffffffffffffffffffffffffffffffff90951670ffffffffffffffffffffffffffffffffff1990941693909317600160801b95909216949094021768ffffffffffffffffff60881b1916600160881b949093169390930260ff60c81b191691909117600160c81b911515919091021790556107578383610d7b565b60008581526003602052604081208054909190610775908490611350565b90915550506000848152600460205260408120805460019290610799908490611378565b909155505060408051600f85900b815260ff84166020820152339186917fa288ec20043d263909d18691a2efbbfd776ad5424e21a88dbd1359b87b0d2a2d910160405180910390a350505050565b600082815260066020526040902060018101546001600160a01b031661083c5760405162461bcd60e51b815260206004820152600a6024820152691b9bc81c995c5d595cdd60b21b60448201526064016102ec565b80546000908152600160205260409020546001600160a01b031633146108905760405162461bcd60e51b81526020600482015260096024820152681b9bdd081859d95b9d60ba1b60448201526064016102ec565b6003810154156108d65760405162461bcd60e51b8152602060048201526011602482015270185b1c9958591e481c995cdc1bdb991959607a1b60448201526064016102ec565b8161090f5760405162461bcd60e51b81526020600482015260096024820152680f4cae4de40d0c2e6d60bb1b60448201526064016102ec565b6003015550565b60008281526001602052604090205482906001600160a01b0316331461094e5760405162461bcd60e51b81526004016102ec90611053565b60008381526005602090815260409182902080546001600160a01b0319166001600160a01b038616908117909155915191825284917fa047478268ee7b046ba10213bfb4c97315c317bf2c8b4091a537eb1424487c78910160405180910390a2505050565b60606001600083815260200190815260200160002060010180546109d690611093565b80601f0160208091040260200160405190810160405280929190818152602001828054610a0290611093565b8015610a4f5780601f10610a2457610100808354040283529160200191610a4f565b820191906000526020600020905b815481529060010190602001808311610a3257829003601f168201915b50505050509050919050565b6000838152600260205260408120606091829190610a798587611378565b8254909150811115610a89575080545b6000868211610a99576000610aa3565b610aa3878361138b565b90508067ffffffffffffffff811115610abe57610abe61107d565b604051908082528060200260200182016040528015610ae7578160200160208202803683370190505b5094508067ffffffffffffffff811115610b0357610b0361107d565b604051908082528060200260200182016040528015610b2c578160200160208202803683370190505b50935060005b81811015610bf557600084610b47838b611378565b81548110610b5757610b5761139e565b906000526020600020906002020190508060010160199054906101000a900460ff16610b8a576001810154600f0b610b8d565b60005b878381518110610b9f57610b9f61139e565b600f9290920b60209283029190910190910152805486516001600160a01b0390911690879084908110610bd457610bd461139e565b6001600160a01b039092166020928302919091019091015250600101610b32565b50505050935093915050565b60008281526001602052604090205482906001600160a01b0316610c375760405162461bcd60e51b81526004016102ec906112cd565b6000838152600260205260408120805484908110610c5757610c5761139e565b6000918252602090912060029091020180549091506001600160a01b03163314610cb05760405162461bcd60e51b815260206004820152600a6024820152696e6f7420736f7572636560b01b60448201526064016102ec565b6001810154600160c81b900460ff1615610cfe5760405162461bcd60e51b815260206004820152600f60248201526e185b1c9958591e481c995d9bdad959608a1b60448201526064016102ec565b60018101805460ff60c81b1916600160c81b1790819055610d2e90600f81900b90600160801b900460ff16610d7b565b60008581526003602052604081208054909190610d4c9084906113b4565b90915550506000848152600460205260408120805460019290610d7090849061138b565b909155505050505050565b60008160ff16601203610d935782600f0b9050610df1565b60128260ff161015610dca57610daa8260126113db565b610db590600a6114d8565b83600f0b610dc391906114e7565b9050610df1565b610dd56012836113db565b610de090600a6114d8565b83600f0b610dee9190611517565b90505b92915050565b600060208284031215610e0957600080fd5b5035919050565b60008083601f840112610e2257600080fd5b50813567ffffffffffffffff811115610e3a57600080fd5b602083019150836020828501011115610e5257600080fd5b9250929050565b600080600060408486031215610e6e57600080fd5b83359250602084013567ffffffffffffffff811115610e8c57600080fd5b610e9886828701610e10565b9497909650939450505050565b60008060408385031215610eb857600080fd5b8235915060208301356001600160a01b0381168114610ed657600080fd5b809150509250929050565b600080600060608486031215610ef657600080fd5b83359250602084013580600f0b8114610f0e57600080fd5b9150604084013560ff81168114610f2457600080fd5b809150509250925092565b60008060408385031215610f4257600080fd5b50508035926020909101359150565b60006020808352835180602085015260005b81811015610f7f57858101830151858201604001528201610f63565b506000604082860101526040601f19601f8301168501019250505092915050565b600080600060608486031215610fb557600080fd5b505081359360208301359350604090920135919050565b604080825283519082018190526000906020906060840190828701845b82811015611008578151600f0b84529284019290840190600101610fe9565b5050508381038285015284518082528583019183019060005b818110156110465783516001600160a01b031683529284019291840191600101611021565b5090979650505050505050565b60208082526010908201526f1b9bdd081859d95b9d081dd85b1b195d60821b604082015260600190565b634e487b7160e01b600052604160045260246000fd5b600181811c908216806110a757607f821691505b6020821081036110c757634e487b7160e01b600052602260045260246000fd5b50919050565b601f821115611119576000816000526020600020601f850160051c810160208610156110f65750805b601f850160051c820191505b8181101561111557828155600101611102565b5050505b505050565b67ffffffffffffffff8311156111365761113661107d565b61114a836111448354611093565b836110cd565b6000601f84116001811461117e57600085156111665750838201355b600019600387901b1c1916600186901b178355610312565b600083815260209020601f19861690835b828110156111af578685013582556020948501946001909201910161118f565b50868210156111cc5760001960f88860031b161c19848701351681555b505060018560011b0183555050505050565b634e487b7160e01b600052601160045260246000fd5b600060018201611206576112066111de565b5060010190565b815167ffffffffffffffff8111156112275761122761107d565b61123b816112358454611093565b846110cd565b602080601f83116001811461127057600084156112585750858301515b600019600386901b1c1916600185901b178555611115565b600085815260208120601f198616915b8281101561129f57888601518255948401946001909101908401611280565b50858210156112bd5787850151600019600388901b60f8161c191681555b5050505050600190811b01905550565b6020808252600890820152671b9bc81859d95b9d60c21b604082015260600190565b8581526001600160a01b03851660208201526080604082018190528101839052828460a0830137600060a08483010152600060a0601f19601f86011683010190508260608301529695505050505050565b8183823760009101908152919050565b8082018281126000831280158216821582161715611370576113706111de565b505092915050565b80820180821115610df157610df16111de565b81810381811115610df157610df16111de565b634e487b7160e01b600052603260045260246000fd5b81810360008312801583831316838312821617156113d4576113d46111de565b5092915050565b60ff8281168282160390811115610df157610df16111de565b600181815b8085111561142f578160001904821115611415576114156111de565b8085161561142257918102915b93841c93908002906113f9565b509250929050565b60008261144657506001610df1565b8161145357506000610df1565b816001811461146957600281146114735761148f565b6001915050610df1565b60ff841115611484576114846111de565b50506001821b610df1565b5060208310610133831016604e8410600b84101617156114b2575081810a610df1565b6114bc83836113f4565b80600019048211156114d0576114d06111de565b029392505050565b6000610dee60ff841683611437565b80820260008212600160ff1b84141615611503576115036111de565b8181058314821517610df157610df16111de565b60008261153457634e487b7160e01b600052601260045260246000fd5b600160ff1b82146000198414161561154e5761154e6111de565b50059056fea264697066735822122061c661f6a08e3fa497ea777cbb559603500679af5f2ddb556f378c2981f8e19b64736f6c63430008180033",
        "nonce": "0xe6",
        "chainId": "0x138b"
      },
      "additionalContracts": [],
      "isFixedGasLimit": false
    },
    {
      "hash": "0xc1682655da56122f4c1288a47ee7e3009f101acaeb9d188fe3f361e60d5a5726",
      "transactionType": "CREATE",
      "contractName": "SignalMarket",
      "contractAddress": "0xcf63800b3cc47b149421e6a01b9914c3557884b4",
      "function": null,
      "arguments": [
        "0x99AF42c59edA09a86543c57602e2c6a1AEE2AA76"
      ],
      "transaction": {
        "from": "0xecf9541c6ff5e8774a6d8f64b57a4be473de49ef",
        "to": null,
        "gas": "0x167e5c",
        "value": "0x0",
        "input": "0x60a060405260016000556001805534801561001957600080fd5b5060405161137f38038061137f83398101604081905261003891610093565b6001600160a01b0381166100825760405162461bcd60e51b815260206004820152600d60248201526c7a65726f206964656e7469747960981b604482015260640160405180910390fd5b6001600160a01b03166080526100c3565b6000602082840312156100a557600080fd5b81516001600160a01b03811681146100bc57600080fd5b9392505050565b6080516112866100f96000396000818160b3015281816102650152818161068d0152818161081c0152610c8401526112866000f3fe60806040526004361061009c5760003560e01c8063916b9bef11610064578063916b9bef1461016d578063a0b938561461018d578063aaccf1ec146101a3578063d7c3a520146101b9578063de74e57b146101e6578063e81340d41461021657600080fd5b80632c159a1a146100a157806341449e7f146100f25780634ebd10b4146101205780636605ff661461013557806387c35bc01461014b575b600080fd5b3480156100ad57600080fd5b506100d57f000000000000000000000000000000000000000000000000000000000000000081565b6040516001600160a01b0390911681526020015b60405180910390f35b3480156100fe57600080fd5b5061011261010d366004610e39565b610243565b6040519081526020016100e9565b61013361012e366004610eb9565b610493565b005b34801561014157600080fd5b5061011260055481565b34801561015757600080fd5b50610160610a19565b6040516100e99190610f2b565b34801561017957600080fd5b50610133610188366004610fcd565b610c23565b34801561019957600080fd5b5061011260065481565b3480156101af57600080fd5b5061011260015481565b3480156101c557600080fd5b506101126101d4366004610fcd565b60046020526000908152604090205481565b3480156101f257600080fd5b50610206610201366004610fcd565b610d83565b6040516100e99493929190610fe6565b34801561022257600080fd5b50610112610231366004610fcd565b60036020526000908152604090205481565b6040516233950960e01b81526004810185905260009033906001600160a01b037f000000000000000000000000000000000000000000000000000000000000000016906233950990602401602060405180830381865afa1580156102ab573d6000803e3d6000fd5b505050506040513d601f19601f820116820180604052508101906102cf9190611018565b6001600160a01b0316146103195760405162461bcd60e51b815260206004820152600c60248201526b3737ba10383937bb34b232b960a11b60448201526064015b60405180910390fd5b600084116103565760405162461bcd60e51b815260206004820152600a6024820152697a65726f20707269636560b01b6044820152606401610310565b816103915760405162461bcd60e51b815260206004820152600b60248201526a6e6f2063617465676f727960a81b6044820152606401610310565b600180549060006103a18361105e565b919050559050604051806080016040528086815260200185815260200184848080601f01602080910402602001604051908101604052809392919081815260200183838082843760009201829052509385525050600160209384018190528583526002808552604093849020865181559486015191850191909155918401519183019161042f915082611118565b50606091909101516003909101805460ff1916911515919091179055604051859082907f53676a99a4258059caafb8053b0bde52e115b921e34002f40c9211c659f1d8f190610483908890889088906111d8565b60405180910390a3949350505050565b6001600054146104d15760405162461bcd60e51b81526020600482015260096024820152681c99595b9d1c985b9d60ba1b6044820152606401610310565b6002600081905550600060026000858152602001908152602001600020604051806080016040529081600082015481526020016001820154815260200160028201805461051d9061108d565b80601f01602080910402602001604051908101604052809291908181526020018280546105499061108d565b80156105965780601f1061056b57610100808354040283529160200191610596565b820191906000526020600020905b81548152906001019060200180831161057957829003601f168201915b50505091835250506003919091015460ff16151560209091015260608101519091506105f15760405162461bcd60e51b815260206004820152600a6024820152696e6f742061637469766560b01b6044820152606401610310565b805183900361062e5760405162461bcd60e51b81526020600482015260096024820152681cd95b19881919585b60ba1b6044820152606401610310565b806020015134101561066e5760405162461bcd60e51b81526020600482015260096024820152681d5b99195c9c185a5960ba1b6044820152606401610310565b6040516233950960e01b81526004810184905233906001600160a01b037f000000000000000000000000000000000000000000000000000000000000000016906233950990602401602060405180830381865afa1580156106d3573d6000803e3d6000fd5b505050506040513d601f19601f820116820180604052508101906106f79190611018565b6001600160a01b03161461073c5760405162461bcd60e51b815260206004820152600c60248201526b3737ba1031b7b739bab6b2b960a11b6044820152606401610310565b816107795760405162461bcd60e51b815260206004820152600d60248201526c7a65726f2065766964656e636560981b6044820152606401610310565b8051600090815260036020526040812080546001929061079a90849061120e565b9091555050602080820151825160009081526004909252604082208054919290916107c690849061120e565b925050819055506001600560008282546107e0919061120e565b90915550506020810151600680546000906107fc90849061120e565b909155505080516040516233950960e01b81526000916001600160a01b037f0000000000000000000000000000000000000000000000000000000000000000169162339509916108529160040190815260200190565b602060405180830381865afa15801561086f573d6000803e3d6000fd5b505050506040513d601f19601f820116820180604052508101906108939190611018565b90506000816001600160a01b0316836020015160405160006040518083038185875af1925050503d80600081146108e6576040519150601f19603f3d011682016040523d82523d6000602084013e6108eb565b606091505b50509050806109225760405162461bcd60e51b815260206004820152600360248201526270617960e81b6044820152606401610310565b82602001513411156109bf57602083015160009033906109429034611227565b604051600081818185875af1925050503d806000811461097e576040519150601f19603f3d011682016040523d82523d6000602084013e610983565b606091505b50509050806109bd5760405162461bcd60e51b81526020600482015260066024820152651c99599d5b9960d21b6044820152606401610310565b505b848360000151877fddaef301330a2a9e702ae4e9c6410fd7a759987356ee7df21de23f15e15a007f866020015188604051610a04929190918252602082015260400190565b60405180910390a45050600160005550505050565b6060600060015b600154811015610a5a5760008181526002602052604090206003015460ff1615610a525781610a4e8161105e565b9250505b600101610a20565b508067ffffffffffffffff811115610a7457610a74611077565b604051908082528060200260200182016040528015610ade57816020015b610acb6040518060c001604052806000815260200160008152602001600081526020016060815260200160008152602001600081525090565b815260200190600190039081610a925790505b509150600060015b600154811015610c1d576000818152600260205260409020600381015460ff16610b105750610c15565b6040518060c001604052808381526020018260000154815260200182600101548152602001826002018054610b449061108d565b80601f0160208091040260200160405190810160405280929190818152602001828054610b709061108d565b8015610bbd5780601f10610b9257610100808354040283529160200191610bbd565b820191906000526020600020905b815481529060010190602001808311610ba057829003601f168201915b505050918352505082546000818152600360209081526040808320548286015292825260049052819020549101528584610bf68161105e565b955081518110610c0857610c0861123a565b6020026020010181905250505b600101610ae6565b50505090565b6000818152600260205260409020600381015460ff16610c725760405162461bcd60e51b815260206004820152600a6024820152696e6f742061637469766560b01b6044820152606401610310565b80546040516233950960e01b815233917f00000000000000000000000000000000000000000000000000000000000000006001600160a01b0316916233950991610cc29160040190815260200190565b602060405180830381865afa158015610cdf573d6000803e3d6000fd5b505050506040513d601f19601f82011682018060405250810190610d039190611018565b6001600160a01b031614610d485760405162461bcd60e51b815260206004820152600c60248201526b3737ba10383937bb34b232b960a11b6044820152606401610310565b60038101805460ff1916905560405182907fe8a884965a7fb1b7c1efd55ff478bcbd880c4b226a2e2218b83d31c493964ab390600090a25050565b600260208190526000918252604090912080546001820154928201805491939291610dad9061108d565b80601f0160208091040260200160405190810160405280929190818152602001828054610dd99061108d565b8015610e265780601f10610dfb57610100808354040283529160200191610e26565b820191906000526020600020905b815481529060010190602001808311610e0957829003601f168201915b5050506003909301549192505060ff1684565b60008060008060608587031215610e4f57600080fd5b8435935060208501359250604085013567ffffffffffffffff80821115610e7557600080fd5b818701915087601f830112610e8957600080fd5b813581811115610e9857600080fd5b886020828501011115610eaa57600080fd5b95989497505060200194505050565b600080600060608486031215610ece57600080fd5b505081359360208301359350604090920135919050565b6000815180845260005b81811015610f0b57602081850181015186830182015201610eef565b506000602082860101526020601f19601f83011685010191505092915050565b600060208083018184528085518083526040925060408601915060408160051b87010184880160005b83811015610fbf57603f19898403018552815160c081518552888201518986015287820151888601526060808301518282880152610f9483880182610ee5565b6080858101519089015260a09485015194909701939093525050509386019390860190600101610f54565b509098975050505050505050565b600060208284031215610fdf57600080fd5b5035919050565b8481528360208201526080604082015260006110056080830185610ee5565b9050821515606083015295945050505050565b60006020828403121561102a57600080fd5b81516001600160a01b038116811461104157600080fd5b9392505050565b634e487b7160e01b600052601160045260246000fd5b60006001820161107057611070611048565b5060010190565b634e487b7160e01b600052604160045260246000fd5b600181811c908216806110a157607f821691505b6020821081036110c157634e487b7160e01b600052602260045260246000fd5b50919050565b601f821115611113576000816000526020600020601f850160051c810160208610156110f05750805b601f850160051c820191505b8181101561110f578281556001016110fc565b5050505b505050565b815167ffffffffffffffff81111561113257611132611077565b61114681611140845461108d565b846110c7565b602080601f83116001811461117b57600084156111635750858301515b600019600386901b1c1916600185901b17855561110f565b600085815260208120601f198616915b828110156111aa5788860151825594840194600190910190840161118b565b50858210156111c85787850151600019600388901b60f8161c191681555b5050505050600190811b01905550565b83815260406020820152816040820152818360608301376000818301606090810191909152601f909201601f1916010192915050565b8082018082111561122157611221611048565b92915050565b8181038181111561122157611221611048565b634e487b7160e01b600052603260045260246000fdfea2646970667358221220ebde68af2170e73830185c15c21fd9438064c4ecd3c0b00c6da1cacda0164eec64736f6c6343000818003300000000000000000000000099af42c59eda09a86543c57602e2c6a1aee2aa76",
        "nonce": "0xe7",
        "chainId": "0x138b"
      },
      "additionalContracts": [],
      "isFixedGasLimit": false
    },
    {
      "hash": "0x069f7cf5a7b4938ef8facccc1b7812a188bf2fa72b6966b03507f1786270b334",
      "transactionType": "CALL",
      "contractName": "AgentIdentity",
      "contractAddress": "0x99af42c59eda09a86543c57602e2c6a1aee2aa76",
      "function": "register()",
      "arguments": [],
      "transaction": {
        "from": "0xecf9541c6ff5e8774a6d8f64b57a4be473de49ef",
        "to": "0x99af42c59eda09a86543c57602e2c6a1aee2aa76",
        "gas": "0x6c4b",
        "value": "0x0",
        "input": "0x1aa3a008",
        "nonce": "0xe8",
        "chainId": "0x138b"
      },
      "additionalContracts": [],
      "isFixedGasLimit": false
    },
    {
      "hash": "0x30ed81ce3337d2b1c39d60d3090ffa4c6cf5ec78acc3b4777363f96ba98f8d3e",
      "transactionType": "CALL",
      "contractName": "AgentIdentity",
      "contractAddress": "0x99af42c59eda09a86543c57602e2c6a1aee2aa76",
      "function": "register()",
      "arguments": [],
      "transaction": {
        "from": "0xecf9541c6ff5e8774a6d8f64b57a4be473de49ef",
        "to": "0x99af42c59eda09a86543c57602e2c6a1aee2aa76",
        "gas": "0x6c4b",
        "value": "0x0",
        "input": "0x1aa3a008",
        "nonce": "0xe9",
        "chainId": "0x138b"
      },
      "additionalContracts": [],
      "isFixedGasLimit": false
    },
    {
      "hash": "0x2267ffdc444419d0ea8cc25703ded68c84d08929cd1c835eb85f7b68ade2c8b4",
      "transactionType": "CALL",
      "contractName": "AgentIdentity",
      "contractAddress": "0x99af42c59eda09a86543c57602e2c6a1aee2aa76",
      "function": "register()",
      "arguments": [],
      "transaction": {
        "from": "0xecf9541c6ff5e8774a6d8f64b57a4be473de49ef",
        "to": "0x99af42c59eda09a86543c57602e2c6a1aee2aa76",
        "gas": "0x6c4b",
        "value": "0x0",
        "input": "0x1aa3a008",
        "nonce": "0xea",
        "chainId": "0x138b"
      },
      "additionalContracts": [],
      "isFixedGasLimit": false
    },
    {
      "hash": "0x6f00c93b004e0de78515c64d843d7204897fff98bece6a06fc6d55087f6df7bb",
      "transactionType": "CALL",
      "contractName": "SignalMarket",
      "contractAddress": "0xcf63800b3cc47b149421e6a01b9914c3557884b4",
      "function": "createListing(uint256,uint256,string)",
      "arguments": [
        "1",
        "2000000000000000",
        "price-prediction"
      ],
      "transaction": {
        "from": "0xecf9541c6ff5e8774a6d8f64b57a4be473de49ef",
        "to": "0xcf63800b3cc47b149421e6a01b9914c3557884b4",
        "gas": "0x78f2",
        "value": "0x0",
        "input": "0x41449e7f000000000000000000000000000000000000000000000000000000000000000100000000000000000000000000000000000000000000000000071afd498d00000000000000000000000000000000000000000000000000000000000000000060000000000000000000000000000000000000000000000000000000000000001070726963652d70726564696374696f6e00000000000000000000000000000000",
        "nonce": "0xeb",
        "chainId": "0x138b"
      },
      "additionalContracts": [],
      "isFixedGasLimit": false
    },
    {
      "hash": "0xcda09210888078e5b19a62d1d3e3e1ce573327224f010bfe6aed7155e51ed9ee",
      "transactionType": "CALL",
      "contractName": "SignalMarket",
      "contractAddress": "0xcf63800b3cc47b149421e6a01b9914c3557884b4",
      "function": "createListing(uint256,uint256,string)",
      "arguments": [
        "2",
        "3000000000000000",
        "smart-money"
      ],
      "transaction": {
        "from": "0xecf9541c6ff5e8774a6d8f64b57a4be473de49ef",
        "to": "0xcf63800b3cc47b149421e6a01b9914c3557884b4",
        "gas": "0x7856",
        "value": "0x0",
        "input": "0x41449e7f0000000000000000000000000000000000000000000000000000000000000002000000000000000000000000000000000000000000000000000aa87bee5380000000000000000000000000000000000000000000000000000000000000000060000000000000000000000000000000000000000000000000000000000000000b736d6172742d6d6f6e6579000000000000000000000000000000000000000000",
        "nonce": "0xec",
        "chainId": "0x138b"
      },
      "additionalContracts": [],
      "isFixedGasLimit": false
    },
    {
      "hash": "0x77df30389e2267ccb14ed789a69d63ab2e2a52e39ab07dba68106e30097e7911",
      "transactionType": "CALL",
      "contractName": "SignalMarket",
      "contractAddress": "0xcf63800b3cc47b149421e6a01b9914c3557884b4",
      "function": "createListing(uint256,uint256,string)",
      "arguments": [
        "3",
        "1500000000000000",
        "momentum"
      ],
      "transaction": {
        "from": "0xecf9541c6ff5e8774a6d8f64b57a4be473de49ef",
        "to": "0xcf63800b3cc47b149421e6a01b9914c3557884b4",
        "gas": "0x77e1",
        "value": "0x0",
        "input": "0x41449e7f00000000000000000000000000000000000000000000000000000000000000030000000000000000000000000000000000000000000000000005543df729c000000000000000000000000000000000000000000000000000000000000000006000000000000000000000000000000000000000000000000000000000000000086d6f6d656e74756d000000000000000000000000000000000000000000000000",
        "nonce": "0xed",
        "chainId": "0x138b"
      },
      "additionalContracts": [],
      "isFixedGasLimit": false
    },
    {
      "hash": "0x78b5f1a86313a9cdc43f812c275a1c7048ac7590989779f9c3b064b7027e2a4e",
      "transactionType": "CALL",
      "contractName": "SignalMarket",
      "contractAddress": "0xcf63800b3cc47b149421e6a01b9914c3557884b4",
      "function": "purchaseSignal(uint256,uint256,bytes32)",
      "arguments": [
        "1",
        "2",
        "0x9a282819db601cd79f33e86fc79c07c6ae37d4d7539f6981e0b9e3876707f954"
      ],
      "transaction": {
        "from": "0xecf9541c6ff5e8774a6d8f64b57a4be473de49ef",
        "to": "0xcf63800b3cc47b149421e6a01b9914c3557884b4",
        "gas": "0x7738",
        "value": "0x71afd498d0000",
        "input": "0x4ebd10b4000000000000000000000000000000000000000000000000000000000000000100000000000000000000000000000000000000000000000000000000000000029a282819db601cd79f33e86fc79c07c6ae37d4d7539f6981e0b9e3876707f954",
        "nonce": "0xee",
        "chainId": "0x138b"
      },
      "additionalContracts": [],
      "isFixedGasLimit": false
    },
    {
      "hash": "0x5fafde054ae7db2152b1ee3cea5c3b47d9941acf142942a9b3c278b3300ac2bf",
      "transactionType": "CALL",
      "contractName": "SignalMarket",
      "contractAddress": "0xcf63800b3cc47b149421e6a01b9914c3557884b4",
      "function": "purchaseSignal(uint256,uint256,bytes32)",
      "arguments": [
        "1",
        "3",
        "0xeafe11d58abfaca4b0963666e25ae9a70b247847136f40fbc03cb1c917457846"
      ],
      "transaction": {
        "from": "0xecf9541c6ff5e8774a6d8f64b57a4be473de49ef",
        "to": "0xcf63800b3cc47b149421e6a01b9914c3557884b4",
        "gas": "0x7738",
        "value": "0x71afd498d0000",
        "input": "0x4ebd10b400000000000000000000000000000000000000000000000000000000000000010000000000000000000000000000000000000000000000000000000000000003eafe11d58abfaca4b0963666e25ae9a70b247847136f40fbc03cb1c917457846",
        "nonce": "0xef",
        "chainId": "0x138b"
      },
      "additionalContracts": [],
      "isFixedGasLimit": false
    },
    {
      "hash": "0xcb38648642a39b0dd5ee2f05ab6bc7ab59049c7bdb9fd4ed829f11adc3e6b987",
      "transactionType": "CALL",
      "contractName": "SignalMarket",
      "contractAddress": "0xcf63800b3cc47b149421e6a01b9914c3557884b4",
      "function": "purchaseSignal(uint256,uint256,bytes32)",
      "arguments": [
        "2",
        "1",
        "0xfe5ce46a19a8690f1ed72d10f134a0e45f3e642b0e9be0d2203e14120319bd90"
      ],
      "transaction": {
        "from": "0xecf9541c6ff5e8774a6d8f64b57a4be473de49ef",
        "to": "0xcf63800b3cc47b149421e6a01b9914c3557884b4",
        "gas": "0x7738",
        "value": "0xaa87bee538000",
        "input": "0x4ebd10b400000000000000000000000000000000000000000000000000000000000000020000000000000000000000000000000000000000000000000000000000000001fe5ce46a19a8690f1ed72d10f134a0e45f3e642b0e9be0d2203e14120319bd90",
        "nonce": "0xf0",
        "chainId": "0x138b"
      },
      "additionalContracts": [],
      "isFixedGasLimit": false
    }
  ],
  "receipts": [
    {
      "type": "0x0",
      "status": "0x1",
      "cumulativeGasUsed": "0x183197",
      "logs": [],
      "logsBloom": "0x00000000000000000000000000000000000000000000000000000000000000000000000000000000000000000000000000000000000000000000000000000000000000000000000000000000000000000000000000000000000000000000000000000000000000000000000000000000000000000000000000000000000000000000000000000000000000000000000000000000000000000000000000000000000000000000000000000000000000000000000000000000000000000000000000000000000000000000000000000000000000000000000000000000000000000000000000000000000000000000000000000000000000000000000000000000",
      "transactionHash": "0x561e6f24468891614afe5e938d757e5ca3785f16c8b6e191f37b611181d516d5",
      "transactionIndex": "0x2",
      "blockHash": "0x95988e370c0bcdc1f2977e3714da8f8af6fe078ae3a03291050493beb3f469af",
      "blockNumber": "0x25e42ff",
      "gasUsed": "0x135315",
      "effectiveGasPrice": "0xba43cfaa0",
      "blobGasUsed": "0x14ac30",
      "from": "0xecf9541c6ff5e8774a6d8f64b57a4be473de49ef",
      "to": null,
      "contractAddress": "0x99af42c59eda09a86543c57602e2c6a1aee2aa76"
    },
    {
      "type": "0x0",
      "status": "0x1",
      "cumulativeGasUsed": "0x1243c8",
      "logs": [],
      "logsBloom": "0x00000000000000000000000000000000000000000000000000000000000000000000000000000000000000000000000000000000000000000000000000000000000000000000000000000000000000000000000000000000000000000000000000000000000000000000000000000000000000000000000000000000000000000000000000000000000000000000000000000000000000000000000000000000000000000000000000000000000000000000000000000000000000000000000000000000000000000000000000000000000000000000000000000000000000000000000000000000000000000000000000000000000000000000000000000000",
      "transactionHash": "0xc1682655da56122f4c1288a47ee7e3009f101acaeb9d188fe3f361e60d5a5726",
      "transactionIndex": "0x2",
      "blockHash": "0x87f29174d5f79f8d5b56fd870c65f9bb109334acab5313f90eb2abaa026625c0",
      "blockNumber": "0x25e4302",
      "gasUsed": "0x11261b",
      "effectiveGasPrice": "0xba43cfaa0",
      "blobGasUsed": "0x10d880",
      "from": "0xecf9541c6ff5e8774a6d8f64b57a4be473de49ef",
      "to": null,
      "contractAddress": "0xcf63800b3cc47b149421e6a01b9914c3557884b4"
    },
    {
      "type": "0x0",
      "status": "0x1",
      "cumulativeGasUsed": "0x1859b",
      "logs": [
        {
          "address": "0x99af42c59eda09a86543c57602e2c6a1aee2aa76",
          "topics": [
            "0x0d063c6022bff16d09991a9f91882ffa112f5fb2529136f65eb4c77bbd047e43",
            "0x0000000000000000000000000000000000000000000000000000000000000001",
            "0x000000000000000000000000ecf9541c6ff5e8774a6d8f64b57a4be473de49ef"
          ],
          "data": "0x00000000000000000000000000000000000000000000000000000000000000200000000000000000000000000000000000000000000000000000000000000000",
          "blockHash": "0xae1589b9b7dc95bbd4ffa80e5ab2919698e27f82879b41cb9270fbcf6655feab",
          "blockNumber": "0x25e4309",
          "blockTimestamp": "0x6a2808f3",
          "transactionHash": "0x069f7cf5a7b4938ef8facccc1b7812a188bf2fa72b6966b03507f1786270b334",
          "transactionIndex": "0x1",
          "logIndex": "0x0",
          "removed": false
        }
      ],
      "logsBloom": "0x000000004000000000000000000000000000010000000000000000000000000000000000000000000000000000000040000000000000000000000000000400000000000000000000000000000000000000000000000400000000000000000000000000000000000000000000000000000000000000000000000000000000000000000000000000000000000000000000000000000000000000000800000004000000100000000000000000000000000000000000000000000000000000000000000000000000004000000000000100000000000000000000000000000000c0000000000000000000000000000000000000000000000000000000000000000000",
      "transactionHash": "0x069f7cf5a7b4938ef8facccc1b7812a188bf2fa72b6966b03507f1786270b334",
      "transactionIndex": "0x1",
      "blockHash": "0xae1589b9b7dc95bbd4ffa80e5ab2919698e27f82879b41cb9270fbcf6655feab",
      "blockNumber": "0x25e4309",
      "gasUsed": "0xd0cc",
      "effectiveGasPrice": "0xba43cfaa0",
      "blobGasUsed": "0x9c40",
      "from": "0xecf9541c6ff5e8774a6d8f64b57a4be473de49ef",
      "to": "0x99af42c59eda09a86543c57602e2c6a1aee2aa76",
      "contractAddress": null
    },
    {
      "type": "0x0",
      "status": "0x1",
      "cumulativeGasUsed": "0x1859b",
      "logs": [
        {
          "address": "0x99af42c59eda09a86543c57602e2c6a1aee2aa76",
          "topics": [
            "0x0d063c6022bff16d09991a9f91882ffa112f5fb2529136f65eb4c77bbd047e43",
            "0x0000000000000000000000000000000000000000000000000000000000000002",
            "0x000000000000000000000000ecf9541c6ff5e8774a6d8f64b57a4be473de49ef"
          ],
          "data": "0x00000000000000000000000000000000000000000000000000000000000000200000000000000000000000000000000000000000000000000000000000000000",
          "blockHash": "0x3520543f89d80f6c15bcf813cb4a2c1dcb903ae5b8e41abd9ce713047d776183",
          "blockNumber": "0x25e430f",
          "blockTimestamp": "0x6a2808ff",
          "transactionHash": "0x30ed81ce3337d2b1c39d60d3090ffa4c6cf5ec78acc3b4777363f96ba98f8d3e",
          "transactionIndex": "0x1",
          "logIndex": "0x0",
          "removed": false
        }
      ],
      "logsBloom": "0x04000000400000000000000000000000000001000000000000000000000000000000000000000000000000000000004000000000000000000000000000000000000000000000000000000000000000000000000000000000000000000000000000000000000000000000000000000000000000000000000000000000000000000000000000000000000000000000000000000000000000000000080000000400000010000000000000000100000000000000000000000000000000000000000000000000000000400000000000010000000000000000000000000000000080000000000000000000000000000000000000000000008000000000000000000000",
      "transactionHash": "0x30ed81ce3337d2b1c39d60d3090ffa4c6cf5ec78acc3b4777363f96ba98f8d3e",
      "transactionIndex": "0x1",
      "blockHash": "0x3520543f89d80f6c15bcf813cb4a2c1dcb903ae5b8e41abd9ce713047d776183",
      "blockNumber": "0x25e430f",
      "gasUsed": "0xd0cc",
      "effectiveGasPrice": "0xba43cfaa0",
      "blobGasUsed": "0x9c40",
      "from": "0xecf9541c6ff5e8774a6d8f64b57a4be473de49ef",
      "to": "0x99af42c59eda09a86543c57602e2c6a1aee2aa76",
      "contractAddress": null
    },
    {
      "type": "0x0",
      "status": "0x1",
      "cumulativeGasUsed": "0x1b14f",
      "logs": [
        {
          "address": "0x99af42c59eda09a86543c57602e2c6a1aee2aa76",
          "topics": [
            "0x0d063c6022bff16d09991a9f91882ffa112f5fb2529136f65eb4c77bbd047e43",
            "0x0000000000000000000000000000000000000000000000000000000000000003",
            "0x000000000000000000000000ecf9541c6ff5e8774a6d8f64b57a4be473de49ef"
          ],
          "data": "0x00000000000000000000000000000000000000000000000000000000000000200000000000000000000000000000000000000000000000000000000000000000",
          "blockHash": "0xb20978c8726919e2ed15f8999b3d0b591cfbe75812b296e464e0edd3cb2e734a",
          "blockNumber": "0x25e4317",
          "blockTimestamp": "0x6a28090f",
          "transactionHash": "0x2267ffdc444419d0ea8cc25703ded68c84d08929cd1c835eb85f7b68ade2c8b4",
          "transactionIndex": "0x1",
          "logIndex": "0x0",
          "removed": false
        }
      ],
      "logsBloom": "0x00000000400000000000000000000000000001000000000000000000000000000000000000000000000000000000004000000000020000000000000000000000000000000000000000000000000000000000000000000000000000000000000000000000000000000000000000000000000000000000000000000000000000000000000000000000000000000000000000000000000000000000080000000400000010000000000000000000000000000000000000800000000000000000400000000000000000400000000000010000000000000000000000000000000080000000000000000000000000000000000000000000000000000000000000000000",
      "transactionHash": "0x2267ffdc444419d0ea8cc25703ded68c84d08929cd1c835eb85f7b68ade2c8b4",
      "transactionIndex": "0x1",
      "blockHash": "0xb20978c8726919e2ed15f8999b3d0b591cfbe75812b296e464e0edd3cb2e734a",
      "blockNumber": "0x25e4317",
      "gasUsed": "0xd0cc",
      "effectiveGasPrice": "0xba43cfaa0",
      "blobGasUsed": "0x9c40",
      "from": "0xecf9541c6ff5e8774a6d8f64b57a4be473de49ef",
      "to": "0x99af42c59eda09a86543c57602e2c6a1aee2aa76",
      "contractAddress": null
    },
    {
      "type": "0x0",
      "status": "0x1",
      "cumulativeGasUsed": "0x76da3",
      "logs": [
        {
          "address": "0xcf63800b3cc47b149421e6a01b9914c3557884b4",
          "topics": [
            "0x53676a99a4258059caafb8053b0bde52e115b921e34002f40c9211c659f1d8f1",
            "0x0000000000000000000000000000000000000000000000000000000000000001",
            "0x0000000000000000000000000000000000000000000000000000000000000001"
          ],
          "data": "0x00000000000000000000000000000000000000000000000000071afd498d00000000000000000000000000000000000000000000000000000000000000000040000000000000000000000000000000000000000000000000000000000000001070726963652d70726564696374696f6e00000000000000000000000000000000",
          "blockHash": "0xe5b04e5872c5c8af34920bb6e57654770adec83ddbdfda515980b82b28979960",
          "blockNumber": "0x25e431b",
          "blockTimestamp": "0x6a280917",
          "transactionHash": "0x6f00c93b004e0de78515c64d843d7204897fff98bece6a06fc6d55087f6df7bb",
          "transactionIndex": "0x2",
          "logIndex": "0x2",
          "removed": false
        }
      ],
      "logsBloom": "0x00000000200000000000000000000000000000000000000000000000000000000000000000000000000000000000000000000000040000000080000000040000000000000000100000000000000000000000000000040000001000000000000000000000000000000000000000000000000000000000000000000000000000008000000000000000000000000000000000000000000000000000000000000000000000000000000000000000000000000000000000000000000000000000000000000000000000000000000000000000000000000000000000000000000040000000000000000000000000000000000000000000000000000000000000000000",
      "transactionHash": "0x6f00c93b004e0de78515c64d843d7204897fff98bece6a06fc6d55087f6df7bb",
      "transactionIndex": "0x2",
      "blockHash": "0xe5b04e5872c5c8af34920bb6e57654770adec83ddbdfda515980b82b28979960",
      "blockNumber": "0x25e431b",
      "gasUsed": "0x1e89e",
      "effectiveGasPrice": "0xba43cfaa0",
      "blobGasUsed": "0x9c40",
      "from": "0xecf9541c6ff5e8774a6d8f64b57a4be473de49ef",
      "to": "0xcf63800b3cc47b149421e6a01b9914c3557884b4",
      "contractAddress": null
    },
    {
      "type": "0x0",
      "status": "0x1",
      "cumulativeGasUsed": "0x29d3d",
      "logs": [
        {
          "address": "0xcf63800b3cc47b149421e6a01b9914c3557884b4",
          "topics": [
            "0x53676a99a4258059caafb8053b0bde52e115b921e34002f40c9211c659f1d8f1",
            "0x0000000000000000000000000000000000000000000000000000000000000002",
            "0x0000000000000000000000000000000000000000000000000000000000000002"
          ],
          "data": "0x000000000000000000000000000000000000000000000000000aa87bee5380000000000000000000000000000000000000000000000000000000000000000040000000000000000000000000000000000000000000000000000000000000000b736d6172742d6d6f6e6579000000000000000000000000000000000000000000",
          "blockHash": "0xbec7bb66f9c6f4ff24c30338e43c9aabe37bbcf58e037e3793b3c0046b10fad8",
          "blockNumber": "0x25e431e",
          "blockTimestamp": "0x6a28091d",
          "transactionHash": "0xcda09210888078e5b19a62d1d3e3e1ce573327224f010bfe6aed7155e51ed9ee",
          "transactionIndex": "0x1",
          "logIndex": "0x0",
          "removed": false
        }
      ],
      "logsBloom": "0x04000000200000000000000000000000000000000000000000000000000000000000000000000000000000000000000000000000040000000080000000000000000000000000100000000000000000000000000000000000001000000000000000000000000000000000000000000000000000000000000000000000000000008000000000000000000000000000000000000000000000000000000000000000000000000000000000000100000000000000000000000000000000000000000000000000000000000000000000000000000000000000000000000000000000000000000000000000000000000000000000000000008000000000000000000000",
      "transactionHash": "0xcda09210888078e5b19a62d1d3e3e1ce573327224f010bfe6aed7155e51ed9ee",
      "transactionIndex": "0x1",
      "blockHash": "0xbec7bb66f9c6f4ff24c30338e43c9aabe37bbcf58e037e3793b3c0046b10fad8",
      "blockNumber": "0x25e431e",
      "gasUsed": "0x1e86e",
      "effectiveGasPrice": "0xba43cfaa0",
      "blobGasUsed": "0x9c40",
      "from": "0xecf9541c6ff5e8774a6d8f64b57a4be473de49ef",
      "to": "0xcf63800b3cc47b149421e6a01b9914c3557884b4",
      "contractAddress": null
    },
    {
      "type": "0x0",
      "status": "0x1",
      "cumulativeGasUsed": "0x29d19",
      "logs": [
        {
          "address": "0xcf63800b3cc47b149421e6a01b9914c3557884b4",
          "topics": [
            "0x53676a99a4258059caafb8053b0bde52e115b921e34002f40c9211c659f1d8f1",
            "0x0000000000000000000000000000000000000000000000000000000000000003",
            "0x0000000000000000000000000000000000000000000000000000000000000003"
          ],
          "data": "0x0000000000000000000000000000000000000000000000000005543df729c000000000000000000000000000000000000000000000000000000000000000004000000000000000000000000000000000000000000000000000000000000000086d6f6d656e74756d000000000000000000000000000000000000000000000000",
          "blockHash": "0xe66287115887c4414348c30bdf616df54a04fa5d51560d342515d37f9236d55b",
          "blockNumber": "0x25e4322",
          "blockTimestamp": "0x6a280925",
          "transactionHash": "0x77df30389e2267ccb14ed789a69d63ab2e2a52e39ab07dba68106e30097e7911",
          "transactionIndex": "0x1",
          "logIndex": "0x0",
          "removed": false
        }
      ],
      "logsBloom": "0x00000000200000000000000000000000000000000000000000000000000000000000000000000000000000000000000000000000060000000080000000000000000000000000100000000000000000000000000000000000001000000000000000000000000000000000000000000000000000000000000000000000000000008000000000000000000000000000000000000000000000000000000000000000000000000000000000000000000000000000000000800000000000000000400000000000000000000000000000000000000000000000000000000000000000000000000000000000000000000000000000000000000000000000000000000000",
      "transactionHash": "0x77df30389e2267ccb14ed789a69d63ab2e2a52e39ab07dba68106e30097e7911",
      "transactionIndex": "0x1",
      "blockHash": "0xe66287115887c4414348c30bdf616df54a04fa5d51560d342515d37f9236d55b",
      "blockNumber": "0x25e4322",
      "gasUsed": "0x1e84a",
      "effectiveGasPrice": "0xba43cfaa0",
      "blobGasUsed": "0x9c40",
      "from": "0xecf9541c6ff5e8774a6d8f64b57a4be473de49ef",
      "to": "0xcf63800b3cc47b149421e6a01b9914c3557884b4",
      "contractAddress": null
    },
    {
      "type": "0x0",
      "status": "0x1",
      "cumulativeGasUsed": "0x2da7c",
      "logs": [
        {
          "address": "0xcf63800b3cc47b149421e6a01b9914c3557884b4",
          "topics": [
            "0xddaef301330a2a9e702ae4e9c6410fd7a759987356ee7df21de23f15e15a007f",
            "0x0000000000000000000000000000000000000000000000000000000000000001",
            "0x0000000000000000000000000000000000000000000000000000000000000001",
            "0x0000000000000000000000000000000000000000000000000000000000000002"
          ],
          "data": "0x00000000000000000000000000000000000000000000000000071afd498d00009a282819db601cd79f33e86fc79c07c6ae37d4d7539f6981e0b9e3876707f954",
          "blockHash": "0xed9e2ac420d3524f71c959def774c126af3ced22834c250d09f3cf308cc7cb1c",
          "blockNumber": "0x25e4326",
          "blockTimestamp": "0x6a28092d",
          "transactionHash": "0x78b5f1a86313a9cdc43f812c275a1c7048ac7590989779f9c3b064b7027e2a4e",
          "transactionIndex": "0x1",
          "logIndex": "0x0",
          "removed": false
        }
      ],
      "logsBloom": "0x04000000000000000000000000000000000000000000000000000000000000000000000000000000000000000000000000000000000000000080000000040000000000000000900000004000000000000000000000040000001000000000000000000000000000000000000000000000000000000000000000000000000000000000000000000000000000000000000000000000000000000000000000000000000000000000000000000100000000000000000000000000004000000000000000000000000000000000000000000000000000000000000000000000000040000000000000000000000000000000000000000000008000000000000000000000",
      "transactionHash": "0x78b5f1a86313a9cdc43f812c275a1c7048ac7590989779f9c3b064b7027e2a4e",
      "transactionIndex": "0x1",
      "blockHash": "0xed9e2ac420d3524f71c959def774c126af3ced22834c250d09f3cf308cc7cb1c",
      "blockNumber": "0x25e4326",
      "gasUsed": "0x225ad",
      "effectiveGasPrice": "0xba43cfaa0",
      "blobGasUsed": "0x9c40",
      "from": "0xecf9541c6ff5e8774a6d8f64b57a4be473de49ef",
      "to": "0xcf63800b3cc47b149421e6a01b9914c3557884b4",
      "contractAddress": null
    },
    {
      "type": "0x0",
      "status": "0x1",
      "cumulativeGasUsed": "0x1fb00",
      "logs": [
        {
          "address": "0xcf63800b3cc47b149421e6a01b9914c3557884b4",
          "topics": [
            "0xddaef301330a2a9e702ae4e9c6410fd7a759987356ee7df21de23f15e15a007f",
            "0x0000000000000000000000000000000000000000000000000000000000000001",
            "0x0000000000000000000000000000000000000000000000000000000000000001",
            "0x0000000000000000000000000000000000000000000000000000000000000003"
          ],
          "data": "0x00000000000000000000000000000000000000000000000000071afd498d0000eafe11d58abfaca4b0963666e25ae9a70b247847136f40fbc03cb1c917457846",
          "blockHash": "0x11d504e9e30215dbca055bb9dc2c0717622c8ab457288e4fd5dc8b787b6abcee",
          "blockNumber": "0x25e4329",
          "blockTimestamp": "0x6a280933",
          "transactionHash": "0x5fafde054ae7db2152b1ee3cea5c3b47d9941acf142942a9b3c278b3300ac2bf",
          "transactionIndex": "0x1",
          "logIndex": "0x0",
          "removed": false
        }
      ],
      "logsBloom": "0x00000000000000000000000000000000000000000000000000000000000000000000000000000000000000000000000000000000020000000080000000040000000000000000900000004000000000000000000000040000001000000000000000000000000000000000000000000000000000000000000000000000000000000000000000000000000000000000000000000000000000000000000000000000000000000000000000000000000000000000000000800000004000000000400000000000000000000000000000000000000000000000000000000000000040000000000000000000000000000000000000000000000000000000000000000000",
      "transactionHash": "0x5fafde054ae7db2152b1ee3cea5c3b47d9941acf142942a9b3c278b3300ac2bf",
      "transactionIndex": "0x1",
      "blockHash": "0x11d504e9e30215dbca055bb9dc2c0717622c8ab457288e4fd5dc8b787b6abcee",
      "blockNumber": "0x25e4329",
      "gasUsed": "0x11a7d",
      "effectiveGasPrice": "0xba43cfaa0",
      "blobGasUsed": "0x9c40",
      "from": "0xecf9541c6ff5e8774a6d8f64b57a4be473de49ef",
      "to": "0xcf63800b3cc47b149421e6a01b9914c3557884b4",
      "contractAddress": null
    },
    {
      "type": "0x0",
      "status": "0x1",
      "cumulativeGasUsed": "0x254e4",
      "logs": [
        {
          "address": "0xcf63800b3cc47b149421e6a01b9914c3557884b4",
          "topics": [
            "0xddaef301330a2a9e702ae4e9c6410fd7a759987356ee7df21de23f15e15a007f",
            "0x0000000000000000000000000000000000000000000000000000000000000002",
            "0x0000000000000000000000000000000000000000000000000000000000000002",
            "0x0000000000000000000000000000000000000000000000000000000000000001"
          ],
          "data": "0x000000000000000000000000000000000000000000000000000aa87bee538000fe5ce46a19a8690f1ed72d10f134a0e45f3e642b0e9be0d2203e14120319bd90",
          "blockHash": "0x3d76b5d81697d63a62ed0a45424567c1c6af32ccfcc1a4e1bfa122546073026f",
          "blockNumber": "0x25e432d",
          "blockTimestamp": "0x6a28093b",
          "transactionHash": "0xcb38648642a39b0dd5ee2f05ab6bc7ab59049c7bdb9fd4ed829f11adc3e6b987",
          "transactionIndex": "0x1",
          "logIndex": "0x0",
          "removed": false
        }
      ],
      "logsBloom": "0x04000000000000000000000000000000000000000000000000000000000000000000000000000000000000000000000000000000000000000080000000040000000000000000900000004000000000000000000000040000001000000000000000000000000000000000000000000000000000000000000000000000000000000000000000000000000000000000000000000000000000000000000000000000000000000000000000000100000000000000000000000000004000000000000000000000000000000000000000000000000000000000000000000000000040000000000000000000000000000000000000000000008000000000000000000000",
      "transactionHash": "0xcb38648642a39b0dd5ee2f05ab6bc7ab59049c7bdb9fd4ed829f11adc3e6b987",
      "transactionIndex": "0x1",
      "blockHash": "0x3d76b5d81697d63a62ed0a45424567c1c6af32ccfcc1a4e1bfa122546073026f",
      "blockNumber": "0x25e432d",
      "gasUsed": "0x1a015",
      "effectiveGasPrice": "0xba43cfaa0",
      "blobGasUsed": "0x9c40",
      "from": "0xecf9541c6ff5e8774a6d8f64b57a4be473de49ef",
      "to": "0xcf63800b3cc47b149421e6a01b9914c3557884b4",
      "contractAddress": null
    }
  ],
  "libraries": [],
  "pending": [],
  "returns": {},
  "timestamp": 1781008700825,
  "chain": 5003,
  "commit": "2bac303"
}