{
  "transactions": [
    {
      "hash": "0x71e5a306685384333e282409d0a57243ba51981c6d3ec4545de7f9bbe6a7e379",
      "transactionType": "CREATE",
      "contractName": "TrustOracle",
      "contractAddress": "0x18b26f170dca58306c2c9e20da74e2d4531fb3f2",
      "function": null,
      "arguments": [
        "0x4eCE1853623CA801536d319cB9ddE454f5dA6dC7",
        "0xeF2F3602d5fe04487a971e5d749DAC7343b8F895",
        "0xe84E84D7e2E588aa8F88d1D1ADF2bdc70365a02b"
      ],
      "transaction": {
        "from": "0xecf9541c6ff5e8774a6d8f64b57a4be473de49ef",
        "to": null,
        "gas": "0x1a7009",
        "value": "0x0",
        "input": "0x60a06040523480156200001157600080fd5b50604051620016f4380380620016f48339810160408190526200003491620000dc565b6001600160a01b0383166200007b5760405162461bcd60e51b81526020600482015260096024820152683d32b9379030b2323960b91b604482015260640160405180910390fd5b6001600160a01b03928316608052600080549284166001600160a01b0319938416179055600180549190931690821617909155600280549091163317905562000126565b80516001600160a01b0381168114620000d757600080fd5b919050565b600080600060608486031215620000f257600080fd5b620000fd84620000bf565b92506200010d60208501620000bf565b91506200011d60408501620000bf565b90509250925092565b6080516115a4620001506000396000818161017301528181610be50152610dbc01526115a46000f3fe608060405234801561001057600080fd5b50600436106101165760003560e01c80638c64ea4a116100a2578063c3c5a54711610071578063c3c5a54714610285578063d959fb2e146102b8578063daa0bfba146102cb578063e19a9dd9146102f4578063ebb1bc051461030757600080fd5b80638c64ea4a14610237578063a7c6a1001461024a578063b39b782014610252578063b8cc9ce61461027257600080fd5b806364c9ec6f116100e957806364c9ec6f146101c8578063677b1f8d146101db57806367ccd1cb146101fc578063752821e9146102115780637ceab3b11461022457600080fd5b80630c340a241461011b578063282470f51461014b5780632c159a1a1461016e57806356029a9114610195575b600080fd5b60025461012e906001600160a01b031681565b6040516001600160a01b0390911681526020015b60405180910390f35b61015e61015936600461120f565b61031d565b6040516101429493929190611294565b61012e7f000000000000000000000000000000000000000000000000000000000000000081565b6101a86101a33660046112c7565b610409565b604080519485526020850193909352918301526060820152608001610142565b60005461012e906001600160a01b031681565b6101ee6101e93660046112e0565b61048a565b604051908152602001610142565b61020f61020a3660046112e0565b6104f9565b005b6101ee61021f3660046112c7565b610724565b60015461012e906001600160a01b031681565b61012e6102453660046112c7565b61078c565b6003546101ee565b6102656102603660046112c7565b6107b6565b60405161014291906112fb565b61020f6102803660046112e0565b6107c9565b6102a86102933660046112e0565b60056020526000908152604090205460ff1681565b6040519015158152602001610142565b61020f6102c63660046112e0565b61087f565b61012e6102d93660046112c7565b6004602052600090815260409020546001600160a01b031681565b61020f6103023660046112e0565b6108fe565b61030f610976565b60405161014292919061134a565b600060606000606061032e87610724565b935061033984610afe565b6001549093506001600160a01b031661037a57505060408051808201909152600d81526c19dd585c99081b9bdd081cd95d609a1b6020820152600090610400565b600154604051630c83f4c360e11b8152600481018990526001600160a01b0388811660248301526044820188905290911690631907e98690606401600060405180830381865afa1580156103d2573d6000803e3d6000fd5b505050506040513d6000823e601f3d908101601f191682016040526103fa919081019061138e565b90925090505b93509350935093565b6000818152600460205260408120548190819081906001600160a01b0316806104695760405162461bcd60e51b815260206004820152600d60248201526c1d5b9adb9bdddb881859d95b9d609a1b60448201526064015b60405180910390fd5b61047a81610475610bd3565b610d29565b9450945094509450509193509193565b6001600160a01b03811660009081526005602052604081205460ff166104e25760405162461bcd60e51b815260206004820152600d60248201526c1d5b9adb9bdddb881d985d5b1d609a1b6044820152606401610460565b6104f3826104ee610bd3565b611171565b92915050565b6002546001600160a01b031633146105235760405162461bcd60e51b815260040161046090611456565b6001600160a01b0381166105655760405162461bcd60e51b81526020600482015260096024820152683d32b9379030b2323960b91b6044820152606401610460565b6001600160a01b03811660009081526005602052604090205460ff16156105bb5760405162461bcd60e51b815260206004820152600a6024820152691c9959da5cdd195c995960b21b6044820152606401610460565b6000816001600160a01b031663e84f43b76040518163ffffffff1660e01b8152600401602060405180830381865afa1580156105fb573d6000803e3d6000fd5b505050506040513d601f19601f8201168201806040525081019061061f919061147c565b6000818152600460205260409020549091506001600160a01b03161561067a5760405162461bcd60e51b815260206004820152601060248201526f1859d95b9d081c9959da5cdd195c995960821b6044820152606401610460565b6001600160a01b0382166000818152600560209081526040808320805460ff19166001908117909155858452600490925280832080546001600160a01b0319908116861790915560038054938401815584527fc2575a0e9e593c00f959f8c92f12db2869c3395a3b0502d05e2516446f71f85b909201805490921684179091555183917f7051aac27f9b76ec8f37bd5796f2dcf402bd840a1c45c952a6eeb0e11bde099691a35050565b6000818152600460205260408120546001600160a01b0316806107795760405162461bcd60e51b815260206004820152600d60248201526c1d5b9adb9bdddb881859d95b9d609a1b6044820152606401610460565b610785816104ee610bd3565b9392505050565b6003818154811061079c57600080fd5b6000918252602090912001546001600160a01b0316905081565b60606104f36107c483610724565b610afe565b6002546001600160a01b031633146107f35760405162461bcd60e51b815260040161046090611456565b6001600160a01b0381166108355760405162461bcd60e51b81526020600482015260096024820152683d32b9379030b2323960b91b6044820152606401610460565b600280546001600160a01b0319166001600160a01b0383169081179091556040517f7592c8f8a90221244059a3c38d66549c222068cdb30705658fc3e76f73d1128290600090a250565b6002546001600160a01b031633146108a95760405162461bcd60e51b815260040161046090611456565b600080546001600160a01b0319166001600160a01b0383169081179091556040519081527f3153d002b244d7427874a391fcd3b7723d75a7a083c9f0aa057ff38d1c23ebce906020015b60405180910390a150565b6002546001600160a01b031633146109285760405162461bcd60e51b815260040161046090611456565b600180546001600160a01b0319166001600160a01b0383169081179091556040519081527f0b35c8d8a01faf4dfe1389b808ff376826039194d613f5976009cf4a23eba201906020016108f3565b60035460609081908067ffffffffffffffff81111561099757610997611378565b6040519080825280602002602001820160405280156109c0578160200160208202803683370190505b5092508067ffffffffffffffff8111156109dc576109dc611378565b604051908082528060200260200182016040528015610a05578160200160208202803683370190505b5091506000610a12610bd3565b905060005b82811015610af757600060038281548110610a3457610a34611495565b600091825260209182902001546040805163e84f43b760e01b815290516001600160a01b039092169350839263e84f43b7926004808401938290030181865afa158015610a85573d6000803e3d6000fd5b505050506040513d601f19601f82011682018060405250810190610aa9919061147c565b868381518110610abb57610abb611495565b602002602001018181525050610ad18184611171565b858381518110610ae357610ae3611495565b602090810291909101015250600101610a17565b5050509091565b6060670bcbce7f1b1500008210610b2e57505060408051808201909152600381526241414160e81b602082015290565b6709b6e64a8ec600008210610b5b575050604080518082019091526002815261414160f01b602082015290565b6707a1fe16027700008210610b875750506040805180820190915260018152604160f81b602082015290565b67058d15e1762800008210610bb557505060408051808201909152600381526221212160e91b602082015290565b5050604080518082019091526002815261212160f11b602082015290565b6000805b600354811015610d195760007f00000000000000000000000000000000000000000000000000000000000000006001600160a01b031663aee1446060038481548110610c2557610c25611495565b600091825260209182902001546040805163e84f43b760e01b815290516001600160a01b039092169263e84f43b7926004808401938290030181865afa158015610c73573d6000803e3d6000fd5b505050506040513d601f19601f82011682018060405250810190610c97919061147c565b6040518263ffffffff1660e01b8152600401610cb591815260200190565b6040805180830381865afa158015610cd1573d6000803e3d6000fd5b505050506040513d601f19601f82011682018060405250810190610cf591906114ab565b509050600081138015610d0757508281115b15610d10578092505b50600101610bd7565b5080600003610d26575060015b90565b60008060008060008690506000816001600160a01b031663e84f43b76040518163ffffffff1660e01b8152600401602060405180830381865afa158015610d74573d6000803e3d6000fd5b505050506040513d601f19601f82011682018060405250810190610d98919061147c565b6040516305770a2360e51b8152600481018290529091506000906001600160a01b037f0000000000000000000000000000000000000000000000000000000000000000169063aee14460906024016040805180830381865afa158015610e02573d6000803e3d6000fd5b505050506040513d601f19601f82011682018060405250810190610e2691906114ab565b5090506000808213610e39576000610e3b565b815b905088610e50670de0b6b3a7640000836114e5565b610e5a91906114fc565b97506000846001600160a01b031663aaf6e10f6040518163ffffffff1660e01b8152600401602060405180830381865afa158015610e9c573d6000803e3d6000fd5b505050506040513d601f19601f82011682018060405250810190610ec0919061151e565b67ffffffffffffffff1690508015610f30576000814211610ee2576000610eec565b610eec8242611548565b905062015180811015610f295762015180670de0b6b3a7640000610f108383611548565b610f1a91906114e5565b610f2491906114fc565b610f2c565b60005b9850505b6000856001600160a01b031663c1590cd76040518163ffffffff1660e01b8152600401602060405180830381865afa158015610f70573d6000803e3d6000fd5b505050506040513d601f19601f82011682018060405250810190610f94919061147c565b90506000866001600160a01b03166342a35e726040518163ffffffff1660e01b8152600401602060405180830381865afa158015610fd6573d6000803e3d6000fd5b505050506040513d601f19601f82011682018060405250810190610ffa919061147c565b90508060000361101457670de0b6b3a7640000985061108f565b600082821161102457600061104c565b81670de0b6b3a76400006110388583611548565b61104291906114e5565b61104c91906114fc565b9050600061105b6005836114e5565b9050670de0b6b3a76400008111156110785750670de0b6b3a76400005b61108a81670de0b6b3a7640000611548565b9a5050505b600080546001600160a01b031615611113576000546040516318c1be4b60e31b8152600481018990526001600160a01b039091169063c60df25890602401602060405180830381865afa1580156110ea573d6000803e3d6000fd5b505050506040513d601f19601f8201168201806040525081019061110e919061147c565b611116565b60005b90506802b5e3af16b1880000811015611154576802b5e3af16b1880000611145670de0b6b3a7640000836114e5565b61114f91906114fc565b61115e565b670de0b6b3a76400005b9850505050505050505092959194509250565b60008060008060006111838787610d29565b93509350935093506127106107d08261119c91906114e5565b6111a86107d0856114e5565b6111b46107d0876114e5565b6111c0610fa0896114e5565b6111ca919061155b565b6111d4919061155b565b6111de919061155b565b6111e891906114fc565b979650505050505050565b80356001600160a01b038116811461120a57600080fd5b919050565b60008060006060848603121561122457600080fd5b83359250611234602085016111f3565b9150604084013590509250925092565b60005b8381101561125f578181015183820152602001611247565b50506000910152565b60008151808452611280816020860160208601611244565b601f01601f19169290920160200192915050565b8481526080602082015260006112ad6080830186611268565b841515604084015282810360608401526111e88185611268565b6000602082840312156112d957600080fd5b5035919050565b6000602082840312156112f257600080fd5b610785826111f3565b6020815260006107856020830184611268565b60008151808452602080850194506020840160005b8381101561133f57815187529582019590820190600101611323565b509495945050505050565b60408152600061135d604083018561130e565b828103602084015261136f818561130e565b95945050505050565b634e487b7160e01b600052604160045260246000fd5b600080604083850312156113a157600080fd5b825180151581146113b157600080fd5b602084015190925067ffffffffffffffff808211156113cf57600080fd5b818501915085601f8301126113e357600080fd5b8151818111156113f5576113f5611378565b604051601f8201601f19908116603f0116810190838211818310171561141d5761141d611378565b8160405282815288602084870101111561143657600080fd5b611447836020830160208801611244565b80955050505050509250929050565b6020808252600c908201526b3737ba1033b7bb32b93737b960a11b604082015260600190565b60006020828403121561148e57600080fd5b5051919050565b634e487b7160e01b600052603260045260246000fd5b600080604083850312156114be57600080fd5b505080516020909101519092909150565b634e487b7160e01b600052601160045260246000fd5b80820281158282048414176104f3576104f36114cf565b60008261151957634e487b7160e01b600052601260045260246000fd5b500490565b60006020828403121561153057600080fd5b815167ffffffffffffffff8116811461078557600080fd5b818103818111156104f3576104f36114cf565b808201808211156104f3576104f36114cf56fea2646970667358221220d5705cef91dea9d27f6b4ef9a18607cd79a0f5abcf97eb5f999b5fed30e41c1b64736f6c634300081800330000000000000000000000004ece1853623ca801536d319cb9dde454f5da6dc7000000000000000000000000ef2f3602d5fe04487a971e5d749dac7343b8f895000000000000000000000000e84e84d7e2e588aa8f88d1d1adf2bdc70365a02b",
        "nonce": "0x296",
        "chainId": "0x138b"
      },
      "additionalContracts": [],
      "isFixedGasLimit": false
    },
    {
      "hash": "0x4d4d80c02757bdaca3bc82dbc9be027b67dbd21ba17ad648493824fda19442c5",
      "transactionType": "CALL",
      "contractName": "TrustOracle",
      "contractAddress": "0x18b26f170dca58306c2c9e20da74e2d4531fb3f2",
      "function": "registerVault(address)",
      "arguments": [
        "0x7E4399B91bF6801d7D74E359d162065c88EA9d1B"
      ],
      "transaction": {
        "from": "0xecf9541c6ff5e8774a6d8f64b57a4be473de49ef",
        "to": "0x18b26f170dca58306c2c9e20da74e2d4531fb3f2",
        "gas": "0x71d2",
        "value": "0x0",
        "input": "0x67ccd1cb0000000000000000000000007e4399b91bf6801d7d74e359d162065c88ea9d1b",
        "nonce": "0x297",
        "chainId": "0x138b"
      },
      "additionalContracts": [],
      "isFixedGasLimit": false
    },
    {
      "hash": "0xd9250bee3b93a0a58a04d11b48dd0ad306b7deecc10b1c76ae388c173803199c",
      "transactionType": "CALL",
      "contractName": "TrustOracle",
      "contractAddress": "0x18b26f170dca58306c2c9e20da74e2d4531fb3f2",
      "function": "registerVault(address)",
      "arguments": [
        "0x06e196408356D2BDa4d21301B3bbB78c931AE9E3"
      ],
      "transaction": {
        "from": "0xecf9541c6ff5e8774a6d8f64b57a4be473de49ef",
        "to": "0x18b26f170dca58306c2c9e20da74e2d4531fb3f2",
        "gas": "0x71d2",
        "value": "0x0",
        "input": "0x67ccd1cb00000000000000000000000006e196408356d2bda4d21301b3bbb78c931ae9e3",
        "nonce": "0x298",
        "chainId": "0x138b"
      },
      "additionalContracts": [],
      "isFixedGasLimit": false
    },
    {
      "hash": "0x56bc138c7905b12a27ccd2b6cf03eaa671d33f0529fe13bc4921ec46aca739af",
      "transactionType": "CALL",
      "contractName": "TrustOracle",
      "contractAddress": "0x18b26f170dca58306c2c9e20da74e2d4531fb3f2",
      "function": "registerVault(address)",
      "arguments": [
        "0xBA8075d91983D15628DE99CDC510cD6C70F434EE"
      ],
      "transaction": {
        "from": "0xecf9541c6ff5e8774a6d8f64b57a4be473de49ef",
        "to": "0x18b26f170dca58306c2c9e20da74e2d4531fb3f2",
        "gas": "0x71d2",
        "value": "0x0",
        "input": "0x67ccd1cb000000000000000000000000ba8075d91983d15628de99cdc510cd6c70f434ee",
        "nonce": "0x299",
        "chainId": "0x138b"
      },
      "additionalContracts": [],
      "isFixedGasLimit": false
    },
    {
      "hash": "0x362744e3de6a31a21082d9f4cb50559272d44634f58eff848a8d5ed92ee4db88",
      "transactionType": "CALL",
      "contractName": "TrustOracle",
      "contractAddress": "0x18b26f170dca58306c2c9e20da74e2d4531fb3f2",
      "function": "registerVault(address)",
      "arguments": [
        "0x7E1827697843f377761F19f6F3386D8750d75BBD"
      ],
      "transaction": {
        "from": "0xecf9541c6ff5e8774a6d8f64b57a4be473de49ef",
        "to": "0x18b26f170dca58306c2c9e20da74e2d4531fb3f2",
        "gas": "0x71d2",
        "value": "0x0",
        "input": "0x67ccd1cb0000000000000000000000007e1827697843f377761f19f6f3386d8750d75bbd",
        "nonce": "0x29a",
        "chainId": "0x138b"
      },
      "additionalContracts": [],
      "isFixedGasLimit": false
    },
    {
      "hash": "0xf27a5b2ed05e449c5f74f392844c6d9426fa009fe82992fa8f0bd5c93a42540a",
      "transactionType": "CALL",
      "contractName": "TrustOracle",
      "contractAddress": "0x18b26f170dca58306c2c9e20da74e2d4531fb3f2",
      "function": "registerVault(address)",
      "arguments": [
        "0xa40AF1a30E4094b2807fDfbF6195C06245ab0822"
      ],
      "transaction": {
        "from": "0xecf9541c6ff5e8774a6d8f64b57a4be473de49ef",
        "to": "0x18b26f170dca58306c2c9e20da74e2d4531fb3f2",
        "gas": "0x71d2",
        "value": "0x0",
        "input": "0x67ccd1cb000000000000000000000000a40af1a30e4094b2807fdfbf6195c06245ab0822",
        "nonce": "0x29b",
        "chainId": "0x138b"
      },
      "additionalContracts": [],
      "isFixedGasLimit": false
    },
    {
      "hash": "0xa786029444d5081b527ef3febd3be71822db899ae49e2b6c99e50ae24640af1a",
      "transactionType": "CREATE",
      "contractName": "TrustOracleConsumer",
      "contractAddress": "0x2a696ac743e9652807f7105d1eb7ad6cf949670e",
      "function": null,
      "arguments": [
        "0x18b26f170dCA58306C2c9e20DA74e2d4531Fb3f2",
        "550000000000000000"
      ],
      "transaction": {
        "from": "0xecf9541c6ff5e8774a6d8f64b57a4be473de49ef",
        "to": null,
        "gas": "0x60867",
        "value": "0x0",
        "input": "0x60c060405234801561001057600080fd5b506040516105b43803806105b483398101604081905261002f916100d1565b6001600160a01b0382166100785760405162461bcd60e51b815260206004820152600b60248201526a7a65726f206f7261636c6560a81b60448201526064015b60405180910390fd5b670de0b6b3a76400008111156100bb5760405162461bcd60e51b81526020600482015260086024820152676d696e53636f726560c01b604482015260640161006f565b6001600160a01b0390911660805260a05261010b565b600080604083850312156100e457600080fd5b82516001600160a01b03811681146100fb57600080fd5b6020939093015192949293505050565b60805160a05161046a61014a60003960008181605601528181610182015261032f01526000818160900152818161011301526102c0015261046a6000f3fe608060405234801561001057600080fd5b506004361061004c5760003560e01c806313c2bedc146100515780637dc0d1d01461008b5780638e140f80146100ca578063b430b957146100dd575b600080fd5b6100787f000000000000000000000000000000000000000000000000000000000000000081565b6040519081526020015b60405180910390f35b6100b27f000000000000000000000000000000000000000000000000000000000000000081565b6040516001600160a01b039091168152602001610082565b6100786100d8366004610386565b6100f0565b6100786100eb3660046103b2565b61029d565b60405163752821e960e01b81526004810184905260009081906001600160a01b037f0000000000000000000000000000000000000000000000000000000000000000169063752821e990602401602060405180830381865afa15801561015a573d6000803e3d6000fd5b505050506040513d601f19601f8201168201806040525081019061017e91906103d4565b90507f00000000000000000000000000000000000000000000000000000000000000008110156101ed5760405162461bcd60e51b81526020600482015260156024820152741d1c9d5cdd0818995b1bddc81d1a1c995cda1bdb19605a1b60448201526064015b60405180910390fd5b670de0b6b3a764000061020082856103ed565b61020a9190610412565b8411156102595760405162461bcd60e51b815260206004820152601960248201527f6f7665722074727573742d7765696768746564206c696d69740000000000000060448201526064016101e4565b604080518281526020810186905286917ffe64c4c4687724285089161b6926f235258b95ec77297aac5a91c315d246e474910160405180910390a250919392505050565b60405163752821e960e01b81526004810183905260009081906001600160a01b037f0000000000000000000000000000000000000000000000000000000000000000169063752821e990602401602060405180830381865afa158015610307573d6000803e3d6000fd5b505050506040513d601f19601f8201168201806040525081019061032b91906103d4565b90507f000000000000000000000000000000000000000000000000000000000000000081101561035f576000915050610380565b670de0b6b3a764000061037282856103ed565b61037c9190610412565b9150505b92915050565b60008060006060848603121561039b57600080fd5b505081359360208301359350604090920135919050565b600080604083850312156103c557600080fd5b50508035926020909101359150565b6000602082840312156103e657600080fd5b5051919050565b808202811582820484141761038057634e487b7160e01b600052601160045260246000fd5b60008261042f57634e487b7160e01b600052601260045260246000fd5b50049056fea2646970667358221220e2f7085f5cdb14d7996cdc771be03a07abaf1df3b0e3a05fcff1f6f77b40d8da64736f6c6343000818003300000000000000000000000018b26f170dca58306c2c9e20da74e2d4531fb3f200000000000000000000000000000000000000000000000007a1fe1602770000",
        "nonce": "0x29c",
        "chainId": "0x138b"
      },
      "additionalContracts": [],
      "isFixedGasLimit": false
    }
  ],
  "receipts": [
    {
      "type": "0x0",
      "status": "0x1",
      "cumulativeGasUsed": "0x15092e",
      "logs": [],
      "logsBloom": "0x00000000000000000000000000000000000000000000000000000000000000000000000000000000000000000000000000000000000000000000000000000000000000000000000000000000000000000000000000000000000000000000000000000000000000000000000000000000000000000000000000000000000000000000000000000000000000000000000000000000000000000000000000000000000000000000000000000000000000000000000000000000000000000000000000000000000000000000000000000000000000000000000000000000000000000000000000000000000000000000000000000000000000000000000000000000",
      "transactionHash": "0x71e5a306685384333e282409d0a57243ba51981c6d3ec4545de7f9bbe6a7e379",
      "transactionIndex": "0x1",
      "blockHash": "0x5da633fa3cf2455b7b1435f4c06c0386e6fe83563965600a50c28d80ea4bf556",
      "blockNumber": "0x25fc8cc",
      "gasUsed": "0x1428ab",
      "effectiveGasPrice": "0xba43cfaa0",
      "blobGasUsed": "0x135150",
      "from": "0xecf9541c6ff5e8774a6d8f64b57a4be473de49ef",
      "to": null,
      "contractAddress": "0x18b26f170dca58306c2c9e20da74e2d4531fb3f2"
    },
    {
      "type": "0x0",
      "status": "0x1",
      "cumulativeGasUsed": "0x280aa",
      "logs": [
        {
          "address": "0x18b26f170dca58306c2c9e20da74e2d4531fb3f2",
          "topics": [
            "0x7051aac27f9b76ec8f37bd5796f2dcf402bd840a1c45c952a6eeb0e11bde0996",
            "0x0000000000000000000000000000000000000000000000000000000000000001",
            "0x0000000000000000000000007e4399b91bf6801d7d74e359d162065c88ea9d1b"
          ],
          "data": "0x",
          "blockHash": "0x2742621090e142a01e8f4f7012c8627bfb3e50dfc989f73b048cd774b91900bc",
          "blockNumber": "0x25fc8d0",
          "blockTimestamp": "0x6a2b1481",
          "transactionHash": "0x4d4d80c02757bdaca3bc82dbc9be027b67dbd21ba17ad648493824fda19442c5",
          "transactionIndex": "0x1",
          "logIndex": "0x0",
          "removed": false
        }
      ],
      "logsBloom": "0x00000000000000000000000001200000000000000000000000000000000000000000000000000000000000000000000000000000000000000000000000040000000000000000000000000000000000000000000000040000000000000000000000000000002000000000000000000000000000000000000000000000000000000000000000000000000400000000000001001000000000000000000000000100000000008000000000000000000000000000000000000000000000000000000000000000000000000000000000000000000000000000000000000000000040000000000000000000000000080000000000000000000000000000000000000000",
      "transactionHash": "0x4d4d80c02757bdaca3bc82dbc9be027b67dbd21ba17ad648493824fda19442c5",
      "transactionIndex": "0x1",
      "blockHash": "0x2742621090e142a01e8f4f7012c8627bfb3e50dfc989f73b048cd774b91900bc",
      "blockNumber": "0x25fc8d0",
      "gasUsed": "0x1cbdb",
      "effectiveGasPrice": "0xba43cfaa0",
      "blobGasUsed": "0x9c40",
      "from": "0xecf9541c6ff5e8774a6d8f64b57a4be473de49ef",
      "to": "0x18b26f170dca58306c2c9e20da74e2d4531fb3f2",
      "contractAddress": null
    },
    {
      "type": "0x0",
      "status": "0x1",
      "cumulativeGasUsed": "0x23dd2",
      "logs": [
        {
          "address": "0x18b26f170dca58306c2c9e20da74e2d4531fb3f2",
          "topics": [
            "0x7051aac27f9b76ec8f37bd5796f2dcf402bd840a1c45c952a6eeb0e11bde0996",
            "0x0000000000000000000000000000000000000000000000000000000000000002",
            "0x00000000000000000000000006e196408356d2bda4d21301b3bbb78c931ae9e3"
          ],
          "data": "0x",
          "blockHash": "0xde69443c3e4ffc160ca4178b59082d711bdc65db43ac77c97541285e5b418c97",
          "blockNumber": "0x25fc8d4",
          "blockTimestamp": "0x6a2b1489",
          "transactionHash": "0xd9250bee3b93a0a58a04d11b48dd0ad306b7deecc10b1c76ae388c173803199c",
          "transactionIndex": "0x1",
          "logIndex": "0x0",
          "removed": false
        }
      ],
      "logsBloom": "0x04000000000000000000000001000000000000000000000000000000000000000000000000000000000000000100000000000000000000000004000000000000000000000000000000000000000000000000000000000000000000000000000000000000000000000000000000000000000000000000000000000000000000000000000000000000000400000000000001001000000000000000000000000100000020000000000000000100000000000000000000000000000000000000000000000000000000000000000000000000000000000000000000000000000000000000000000000000000000080000000000000000008000000000000000000000",
      "transactionHash": "0xd9250bee3b93a0a58a04d11b48dd0ad306b7deecc10b1c76ae388c173803199c",
      "transactionIndex": "0x1",
      "blockHash": "0xde69443c3e4ffc160ca4178b59082d711bdc65db43ac77c97541285e5b418c97",
      "blockNumber": "0x25fc8d4",
      "gasUsed": "0x1890f",
      "effectiveGasPrice": "0xba43cfaa0",
      "blobGasUsed": "0x9c40",
      "from": "0xecf9541c6ff5e8774a6d8f64b57a4be473de49ef",
      "to": "0x18b26f170dca58306c2c9e20da74e2d4531fb3f2",
      "contractAddress": null
    },
    {
      "type": "0x0",
      "status": "0x1",
      "cumulativeGasUsed": "0x36b4d",
      "logs": [
        {
          "address": "0x18b26f170dca58306c2c9e20da74e2d4531fb3f2",
          "topics": [
            "0x7051aac27f9b76ec8f37bd5796f2dcf402bd840a1c45c952a6eeb0e11bde0996",
            "0x0000000000000000000000000000000000000000000000000000000000000003",
            "0x000000000000000000000000ba8075d91983d15628de99cdc510cd6c70f434ee"
          ],
          "data": "0x",
          "blockHash": "0x6c2de17522ccfa3b11c1ceedabae42e6ff0a8aae578cdfbc625f8c496b9b1ceb",
          "blockNumber": "0x25fc8d7",
          "blockTimestamp": "0x6a2b148f",
          "transactionHash": "0x56bc138c7905b12a27ccd2b6cf03eaa671d33f0529fe13bc4921ec46aca739af",
          "transactionIndex": "0x2",
          "logIndex": "0x1",
          "removed": false
        }
      ],
      "logsBloom": "0x00400000000000000000000001000000000000000000000000000000000000000000040000000000000000000000000000000000020000000000000000000000000000000000000000000000000000000000000000000000000000002000000000000000000000000000000000000000000000000000000000000000000000000000000000000000000400000000000001001000000000000000000000000100000000000000000000000000000000000000000000800000000000000000400000000000000000000000000000000000000000000000000000000000000000000000000000000000000000080000000000000000000000000000000000000000",
      "transactionHash": "0x56bc138c7905b12a27ccd2b6cf03eaa671d33f0529fe13bc4921ec46aca739af",
      "transactionIndex": "0x2",
      "blockHash": "0x6c2de17522ccfa3b11c1ceedabae42e6ff0a8aae578cdfbc625f8c496b9b1ceb",
      "blockNumber": "0x25fc8d7",
      "gasUsed": "0x1890f",
      "effectiveGasPrice": "0xba43cfaa0",
      "blobGasUsed": "0x9c40",
      "from": "0xecf9541c6ff5e8774a6d8f64b57a4be473de49ef",
      "to": "0x18b26f170dca58306c2c9e20da74e2d4531fb3f2",
      "contractAddress": null
    },
    {
      "type": "0x0",
      "status": "0x1",
      "cumulativeGasUsed": "0x2d412",
      "logs": [
        {
          "address": "0x18b26f170dca58306c2c9e20da74e2d4531fb3f2",
          "topics": [
            "0x7051aac27f9b76ec8f37bd5796f2dcf402bd840a1c45c952a6eeb0e11bde0996",
            "0x0000000000000000000000000000000000000000000000000000000000000004",
            "0x0000000000000000000000007e1827697843f377761f19f6f3386d8750d75bbd"
          ],
          "data": "0x",
          "blockHash": "0x2329a561d99651baa2b74f9cdf3634a61ffa22ab8f6e595417cbc55b3d00ccea",
          "blockNumber": "0x25fc8db",
          "blockTimestamp": "0x6a2b1497",
          "transactionHash": "0x362744e3de6a31a21082d9f4cb50559272d44634f58eff848a8d5ed92ee4db88",
          "transactionIndex": "0x2",
          "logIndex": "0x1",
          "removed": false
        }
      ],
      "logsBloom": "0x00000000000000000000000001000000000000000000000000000000000000000000000000000000000000000000000000000000000000000000000000000000000000000000000000000000000000000000000000000000000000000000080008000000000000000000000000000000000000000000000000000000000000000000000000000000000400000000000001001000000000000800000000000100000000000000000000000000000000000000000000000000002000000000000000000000000000000000000000000000000000008000000002000000000000000000000000000000000000080000000000000000000000000000000000000000",
      "transactionHash": "0x362744e3de6a31a21082d9f4cb50559272d44634f58eff848a8d5ed92ee4db88",
      "transactionIndex": "0x2",
      "blockHash": "0x2329a561d99651baa2b74f9cdf3634a61ffa22ab8f6e595417cbc55b3d00ccea",
      "blockNumber": "0x25fc8db",
      "gasUsed": "0x1890f",
      "effectiveGasPrice": "0xba43cfaa0",
      "blobGasUsed": "0x9c40",
      "from": "0xecf9541c6ff5e8774a6d8f64b57a4be473de49ef",
      "to": "0x18b26f170dca58306c2c9e20da74e2d4531fb3f2",
      "contractAddress": null
    },
    {
      "type": "0x0",
      "status": "0x1",
      "cumulativeGasUsed": "0x26992",
      "logs": [
        {
          "address": "0x18b26f170dca58306c2c9e20da74e2d4531fb3f2",
          "topics": [
            "0x7051aac27f9b76ec8f37bd5796f2dcf402bd840a1c45c952a6eeb0e11bde0996",
            "0x0000000000000000000000000000000000000000000000000000000000000005",
            "0x000000000000000000000000a40af1a30e4094b2807fdfbf6195c06245ab0822"
          ],
          "data": "0x",
          "blockHash": "0xf30bc215e4b646760b22ac673e5f79d5f74314229da7201ded6e201ce58a0483",
          "blockNumber": "0x25fc8de",
          "blockTimestamp": "0x6a2b149d",
          "transactionHash": "0xf27a5b2ed05e449c5f74f392844c6d9426fa009fe82992fa8f0bd5c93a42540a",
          "transactionIndex": "0x1",
          "logIndex": "0x0",
          "removed": false
        }
      ],
      "logsBloom": "0x00000000000000000000000001000000000000000000000000000000000000000000000000000001000000000000000000000000000000000000000000000000000010000000000000000000000000000000000000000000000000000000000000000000000000000000000000000000000000000000000000000000000000000000000000000000000400000000001001001800000000008000000000000100000000000000000000000000020000000000000000000000000000000000000000000000000000000000000000000000000000000000000000000000000000000000000000000000000000080000000000000000000000000000000000000000",
      "transactionHash": "0xf27a5b2ed05e449c5f74f392844c6d9426fa009fe82992fa8f0bd5c93a42540a",
      "transactionIndex": "0x1",
      "blockHash": "0xf30bc215e4b646760b22ac673e5f79d5f74314229da7201ded6e201ce58a0483",
      "blockNumber": "0x25fc8de",
      "gasUsed": "0x1890f",
      "effectiveGasPrice": "0xba43cfaa0",
      "blobGasUsed": "0x9c40",
      "from": "0xecf9541c6ff5e8774a6d8f64b57a4be473de49ef",
      "to": "0x18b26f170dca58306c2c9e20da74e2d4531fb3f2",
      "contractAddress": null
    },
    {
      "type": "0x0",
      "status": "0x1",
      "cumulativeGasUsed": "0x54aef",
      "logs": [],
      "logsBloom": "0x00000000000000000000000000000000000000000000000000000000000000000000000000000000000000000000000000000000000000000000000000000000000000000000000000000000000000000000000000000000000000000000000000000000000000000000000000000000000000000000000000000000000000000000000000000000000000000000000000000000000000000000000000000000000000000000000000000000000000000000000000000000000000000000000000000000000000000000000000000000000000000000000000000000000000000000000000000000000000000000000000000000000000000000000000000000",
      "transactionHash": "0xa786029444d5081b527ef3febd3be71822db899ae49e2b6c99e50ae24640af1a",
      "transactionIndex": "0x1",
      "blockHash": "0x165da6a0e8f07271fabafe06a310325dd6f5d04ffe09ff3f13b81a543843da7b",
      "blockNumber": "0x25fc8e1",
      "gasUsed": "0x49620",
      "effectiveGasPrice": "0xba43cfaa0",
      "blobGasUsed": "0x55730",
      "from": "0xecf9541c6ff5e8774a6d8f64b57a4be473de49ef",
      "to": null,
      "contractAddress": "0x2a696ac743e9652807f7105d1eb7ad6cf949670e"
    }
  ],
  "libraries": [],
  "pending": [],
  "returns": {},
  "timestamp": 1781208228789,
  "chain": 5003,
  "commit": "23452b3"
}