{
  "transactions": [
    {
      "hash": "0x5605206d07375d800e7bf0314166b93cc191a7798f3991e75f4f1703f8f6fe56",
      "transactionType": "CREATE",
      "contractName": "Allocator",
      "contractAddress": "0x3169a913ff6d3542bab8db3beb6ef99aa708f05d",
      "function": null,
      "arguments": [
        "0xbc17D7F8f265d069781ed765914ED092989d92e7",
        "0x4eCE1853623CA801536d319cB9ddE454f5dA6dC7",
        "0xeF2F3602d5fe04487a971e5d749DAC7343b8F895"
      ],
      "transaction": {
        "from": "0xecf9541c6ff5e8774a6d8f64b57a4be473de49ef",
        "to": null,
        "gas": "0x3ac944",
        "value": "0x0",
        "input": "0x60c060405260016000553480156200001657600080fd5b5060405162003539380380620035398339810160408190526200003991620001f1565b6001600160a01b038316158015906200005a57506001600160a01b03821615155b620000975760405162461bcd60e51b81526020600482015260096024820152683d32b9379030b2323960b91b604482015260640160405180910390fd5b6001600160a01b0383811660805282811660a052600280549183166001600160a01b031992831617905560038054821633908117909155600180549092161790556040805160a0810182526004606082018181526327b832b760e11b608084015282526000602083018190526127109383019390935280546001810182559252805190916003027f8a35acfbc15ff81a39ae7d344fd709f28e8600b4aa8c65c6b64bfe7fe36bd19b019081906200014f9082620002e2565b506020820151816001015560408201518160020155505060007fd2270db0749cf371cd06e708f18bdb337349019735f3c920765f74df26931e8f6000612710604051620001c392919060608082526004908201526327b832b760e11b60808201526020810192909252604082015260a00190565b60405180910390a2505050620003ae565b80516001600160a01b0381168114620001ec57600080fd5b919050565b6000806000606084860312156200020757600080fd5b6200021284620001d4565b92506200022260208501620001d4565b91506200023260408501620001d4565b90509250925092565b634e487b7160e01b600052604160045260246000fd5b600181811c908216806200026657607f821691505b6020821081036200028757634e487b7160e01b600052602260045260246000fd5b50919050565b601f821115620002dd576000816000526020600020601f850160051c81016020861015620002b85750805b601f850160051c820191505b81811015620002d957828155600101620002c4565b5050505b505050565b81516001600160401b03811115620002fe57620002fe6200023b565b62000316816200030f845462000251565b846200028d565b602080601f8311600181146200034e5760008415620003355750858301515b600019600386901b1c1916600185901b178555620002d9565b600085815260208120601f198616915b828110156200037f578886015182559484019460019091019084016200035e565b50858210156200039e5787850151600019600388901b60f8161c191681555b5050505050600190811b01905550565b60805160a05161311162000428600039600081816102720152818161182f01526119fc0152600081816102b50152818161046b015281816106c001528181610bd301528181610c7a01528181610d0a015281816110b8015281816115bd015281816120b601528181612176015261248701526131116000f3fe608060405234801561001057600080fd5b50600436106101cf5760003560e01c80635c975abb116101045780638c64ea4a116100a2578063c3c5a54711610071578063c3c5a547146103e0578063c42cf53514610403578063d713858414610416578063d959fb2e1461043657600080fd5b80638c64ea4a1461039f578063a523cc31146103b2578063a7c6a100146103c5578063b6b55f25146103cd57600080fd5b806370a08231116100de57806370a082311461035c5780637d7c2a1c1461037c5780638456cb59146103845780638a0dac4a1461038c57600080fd5b80635c975abb1461031d57806360b5662e1461034157806364c9ec6f1461034957600080fd5b80632e1a7d4d116101715780633a98ef391161014b5780633a98ef39146102d75780633f4ba83a146102e0578063452a9320146102e8578063580b466a146102fb57600080fd5b80632e1a7d4d1461029457806335edc1b2146102a757806338d52e0f146102b057600080fd5b80631b453ca3116101ad5780631b453ca31461022d578063256b5a021461024257806328e99803146102555780632c159a1a1461026d57600080fd5b806301e1d114146101d45780630c340a24146101ef5780630ff467821461021a575b600080fd5b6101dc610449565b6040519081526020015b60405180910390f35b600354610202906001600160a01b031681565b6040516001600160a01b0390911681526020016101e6565b6101dc610228366004612b4d565b61052f565b61024061023b366004612b6a565b6105a3565b005b610240610250366004612b4d565b61063e565b61025d61081a565b6040516101e69493929190612bbf565b6102027f000000000000000000000000000000000000000000000000000000000000000081565b6101dc6102a2366004612b6a565b610a50565b6101dc60055481565b6102027f000000000000000000000000000000000000000000000000000000000000000081565b6101dc60075481565b610240610d77565b600154610202906001600160a01b031681565b61030e610309366004612b6a565b610ddb565b6040516101e693929190612cbd565b60015461033190600160a01b900460ff1681565b60405190151581526020016101e6565b6004546101dc565b600254610202906001600160a01b031681565b6101dc61036a366004612b4d565b60066020526000908152604090205481565b610240610e9d565b6102406111bd565b61024061039a366004612b4d565b611227565b6102026103ad366004612b6a565b6112e1565b6101dc6103c0366004612ce2565b61130b565b6008546101dc565b6101dc6103db366004612b6a565b611491565b6103316103ee366004612b4d565b60096020526000908152604090205460ff1681565b610240610411366004612b4d565b611667565b6101dc610424366004612b4d565b600a6020526000908152604090205481565b610240610444366004612b4d565b6116f4565b6040516370a0823160e01b815230600482015260009081906001600160a01b037f000000000000000000000000000000000000000000000000000000000000000016906370a0823190602401602060405180830381865afa1580156104b2573d6000803e3d6000fd5b505050506040513d601f19601f820116820180604052508101906104d69190612d61565b905060005b60085481101561052957610515600882815481106104fb576104fb612d7a565b6000918252602090912001546001600160a01b0316611772565b61051f9083612da6565b91506001016104db565b50919050565b6001600160a01b03811660009081526009602052604081205460ff1661058c5760405162461bcd60e51b815260206004820152600d60248201526c1d5b9adb9bdddb881d985d5b1d609a1b60448201526064015b60405180910390fd5b61059d8261059861181d565b611973565b92915050565b6003546001600160a01b031633146105cd5760405162461bcd60e51b815260040161058390612db9565b600454811061060b5760405162461bcd60e51b815260206004820152600a6024820152696e6f206d616e6461746560b01b6044820152606401610583565b600581905560405181907fdb1c1d00eebcb507bcd937e8305eb395e99f183759119b71dc6e2c7e0a6a030b90600090a250565b6003546001600160a01b031633146106685760405162461bcd60e51b815260040161058390612db9565b6001600160a01b03811660009081526009602052604090205460ff16156106be5760405162461bcd60e51b815260206004820152600a6024820152691c9959da5cdd195c995960b21b6044820152606401610583565b7f00000000000000000000000000000000000000000000000000000000000000006001600160a01b0316816001600160a01b03166338d52e0f6040518163ffffffff1660e01b8152600401602060405180830381865afa158015610726573d6000803e3d6000fd5b505050506040513d601f19601f8201168201806040525081019061074a9190612ddf565b6001600160a01b03161461078e5760405162461bcd60e51b815260206004820152600b60248201526a1ddc9bdb99c8185cdcd95d60aa1b6044820152606401610583565b6001600160a01b038116600081815260096020526040808220805460ff1916600190811790915560088054918201815583527ff3f7a9fe364faab93b216da50a3214154f22a0a2b415b23a84c8169e8b636ee30180546001600160a01b03191684179055517f7b7ef7a864d96a85497a1ed846adb39940dd6ccef678ff6ac8d55505e09b8cc49190a250565b600854606090819081908190600061083061181d565b9050600060046005548154811061084957610849612d7a565b906000526020600020906003020190508267ffffffffffffffff81111561087257610872612dfc565b60405190808252806020026020018201604052801561089b578160200160208202803683370190505b5096508267ffffffffffffffff8111156108b7576108b7612dfc565b6040519080825280602002602001820160405280156108e0578160200160208202803683370190505b5095508267ffffffffffffffff8111156108fc576108fc612dfc565b604051908082528060200260200182016040528015610925578160200160208202803683370190505b509450610938610933610449565b611e16565b50909450600090505b83811015610a46576008818154811061095c5761095c612d7a565b9060005260206000200160009054906101000a90046001600160a01b031688828151811061098c5761098c612d7a565b60200260200101906001600160a01b031690816001600160a01b0316815250506109dd600882815481106109c2576109c2612d7a565b6000918252602090912001546001600160a01b031684611973565b8782815181106109ef576109ef612d7a565b6020026020010181815250508160010154878281518110610a1257610a12612d7a565b60200260200101511015868281518110610a2e57610a2e612d7a565b91151560209283029190910190910152600101610941565b5050505090919293565b6000600160005414610a745760405162461bcd60e51b815260040161058390612e12565b600260005581610ab45760405162461bcd60e51b815260206004820152600b60248201526a7a65726f2073686172657360a81b6044820152606401610583565b33600090815260066020526040902054821115610b095760405162461bcd60e51b8152602060048201526013602482015272696e73756666696369656e742073686172657360681b6044820152606401610583565b600754610b17906001612da6565b610b1f610449565b610b2a906001612da6565b610b349084612e35565b610b3e9190612e4c565b905060008111610b7e5760405162461bcd60e51b815260206004820152600b60248201526a7a65726f2061737365747360a81b6044820152606401610583565b3360009081526006602052604081208054849290610b9d908490612e6e565b925050819055508160076000828254610bb69190612e6e565b90915550506040516370a0823160e01b81523060048201526000907f00000000000000000000000000000000000000000000000000000000000000006001600160a01b0316906370a0823190602401602060405180830381865afa158015610c22573d6000803e3d6000fd5b505050506040513d601f19601f82011682018060405250810190610c469190612d61565b905081811015610cfd57610c62610c5d8284612e6e565b611f76565b6040516370a0823160e01b81523060048201526000907f00000000000000000000000000000000000000000000000000000000000000006001600160a01b0316906370a0823190602401602060405180830381865afa158015610cc9573d6000803e3d6000fd5b505050506040513d601f19601f82011682018060405250810190610ced9190612d61565b905082811015610cfb578092505b505b610d316001600160a01b037f0000000000000000000000000000000000000000000000000000000000000000163384612223565b604080518381526020810185905233917ff279e6a1f5e320cca91135676d9cb6e44ca8a08c0b88342bcdb1144f6511b568910160405180910390a2506001600055919050565b6001546001600160a01b03163314610da15760405162461bcd60e51b815260040161058390612e81565b6001805460ff60a01b1916905560405133907f5db9ee0a495bf2e6ff9c91a7834c1ba4fdd244a5e8aa4e537bd38aeae4b073aa90600090a2565b60048181548110610deb57600080fd5b9060005260206000209060030201600091509050806000018054610e0e90612ea7565b80601f0160208091040260200160405190810160405280929190818152602001828054610e3a90612ea7565b8015610e875780601f10610e5c57610100808354040283529160200191610e87565b820191906000526020600020905b815481529060010190602001808311610e6a57829003601f168201915b5050505050908060010154908060020154905083565b600160005414610ebf5760405162461bcd60e51b815260040161058390612e12565b6002600055600154600160a01b900460ff1615610f075760405162461bcd60e51b81526020600482015260066024820152651c185d5cd95960d21b6044820152606401610583565b60085480610f435760405162461bcd60e51b81526020600482015260096024820152686e6f207661756c747360b81b6044820152606401610583565b6000610f4d610449565b90506000806000610f5d84611e16565b92509250925060005b8581101561102757838181518110610f8057610f80612d7a565b6020026020010151838281518110610f9a57610f9a612d7a565b6020026020010151111561101f5761101f60088281548110610fbe57610fbe612d7a565b9060005260206000200160009054906101000a90046001600160a01b0316858381518110610fee57610fee612d7a565b602002602001015185848151811061100857611008612d7a565b602002602001015161101a9190612e6e565b61229c565b600101610f66565b5060005b8581101561117457600061104b600883815481106104fb576104fb612d7a565b905084828151811061105f5761105f612d7a565b602002602001015181101561116b5760008186848151811061108357611083612d7a565b60200260200101516110959190612e6e565b6040516370a0823160e01b81523060048201529091506000906001600160a01b037f000000000000000000000000000000000000000000000000000000000000000016906370a0823190602401602060405180830381865afa1580156110ff573d6000803e3d6000fd5b505050506040513d601f19601f820116820180604052508101906111239190612d61565b905080821115611131578091505b8115611168576111686008858154811061114d5761114d612d7a565b6000918252602090912001546001600160a01b03168361247a565b50505b5060010161102b565b5060055460408051868152602081018490527f83387a3342ff1ebc5e437dc9ae0f98274afda12a11cf547eebec05a3e0b8f8a7910160405180910390a250506001600055505050565b6001546001600160a01b031633146111e75760405162461bcd60e51b815260040161058390612e81565b6001805460ff60a01b1916600160a01b17905560405133907f62e78cea01bee320cd4e420270b5ea74000d11b0c9f74754ebdbfc544b05a25890600090a2565b6001546001600160a01b031633146112515760405162461bcd60e51b815260040161058390612e81565b6001600160a01b0381166112975760405162461bcd60e51b815260206004820152600d60248201526c3d32b9379033bab0b93234b0b760991b6044820152606401610583565b600180546001600160a01b0319166001600160a01b0383169081179091556040517f01c6520cf747e4632b43b535b91afe3950ccabc4ab29bbd89e3c1f6b0ba0565590600090a250565b600881815481106112f157600080fd5b6000918252602090912001546001600160a01b0316905081565b6003546000906001600160a01b031633146113385760405162461bcd60e51b815260040161058390612db9565b670de0b6b3a76400008311156113785760405162461bcd60e51b81526020600482015260056024820152641d1c9d5cdd60da1b6044820152606401610583565b60008211801561138a57506127108211155b6113bc5760405162461bcd60e51b815260206004820152600360248201526262707360e81b6044820152606401610583565b50600480546040805160806020601f89018190040282018101909252606081018781529293929091829190899089908190850183828082843760009201829052509385525050506020808301889052604090920186905283546001810185559381522081519192600302019081906114349082612f23565b5060208201518160010155604082015181600201555050807fd2270db0749cf371cd06e708f18bdb337349019735f3c920765f74df26931e8f868686866040516114819493929190612fe3565b60405180910390a2949350505050565b60006001600054146114b55760405162461bcd60e51b815260040161058390612e12565b6002600055600154600160a01b900460ff16156114fd5760405162461bcd60e51b81526020600482015260066024820152651c185d5cd95960d21b6044820152606401610583565b6000821161153b5760405162461bcd60e51b815260206004820152600b60248201526a7a65726f2061737365747360a81b6044820152606401610583565b611543610449565b61154e906001612da6565b60075461155c906001612da6565b6115669084612e35565b6115709190612e4c565b9050600081116115b05760405162461bcd60e51b815260206004820152600b60248201526a7a65726f2073686172657360a81b6044820152606401610583565b6115e56001600160a01b037f000000000000000000000000000000000000000000000000000000000000000016333085612553565b3360009081526006602052604081208054839290611604908490612da6565b92505081905550806007600082825461161d9190612da6565b9091555050604080518381526020810183905233917f90890809c654f11d6e72a28fa60149770a0d11ec6c92319d6ceb2bb0a4ea1a15910160405180910390a26001600055919050565b6003546001600160a01b031633146116915760405162461bcd60e51b815260040161058390612db9565b6001600160a01b0381166116d25760405162461bcd60e51b81526020600482015260086024820152673d32b9379033b7bb60c11b6044820152606401610583565b600380546001600160a01b0319166001600160a01b0392909216919091179055565b6003546001600160a01b0316331461171e5760405162461bcd60e51b815260040161058390612db9565b600280546001600160a01b0319166001600160a01b0383169081179091556040519081527f3153d002b244d7427874a391fcd3b7723d75a7a083c9f0aa057ff38d1c23ebce9060200160405180910390a150565b6001600160a01b0381166000908152600a602052604081205480611797576000611816565b670de0b6b3a7640000836001600160a01b031663c1590cd76040518163ffffffff1660e01b8152600401602060405180830381865afa1580156117de573d6000803e3d6000fd5b505050506040513d601f19601f820116820180604052508101906118029190612d61565b61180c9083612e35565b6118169190612e4c565b9392505050565b6000805b6008548110156119635760007f00000000000000000000000000000000000000000000000000000000000000006001600160a01b031663aee144606008848154811061186f5761186f612d7a565b600091825260209182902001546040805163e84f43b760e01b815290516001600160a01b039092169263e84f43b7926004808401938290030181865afa1580156118bd573d6000803e3d6000fd5b505050506040513d601f19601f820116820180604052508101906118e19190612d61565b6040518263ffffffff1660e01b81526004016118ff91815260200190565b6040805180830381865afa15801561191b573d6000803e3d6000fd5b505050506040513d601f19601f8201168201806040525081019061193f9190613023565b50905060008113801561195157508281115b1561195a578092505b50600101611821565b5080600003611970575060015b90565b600080836001600160a01b031663e84f43b76040518163ffffffff1660e01b8152600401602060405180830381865afa1580156119b4573d6000803e3d6000fd5b505050506040513d601f19601f820116820180604052508101906119d89190612d61565b6040516305770a2360e51b8152600481018290529091506000906001600160a01b037f0000000000000000000000000000000000000000000000000000000000000000169063aee14460906024016040805180830381865afa158015611a42573d6000803e3d6000fd5b505050506040513d601f19601f82011682018060405250810190611a669190613023565b5090506000808213611a79576000611a7b565b815b9050600085611a92670de0b6b3a764000084612e35565b611a9c9190612e4c565b90506000876001600160a01b031663aaf6e10f6040518163ffffffff1660e01b8152600401602060405180830381865afa158015611ade573d6000803e3d6000fd5b505050506040513d601f19601f82011682018060405250810190611b029190613047565b67ffffffffffffffff16905060008115611b74576000824211611b26576000611b30565b611b308342612e6e565b905062015180811015611b6d5762015180670de0b6b3a7640000611b548383612e6e565b611b5e9190612e35565b611b689190612e4c565b611b70565b60005b9150505b6000896001600160a01b031663c1590cd76040518163ffffffff1660e01b8152600401602060405180830381865afa158015611bb4573d6000803e3d6000fd5b505050506040513d601f19601f82011682018060405250810190611bd89190612d61565b905060008a6001600160a01b03166342a35e726040518163ffffffff1660e01b8152600401602060405180830381865afa158015611c1a573d6000803e3d6000fd5b505050506040513d601f19601f82011682018060405250810190611c3e9190612d61565b9050600081600003611c595750670de0b6b3a7640000611cd4565b6000838311611c69576000611c91565b82670de0b6b3a7640000611c7d8683612e6e565b611c879190612e35565b611c919190612e4c565b90506000611ca0600583612e35565b9050670de0b6b3a7640000811115611cbd5750670de0b6b3a76400005b611ccf81670de0b6b3a7640000612e6e565b925050505b6002546000906001600160a01b031615611d5a576002546040516318c1be4b60e31b8152600481018c90526001600160a01b039091169063c60df25890602401602060405180830381865afa158015611d31573d6000803e3d6000fd5b505050506040513d601f19601f82011682018060405250810190611d559190612d61565b611d5d565b60005b905060006802b5e3af16b1880000821015611d9d576802b5e3af16b1880000611d8e670de0b6b3a764000084612e35565b611d989190612e4c565b611da7565b670de0b6b3a76400005b9050612710611db86107d083612e35565b611dc46107d086612e35565b611dd06107d08a612e35565b611ddc610fa08d612e35565b611de69190612da6565b611df09190612da6565b611dfa9190612da6565b611e049190612e4c565b9e9d5050505050505050505050505050565b60085460609081906000908067ffffffffffffffff811115611e3a57611e3a612dfc565b604051908082528060200260200182016040528015611e63578160200160208202803683370190505b5093508067ffffffffffffffff811115611e7f57611e7f612dfc565b604051908082528060200260200182016040528015611ea8578160200160208202803683370190505b50925060005b81811015611ef157611ecc600882815481106104fb576104fb612d7a565b848281518110611ede57611ede612d7a565b6020908102919091010152600101611eae565b506000806000611eff6125d9565b92509250925080945084600003611f195750505050611f6f565b6000612710600460055481548110611f3357611f33612d7a565b9060005260206000209060030201600201548a611f509190612e35565b611f5a9190612e4c565b9050611f69888585848d612826565b50505050505b9193909250565b60005b60085481108015611f8a5750600082115b1561221f576000600a600060088481548110611fa857611fa8612d7a565b60009182526020808320909101546001600160a01b031683528201929092526040018120549150819003611fdc575061220d565b6000670de0b6b3a764000060088481548110611ffa57611ffa612d7a565b600091825260209182902001546040805163c1590cd760e01b815290516001600160a01b039092169263c1590cd7926004808401938290030181865afa158015612048573d6000803e3d6000fd5b505050506040513d601f19601f8201168201806040525081019061206c9190612d61565b6120769084612e35565b6120809190612e4c565b905060008185116120915784612093565b815b6040516370a0823160e01b81523060048201529091506000906001600160a01b037f000000000000000000000000000000000000000000000000000000000000000016906370a0823190602401602060405180830381865afa1580156120fd573d6000803e3d6000fd5b505050506040513d601f19601f820116820180604052508101906121219190612d61565b90506121546008868154811061213957612139612d7a565b6000918252602090912001546001600160a01b03168361229c565b6040516370a0823160e01b815230600482015260009082906001600160a01b037f000000000000000000000000000000000000000000000000000000000000000016906370a0823190602401602060405180830381865afa1580156121bd573d6000803e3d6000fd5b505050506040513d601f19601f820116820180604052508101906121e19190612d61565b6121eb9190612e6e565b90508087116121fb576000612205565b6122058188612e6e565b965050505050505b8061221781613071565b915050611f79565b5050565b604080516001600160a01b038416602482015260448082018490528251808303909101815260649091018252602080820180516001600160e01b031663a9059cbb60e01b1790528251808401909352600d83526c39b0b332903a3930b739b332b960991b9083015261229791859190612a14565b505050565b6001600160a01b0382166000908152600a6020526040812054908190036122c257505050565b6000836001600160a01b0316633a98ef396040518163ffffffff1660e01b8152600401602060405180830381865afa158015612302573d6000803e3d6000fd5b505050506040513d601f19601f820116820180604052508101906123269190612d61565b90506000846001600160a01b03166301e1d1146040518163ffffffff1660e01b8152600401602060405180830381865afa158015612368573d6000803e3d6000fd5b505050506040513d601f19601f8201168201806040525081019061238c9190612d61565b9050801580612399575081155b156123a5575050505050565b6000816123b28487612e35565b6123bc9190612e4c565b9050838111156123c95750825b806000036123d957505050505050565b604051632e1a7d4d60e01b8152600481018290526001600160a01b03871690632e1a7d4d906024016020604051808303816000875af1158015612420573d6000803e3d6000fd5b505050506040513d601f19601f820116820180604052508101906124449190612d61565b506001600160a01b0386166000908152600a60205260408120805483929061246d908490612e6e565b9091555050505050505050565b6124ae6001600160a01b037f0000000000000000000000000000000000000000000000000000000000000000168383612ac2565b60405163b6b55f2560e01b8152600481018290526000906001600160a01b0384169063b6b55f25906024016020604051808303816000875af11580156124f8573d6000803e3d6000fd5b505050506040513d601f19601f8201168201806040525081019061251c9190612d61565b6001600160a01b0384166000908152600a6020526040812080549293508392909190612549908490612da6565b9091555050505050565b604080516001600160a01b0385811660248301528416604482015260648082018490528251808303909101815260849091018252602080820180516001600160e01b03166323b872dd60e01b1790528251808401909352601183527073616665207472616e7366657246726f6d60781b908301526125d391869190612a14565b50505050565b6008546060906000908190816125ed61181d565b9050600060046005548154811061260657612606612d7a565b90600052602060002090600302016001015490508267ffffffffffffffff81111561263357612633612dfc565b60405190808252806020026020018201604052801561265c578160200160208202803683370190505b50955060008367ffffffffffffffff81111561267a5761267a612dfc565b6040519080825280602002602001820160405280156126a3578160200160208202803683370190505b5090506000805b8581101561275e576126e3600882815481106126c8576126c8612d7a565b6000918252602090912001546001600160a01b031686611973565b8382815181106126f5576126f5612d7a565b6020026020010181815250508383828151811061271457612714612d7a565b602002602001015110612756578661272b81613071565b97505082818151811061274057612740612d7a565b6020026020010151826127539190612da6565b91505b6001016126aa565b508560000361277857509596600096508695509350505050565b801560005b8681101561281a578484828151811061279857612798612d7a565b60200260200101511061281257816127c9578381815181106127bc576127bc612d7a565b60200260200101516127cc565b60015b8a82815181106127de576127de612d7a565b6020026020010181815250508981815181106127fc576127fc612d7a565b60200260200101518961280f9190612da6565b98505b60010161277d565b50505050505050909192565b8351600080805b838110156129105787818151811061284757612847612d7a565b6020026020010151600003156129085760008715612894578789838151811061287257612872612d7a565b6020026020010151876128859190612e35565b61288f9190612e4c565b612897565b60005b9050868111156128bf576128ab8782612e6e565b6128b59085612da6565b93508690506128e7565b8882815181106128d1576128d1612d7a565b6020026020010151836128e49190612da6565b92505b808a83815181106128fa576128fa612d7a565b602002602001018181525050505b60010161282d565b506000821180156129215750600081115b15612a0a5760005b83811015612a085787818151811061294357612943612d7a565b60200260200101516000148061297257508589828151811061296757612967612d7a565b602002602001015110155b612a005760008289838151811061298b5761298b612d7a565b60200260200101518561299e9190612e35565b6129a89190612e4c565b90506000818b84815181106129bf576129bf612d7a565b60200260200101516129d19190612da6565b9050878111156129de5750865b808b84815181106129f1576129f1612d7a565b60200260200101818152505050505b600101612929565b505b5050505050505050565b600080846001600160a01b031684604051612a2f919061308a565b6000604051808303816000865af19150503d8060008114612a6c576040519150601f19603f3d011682016040523d82523d6000602084013e612a71565b606091505b5091509150818015612a9b575080511580612a9b575080806020019051810190612a9b91906130a6565b8390612aba5760405162461bcd60e51b815260040161058391906130c8565b505050505050565b604080516001600160a01b038416602482015260448082018490528251808303909101815260649091018252602080820180516001600160e01b031663095ea7b360e01b1790528251808401909352600c83526b7361666520617070726f766560a01b9083015261229791859190612a14565b6001600160a01b0381168114612b4a57600080fd5b50565b600060208284031215612b5f57600080fd5b813561181681612b35565b600060208284031215612b7c57600080fd5b5035919050565b60008151808452602080850194506020840160005b83811015612bb457815187529582019590820190600101612b98565b509495945050505050565b6080808252855190820181905260009060209060a0840190828901845b82811015612c015781516001600160a01b031684529284019290840190600101612bdc565b50505083810382850152612c158188612b83565b8481036040860152865180825283880192509083019060005b81811015612c4c578351151583529284019291840191600101612c2e565b50508481036060860152612c608187612b83565b9998505050505050505050565b60005b83811015612c88578181015183820152602001612c70565b50506000910152565b60008151808452612ca9816020860160208601612c6d565b601f01601f19169290920160200192915050565b606081526000612cd06060830186612c91565b60208301949094525060400152919050565b60008060008060608587031215612cf857600080fd5b843567ffffffffffffffff80821115612d1057600080fd5b818701915087601f830112612d2457600080fd5b813581811115612d3357600080fd5b886020828501011115612d4557600080fd5b6020928301999098509187013596604001359550909350505050565b600060208284031215612d7357600080fd5b5051919050565b634e487b7160e01b600052603260045260246000fd5b634e487b7160e01b600052601160045260246000fd5b8082018082111561059d5761059d612d90565b6020808252600c908201526b3737ba1033b7bb32b93737b960a11b604082015260600190565b600060208284031215612df157600080fd5b815161181681612b35565b634e487b7160e01b600052604160045260246000fd5b6020808252600990820152681c99595b9d1c985b9d60ba1b604082015260600190565b808202811582820484141761059d5761059d612d90565b600082612e6957634e487b7160e01b600052601260045260246000fd5b500490565b8181038181111561059d5761059d612d90565b6020808252600c908201526b3737ba1033bab0b93234b0b760a11b604082015260600190565b600181811c90821680612ebb57607f821691505b60208210810361052957634e487b7160e01b600052602260045260246000fd5b601f821115612297576000816000526020600020601f850160051c81016020861015612f045750805b601f850160051c820191505b81811015612aba57828155600101612f10565b815167ffffffffffffffff811115612f3d57612f3d612dfc565b612f5181612f4b8454612ea7565b84612edb565b602080601f831160018114612f865760008415612f6e5750858301515b600019600386901b1c1916600185901b178555612aba565b600085815260208120601f198616915b82811015612fb557888601518255948401946001909101908401612f96565b5085821015612fd35787850151600019600388901b60f8161c191681555b5050505050600190811b01905550565b606081528360608201528385608083013760006080858301015260006080601f19601f870116830101905083602083015282604083015295945050505050565b6000806040838503121561303657600080fd5b505080516020909101519092909150565b60006020828403121561305957600080fd5b815167ffffffffffffffff8116811461181657600080fd5b60006001820161308357613083612d90565b5060010190565b6000825161309c818460208701612c6d565b9190910192915050565b6000602082840312156130b857600080fd5b8151801515811461181657600080fd5b6020815260006118166020830184612c9156fea26469706673582212201b57ee58f83540133abf6fc80174415b3ff15461514bdf60d236d1ee76903d6564736f6c63430008180033000000000000000000000000bc17d7f8f265d069781ed765914ed092989d92e70000000000000000000000004ece1853623ca801536d319cb9dde454f5da6dc7000000000000000000000000ef2f3602d5fe04487a971e5d749dac7343b8f895",
        "nonce": "0xcc",
        "chainId": "0x138b"
      },
      "additionalContracts": [],
      "isFixedGasLimit": false
    },
    {
      "hash": "0xe725b219cf9c18ee9c033ea393d288f0e9a3ea4d6f39eb090ec43682eda338a1",
      "transactionType": "CALL",
      "contractName": "Allocator",
      "contractAddress": "0x3169a913ff6d3542bab8db3beb6ef99aa708f05d",
      "function": "addVault(address)",
      "arguments": [
        "0x7E4399B91bF6801d7D74E359d162065c88EA9d1B"
      ],
      "transaction": {
        "from": "0xecf9541c6ff5e8774a6d8f64b57a4be473de49ef",
        "to": "0x3169a913ff6d3542bab8db3beb6ef99aa708f05d",
        "gas": "0x71d2",
        "value": "0x0",
        "input": "0x256b5a020000000000000000000000007e4399b91bf6801d7d74e359d162065c88ea9d1b",
        "nonce": "0xcd",
        "chainId": "0x138b"
      },
      "additionalContracts": [],
      "isFixedGasLimit": false
    },
    {
      "hash": "0x8e27756954d4daeace81b805e301c78cb2c5c056b3b834f56ada9c33ae79e750",
      "transactionType": "CALL",
      "contractName": "Allocator",
      "contractAddress": "0x3169a913ff6d3542bab8db3beb6ef99aa708f05d",
      "function": "addVault(address)",
      "arguments": [
        "0x06e196408356D2BDa4d21301B3bbB78c931AE9E3"
      ],
      "transaction": {
        "from": "0xecf9541c6ff5e8774a6d8f64b57a4be473de49ef",
        "to": "0x3169a913ff6d3542bab8db3beb6ef99aa708f05d",
        "gas": "0x71d2",
        "value": "0x0",
        "input": "0x256b5a0200000000000000000000000006e196408356d2bda4d21301b3bbb78c931ae9e3",
        "nonce": "0xce",
        "chainId": "0x138b"
      },
      "additionalContracts": [],
      "isFixedGasLimit": false
    },
    {
      "hash": "0xf2d6fdd7a1fbfaa1eb5b8c6cbb2b1755fa0899a3b2092482f934198f4343b26b",
      "transactionType": "CALL",
      "contractName": "Allocator",
      "contractAddress": "0x3169a913ff6d3542bab8db3beb6ef99aa708f05d",
      "function": "addVault(address)",
      "arguments": [
        "0xBA8075d91983D15628DE99CDC510cD6C70F434EE"
      ],
      "transaction": {
        "from": "0xecf9541c6ff5e8774a6d8f64b57a4be473de49ef",
        "to": "0x3169a913ff6d3542bab8db3beb6ef99aa708f05d",
        "gas": "0x71d2",
        "value": "0x0",
        "input": "0x256b5a02000000000000000000000000ba8075d91983d15628de99cdc510cd6c70f434ee",
        "nonce": "0xcf",
        "chainId": "0x138b"
      },
      "additionalContracts": [],
      "isFixedGasLimit": false
    },
    {
      "hash": "0x1c2073af2d016c6ac5d237c6276af1ec8ae8cb7e4c8724b1250c11183210a50c",
      "transactionType": "CALL",
      "contractName": "Allocator",
      "contractAddress": "0x3169a913ff6d3542bab8db3beb6ef99aa708f05d",
      "function": "addVault(address)",
      "arguments": [
        "0x7E1827697843f377761F19f6F3386D8750d75BBD"
      ],
      "transaction": {
        "from": "0xecf9541c6ff5e8774a6d8f64b57a4be473de49ef",
        "to": "0x3169a913ff6d3542bab8db3beb6ef99aa708f05d",
        "gas": "0x71d2",
        "value": "0x0",
        "input": "0x256b5a020000000000000000000000007e1827697843f377761f19f6f3386d8750d75bbd",
        "nonce": "0xd0",
        "chainId": "0x138b"
      },
      "additionalContracts": [],
      "isFixedGasLimit": false
    },
    {
      "hash": "0x7b07a871a2bc45909639c957adc5d723f23230c27cd1dd2a2b006f6f6ea25a23",
      "transactionType": "CALL",
      "contractName": "Allocator",
      "contractAddress": "0x3169a913ff6d3542bab8db3beb6ef99aa708f05d",
      "function": "addVault(address)",
      "arguments": [
        "0xa40AF1a30E4094b2807fDfbF6195C06245ab0822"
      ],
      "transaction": {
        "from": "0xecf9541c6ff5e8774a6d8f64b57a4be473de49ef",
        "to": "0x3169a913ff6d3542bab8db3beb6ef99aa708f05d",
        "gas": "0x71d2",
        "value": "0x0",
        "input": "0x256b5a02000000000000000000000000a40af1a30e4094b2807fdfbf6195c06245ab0822",
        "nonce": "0xd1",
        "chainId": "0x138b"
      },
      "additionalContracts": [],
      "isFixedGasLimit": false
    },
    {
      "hash": "0xbd8d6c742bf548b66c90c12880aac38b2b2e3a735831b58a02f7913e7f33ff95",
      "transactionType": "CALL",
      "contractName": "Allocator",
      "contractAddress": "0x3169a913ff6d3542bab8db3beb6ef99aa708f05d",
      "function": "addMandate(string,uint256,uint256)",
      "arguments": [
        "Balanced",
        "600000000000000000",
        "5000"
      ],
      "transaction": {
        "from": "0xecf9541c6ff5e8774a6d8f64b57a4be473de49ef",
        "to": "0x3169a913ff6d3542bab8db3beb6ef99aa708f05d",
        "gas": "0x7808",
        "value": "0x0",
        "input": "0xa523cc3100000000000000000000000000000000000000000000000000000000000000600000000000000000000000000000000000000000000000000853a0d2313c00000000000000000000000000000000000000000000000000000000000000001388000000000000000000000000000000000000000000000000000000000000000842616c616e636564000000000000000000000000000000000000000000000000",
        "nonce": "0xd2",
        "chainId": "0x138b"
      },
      "additionalContracts": [],
      "isFixedGasLimit": false
    },
    {
      "hash": "0xea318bf2613cefb6ff2d3b78e8d2ac28833cd923f0e051f39ad4d9f5ec14fd41",
      "transactionType": "CALL",
      "contractName": "Allocator",
      "contractAddress": "0x3169a913ff6d3542bab8db3beb6ef99aa708f05d",
      "function": "addMandate(string,uint256,uint256)",
      "arguments": [
        "Conservative",
        "700000000000000000",
        "3500"
      ],
      "transaction": {
        "from": "0xecf9541c6ff5e8774a6d8f64b57a4be473de49ef",
        "to": "0x3169a913ff6d3542bab8db3beb6ef99aa708f05d",
        "gas": "0x78a4",
        "value": "0x0",
        "input": "0xa523cc31000000000000000000000000000000000000000000000000000000000000006000000000000000000000000000000000000000000000000009b6e64a8ec600000000000000000000000000000000000000000000000000000000000000000dac000000000000000000000000000000000000000000000000000000000000000c436f6e7365727661746976650000000000000000000000000000000000000000",
        "nonce": "0xd3",
        "chainId": "0x138b"
      },
      "additionalContracts": [],
      "isFixedGasLimit": false
    },
    {
      "hash": "0x006524b1e3390b06f4bea3000de89ccc1fe6113d30714f8256f1b771ad4f5803",
      "transactionType": "CALL",
      "contractName": "Allocator",
      "contractAddress": "0x3169a913ff6d3542bab8db3beb6ef99aa708f05d",
      "function": "addMandate(string,uint256,uint256)",
      "arguments": [
        "Aggressive",
        "400000000000000000",
        "10000"
      ],
      "transaction": {
        "from": "0xecf9541c6ff5e8774a6d8f64b57a4be473de49ef",
        "to": "0x3169a913ff6d3542bab8db3beb6ef99aa708f05d",
        "gas": "0x7856",
        "value": "0x0",
        "input": "0xa523cc310000000000000000000000000000000000000000000000000000000000000060000000000000000000000000000000000000000000000000058d15e1762800000000000000000000000000000000000000000000000000000000000000002710000000000000000000000000000000000000000000000000000000000000000a4167677265737369766500000000000000000000000000000000000000000000",
        "nonce": "0xd4",
        "chainId": "0x138b"
      },
      "additionalContracts": [],
      "isFixedGasLimit": false
    },
    {
      "hash": "0x0793138b7eae60347e94204a78b9997f1841ff24159b96651ad0405aee00e79b",
      "transactionType": "CALL",
      "contractName": "Allocator",
      "contractAddress": "0x3169a913ff6d3542bab8db3beb6ef99aa708f05d",
      "function": "setActiveMandate(uint256)",
      "arguments": [
        "2"
      ],
      "transaction": {
        "from": "0xecf9541c6ff5e8774a6d8f64b57a4be473de49ef",
        "to": "0x3169a913ff6d3542bab8db3beb6ef99aa708f05d",
        "gas": "0x6e12",
        "value": "0x0",
        "input": "0x1b453ca30000000000000000000000000000000000000000000000000000000000000002",
        "nonce": "0xd5",
        "chainId": "0x138b"
      },
      "additionalContracts": [],
      "isFixedGasLimit": false
    },
    {
      "hash": "0x43337925a8d602115a2dd339eba0b779e98f23f59faa4096272386f09e9f3fee",
      "transactionType": "CALL",
      "contractName": null,
      "contractAddress": "0xbc17d7f8f265d069781ed765914ed092989d92e7",
      "function": "mint(address,uint256)",
      "arguments": [
        "0xeCF9541C6Ff5e8774A6d8f64B57A4BE473De49eF",
        "100000000000000000000"
      ],
      "transaction": {
        "from": "0xecf9541c6ff5e8774a6d8f64b57a4be473de49ef",
        "to": "0xbc17d7f8f265d069781ed765914ed092989d92e7",
        "gas": "0x10601",
        "value": "0x0",
        "input": "0x40c10f19000000000000000000000000ecf9541c6ff5e8774a6d8f64b57a4be473de49ef0000000000000000000000000000000000000000000000056bc75e2d63100000",
        "nonce": "0xd6",
        "chainId": "0x138b"
      },
      "additionalContracts": [],
      "isFixedGasLimit": false
    },
    {
      "hash": "0xe2afbae142ed5bd1ae42faa64d4f135c2631a30d7f00e12ea7fee2e70bb1752c",
      "transactionType": "CALL",
      "contractName": null,
      "contractAddress": "0xbc17d7f8f265d069781ed765914ed092989d92e7",
      "function": "approve(address,uint256)",
      "arguments": [
        "0x3169A913fF6d3542Bab8dB3BeB6Ef99aa708f05D",
        "100000000000000000000"
      ],
      "transaction": {
        "from": "0xecf9541c6ff5e8774a6d8f64b57a4be473de49ef",
        "to": "0xbc17d7f8f265d069781ed765914ed092989d92e7",
        "gas": "0xec61",
        "value": "0x0",
        "input": "0x095ea7b30000000000000000000000003169a913ff6d3542bab8db3beb6ef99aa708f05d0000000000000000000000000000000000000000000000056bc75e2d63100000",
        "nonce": "0xd7",
        "chainId": "0x138b"
      },
      "additionalContracts": [],
      "isFixedGasLimit": false
    },
    {
      "hash": "0xaffc4711e87de4939a8852eebdf3a326cce0a87af36b2a25da60ef3829979437",
      "transactionType": "CALL",
      "contractName": "Allocator",
      "contractAddress": "0x3169a913ff6d3542bab8db3beb6ef99aa708f05d",
      "function": "deposit(uint256)",
      "arguments": [
        "100000000000000000000"
      ],
      "transaction": {
        "from": "0xecf9541c6ff5e8774a6d8f64b57a4be473de49ef",
        "to": "0x3169a913ff6d3542bab8db3beb6ef99aa708f05d",
        "gas": "0x6efc",
        "value": "0x0",
        "input": "0xb6b55f250000000000000000000000000000000000000000000000056bc75e2d63100000",
        "nonce": "0xd8",
        "chainId": "0x138b"
      },
      "additionalContracts": [],
      "isFixedGasLimit": false
    },
    {
      "hash": "0x98c71f4f9385da6a91b874771587c400efe19ab739c73156553ae612d8a1230b",
      "transactionType": "CALL",
      "contractName": "Allocator",
      "contractAddress": "0x3169a913ff6d3542bab8db3beb6ef99aa708f05d",
      "function": "rebalance()",
      "arguments": [],
      "transaction": {
        "from": "0xecf9541c6ff5e8774a6d8f64b57a4be473de49ef",
        "to": "0x3169a913ff6d3542bab8db3beb6ef99aa708f05d",
        "gas": "0x6c4b",
        "value": "0x0",
        "input": "0x7d7c2a1c",
        "nonce": "0xd9",
        "chainId": "0x138b"
      },
      "additionalContracts": [],
      "isFixedGasLimit": false
    }
  ],
  "receipts": [
    {
      "type": "0x0",
      "status": "0x1",
      "cumulativeGasUsed": "0x2d8d72",
      "logs": [
        {
          "address": "0x3169a913ff6d3542bab8db3beb6ef99aa708f05d",
          "topics": [
            "0xd2270db0749cf371cd06e708f18bdb337349019735f3c920765f74df26931e8f",
            "0x0000000000000000000000000000000000000000000000000000000000000000"
          ],
          "data": "0x00000000000000000000000000000000000000000000000000000000000000600000000000000000000000000000000000000000000000000000000000000000000000000000000000000000000000000000000000000000000000000000271000000000000000000000000000000000000000000000000000000000000000044f70656e00000000000000000000000000000000000000000000000000000000",
          "blockHash": "0x32119ebe918fe7264bbd9c2389e63270f8ca50d696e5202b5bb4cd52ca34b4e7",
          "blockNumber": "0x25e33a7",
          "blockTimestamp": "0x6a27ea2f",
          "transactionHash": "0x5605206d07375d800e7bf0314166b93cc191a7798f3991e75f4f1703f8f6fe56",
          "transactionIndex": "0x1",
          "logIndex": "0x0",
          "removed": false
        }
      ],
      "logsBloom": "0x00000000000000000040000000000000000000000000000000000000000000000000000000000000000000000000000000000000000000000000000000000000000000000000000000000000000800000000000000000000000000000000000000000000020000000000000000000800000000002000000000000010000000000000000000000000000000000000000000000000000000000000000000000000000000000000000000000000000000000000000000000000000000000000000000000000000000000000000000000000000000000000000000000000000030000000000000000000000000000000000000000000400000000000000000000000",
      "transactionHash": "0x5605206d07375d800e7bf0314166b93cc191a7798f3991e75f4f1703f8f6fe56",
      "transactionIndex": "0x1",
      "blockHash": "0x32119ebe918fe7264bbd9c2389e63270f8ca50d696e5202b5bb4cd52ca34b4e7",
      "blockNumber": "0x25e33a7",
      "gasUsed": "0x2cd8af",
      "effectiveGasPrice": "0xba43cfaa0",
      "blobGasUsed": "0x2a2060",
      "from": "0xecf9541c6ff5e8774a6d8f64b57a4be473de49ef",
      "to": null,
      "contractAddress": "0x3169a913ff6d3542bab8db3beb6ef99aa708f05d"
    },
    {
      "type": "0x0",
      "status": "0x1",
      "cumulativeGasUsed": "0x22818",
      "logs": [
        {
          "address": "0x3169a913ff6d3542bab8db3beb6ef99aa708f05d",
          "topics": [
            "0x7b7ef7a864d96a85497a1ed846adb39940dd6ccef678ff6ac8d55505e09b8cc4",
            "0x0000000000000000000000007e4399b91bf6801d7d74e359d162065c88ea9d1b"
          ],
          "data": "0x",
          "blockHash": "0x552ea868eccc2cdc6ffac813bd5f59da42d65fc39055d4ba6f9f8e1b59ca802f",
          "blockNumber": "0x25e33aa",
          "blockTimestamp": "0x6a27ea35",
          "transactionHash": "0xe725b219cf9c18ee9c033ea393d288f0e9a3ea4d6f39eb090ec43682eda338a1",
          "transactionIndex": "0x1",
          "logIndex": "0x0",
          "removed": false
        }
      ],
      "logsBloom": "0x00000000000000000000000000200000000000000000000000000000000000000000000000000000000000004000000000000000000000000000000000000000000000000000000000000000000800000000002000000000000000000000000000000000002000000000000000000000000000002000000000000000000000000000000000000000000000000000000000000000000000000000000000000000000000008000000000000000000001000000000000000000000000000000000000000000000000000000000000000000000000000000000000000000000000000000000000000000000000000000000000000000400000000000000000000000",
      "transactionHash": "0xe725b219cf9c18ee9c033ea393d288f0e9a3ea4d6f39eb090ec43682eda338a1",
      "transactionIndex": "0x1",
      "blockHash": "0x552ea868eccc2cdc6ffac813bd5f59da42d65fc39055d4ba6f9f8e1b59ca802f",
      "blockNumber": "0x25e33aa",
      "gasUsed": "0x17355",
      "effectiveGasPrice": "0xba43cfaa0",
      "blobGasUsed": "0x9c40",
      "from": "0xecf9541c6ff5e8774a6d8f64b57a4be473de49ef",
      "to": "0x3169a913ff6d3542bab8db3beb6ef99aa708f05d",
      "contractAddress": null
    },
    {
      "type": "0x0",
      "status": "0x1",
      "cumulativeGasUsed": "0x1e54c",
      "logs": [
        {
          "address": "0x3169a913ff6d3542bab8db3beb6ef99aa708f05d",
          "topics": [
            "0x7b7ef7a864d96a85497a1ed846adb39940dd6ccef678ff6ac8d55505e09b8cc4",
            "0x00000000000000000000000006e196408356d2bda4d21301b3bbb78c931ae9e3"
          ],
          "data": "0x",
          "blockHash": "0x5c65dab84768e09ef23eba411dc5a0a6756002a68db080e84f08d98911472052",
          "blockNumber": "0x25e33ad",
          "blockTimestamp": "0x6a27ea3b",
          "transactionHash": "0x8e27756954d4daeace81b805e301c78cb2c5c056b3b834f56ada9c33ae79e750",
          "transactionIndex": "0x1",
          "logIndex": "0x0",
          "removed": false
        }
      ],
      "logsBloom": "0x00000000000000000000000000000000000000000000000000000000000000000000000000000000000000004100000000000000000000000004000000000000000000000000000000000000000800000000002000000000000000000000000000000000000000000000000000000000000000002000000000000000000000000000000000000000000000000000000000000000000000000000000000000000000020000000000000000000000001000000000000000000000000000000000000000000000000000000000000000000000000000000000000000000000000000000000000000000000000000000000000000000400000000000000000000000",
      "transactionHash": "0x8e27756954d4daeace81b805e301c78cb2c5c056b3b834f56ada9c33ae79e750",
      "transactionIndex": "0x1",
      "blockHash": "0x5c65dab84768e09ef23eba411dc5a0a6756002a68db080e84f08d98911472052",
      "blockNumber": "0x25e33ad",
      "gasUsed": "0x13089",
      "effectiveGasPrice": "0xba43cfaa0",
      "blobGasUsed": "0x9c40",
      "from": "0xecf9541c6ff5e8774a6d8f64b57a4be473de49ef",
      "to": "0x3169a913ff6d3542bab8db3beb6ef99aa708f05d",
      "contractAddress": null
    },
    {
      "type": "0x0",
      "status": "0x1",
      "cumulativeGasUsed": "0x1e558",
      "logs": [
        {
          "address": "0x3169a913ff6d3542bab8db3beb6ef99aa708f05d",
          "topics": [
            "0x7b7ef7a864d96a85497a1ed846adb39940dd6ccef678ff6ac8d55505e09b8cc4",
            "0x000000000000000000000000ba8075d91983d15628de99cdc510cd6c70f434ee"
          ],
          "data": "0x",
          "blockHash": "0x1cbca8312122930645796c5c1225c900397b3a3da9bf51d95e2247c827b18580",
          "blockNumber": "0x25e33b0",
          "blockTimestamp": "0x6a27ea41",
          "transactionHash": "0xf2d6fdd7a1fbfaa1eb5b8c6cbb2b1755fa0899a3b2092482f934198f4343b26b",
          "transactionIndex": "0x1",
          "logIndex": "0x0",
          "removed": false
        }
      ],
      "logsBloom": "0x00400000000000000000000000000000000000000000000000000000000000000000040000000000000000004000000000000000000000000000000000000000000000000000000000000000000800000000002000000000000000002000000000000000000000000000000000000000000000002000000000000000000000000000000000000000000000000000000000000000000000000000000000000000000000000000000000000000000001000000000000000000000000000000000000000000000000000000000000000000000000000000000000000000000000000000000000000000000000000000000000000000400000000000000000000000",
      "transactionHash": "0xf2d6fdd7a1fbfaa1eb5b8c6cbb2b1755fa0899a3b2092482f934198f4343b26b",
      "transactionIndex": "0x1",
      "blockHash": "0x1cbca8312122930645796c5c1225c900397b3a3da9bf51d95e2247c827b18580",
      "blockNumber": "0x25e33b0",
      "gasUsed": "0x13089",
      "effectiveGasPrice": "0xba43cfaa0",
      "blobGasUsed": "0x9c40",
      "from": "0xecf9541c6ff5e8774a6d8f64b57a4be473de49ef",
      "to": "0x3169a913ff6d3542bab8db3beb6ef99aa708f05d",
      "contractAddress": null
    },
    {
      "type": "0x0",
      "status": "0x1",
      "cumulativeGasUsed": "0x1e558",
      "logs": [
        {
          "address": "0x3169a913ff6d3542bab8db3beb6ef99aa708f05d",
          "topics": [
            "0x7b7ef7a864d96a85497a1ed846adb39940dd6ccef678ff6ac8d55505e09b8cc4",
            "0x0000000000000000000000007e1827697843f377761f19f6f3386d8750d75bbd"
          ],
          "data": "0x",
          "blockHash": "0x4ca8a56e2406861b1178f030a32ccadb1f6250de5d0721fa42d6ce2d01b8646d",
          "blockNumber": "0x25e33b3",
          "blockTimestamp": "0x6a27ea47",
          "transactionHash": "0x1c2073af2d016c6ac5d237c6276af1ec8ae8cb7e4c8724b1250c11183210a50c",
          "transactionIndex": "0x1",
          "logIndex": "0x0",
          "removed": false
        }
      ],
      "logsBloom": "0x00000000000000000000000000000000000000000000000000000000000000000000000000000000000000004000000000000000000000000000000000000000000000000000000000000000000800000000002000000000000000000000080000000000000000000000000000000000000000002000000000000000000000000000000000000000000000000000000000000000000000000800000000000000000000000000000000000000000001000000000000000000000000000000000000000000000000000000000000000000000000000000000002000000000000000000000000000000000000000000000000000000400000000000000000000000",
      "transactionHash": "0x1c2073af2d016c6ac5d237c6276af1ec8ae8cb7e4c8724b1250c11183210a50c",
      "transactionIndex": "0x1",
      "blockHash": "0x4ca8a56e2406861b1178f030a32ccadb1f6250de5d0721fa42d6ce2d01b8646d",
      "blockNumber": "0x25e33b3",
      "gasUsed": "0x13089",
      "effectiveGasPrice": "0xba43cfaa0",
      "blobGasUsed": "0x9c40",
      "from": "0xecf9541c6ff5e8774a6d8f64b57a4be473de49ef",
      "to": "0x3169a913ff6d3542bab8db3beb6ef99aa708f05d",
      "contractAddress": null
    },
    {
      "type": "0x0",
      "status": "0x1",
      "cumulativeGasUsed": "0x1e54c",
      "logs": [
        {
          "address": "0x3169a913ff6d3542bab8db3beb6ef99aa708f05d",
          "topics": [
            "0x7b7ef7a864d96a85497a1ed846adb39940dd6ccef678ff6ac8d55505e09b8cc4",
            "0x000000000000000000000000a40af1a30e4094b2807fdfbf6195c06245ab0822"
          ],
          "data": "0x",
          "blockHash": "0x8d1b4931d67a24563062e7607de532902dfd5f5a15471b35e6b505ddd4b6f8ff",
          "blockNumber": "0x25e33b6",
          "blockTimestamp": "0x6a27ea4d",
          "transactionHash": "0x7b07a871a2bc45909639c957adc5d723f23230c27cd1dd2a2b006f6f6ea25a23",
          "transactionIndex": "0x1",
          "logIndex": "0x0",
          "removed": false
        }
      ],
      "logsBloom": "0x00000000000000000000000000000000000000000000000000000000000000000000000000000001000000004000000000000000000000000000000000000000000000000000000000000000000800000000002000000000000000000000000000000000000000000000000000000000000000002000000000000000000000000000000000000000000000000000000000000000000000008000000000000000000000000000000000000000020001000000000000000000000000000000000000000000000000000000000000000000000000000000000000000000000000000000000000000000000000000000000000000000400000000000000000000000",
      "transactionHash": "0x7b07a871a2bc45909639c957adc5d723f23230c27cd1dd2a2b006f6f6ea25a23",
      "transactionIndex": "0x1",
      "blockHash": "0x8d1b4931d67a24563062e7607de532902dfd5f5a15471b35e6b505ddd4b6f8ff",
      "blockNumber": "0x25e33b6",
      "gasUsed": "0x13089",
      "effectiveGasPrice": "0xba43cfaa0",
      "blobGasUsed": "0x9c40",
      "from": "0xecf9541c6ff5e8774a6d8f64b57a4be473de49ef",
      "to": "0x3169a913ff6d3542bab8db3beb6ef99aa708f05d",
      "contractAddress": null
    },
    {
      "type": "0x0",
      "status": "0x1",
      "cumulativeGasUsed": "0x2398e",
      "logs": [
        {
          "address": "0x3169a913ff6d3542bab8db3beb6ef99aa708f05d",
          "topics": [
            "0xd2270db0749cf371cd06e708f18bdb337349019735f3c920765f74df26931e8f",
            "0x0000000000000000000000000000000000000000000000000000000000000001"
          ],
          "data": "0x00000000000000000000000000000000000000000000000000000000000000600000000000000000000000000000000000000000000000000853a0d2313c00000000000000000000000000000000000000000000000000000000000000001388000000000000000000000000000000000000000000000000000000000000000842616c616e636564000000000000000000000000000000000000000000000000",
          "blockHash": "0x10cf3b526aa4b377989bb8acd2e73642f24ed3756312a3b24c76785d97997846",
          "blockNumber": "0x25e33ba",
          "blockTimestamp": "0x6a27ea55",
          "transactionHash": "0xbd8d6c742bf548b66c90c12880aac38b2b2e3a735831b58a02f7913e7f33ff95",
          "transactionIndex": "0x1",
          "logIndex": "0x0",
          "removed": false
        }
      ],
      "logsBloom": "0x00000000000000000040000000000000000000000000000000000000000000000000000000000000000000000000000000000000000000000000000000040000000000000000000000000000000800000000000000040000000000000000000000000000000000000000000000000000000000002000000000000010000000000000000000000000000000000000000000000000000000000000000000000000000000000000000000000000000000000000000000000000000000000000000000000000000000000000000000000000000000000000000000000000000050000000000000000000000000000000000000000000400000000000000000000000",
      "transactionHash": "0xbd8d6c742bf548b66c90c12880aac38b2b2e3a735831b58a02f7913e7f33ff95",
      "transactionIndex": "0x1",
      "blockHash": "0x10cf3b526aa4b377989bb8acd2e73642f24ed3756312a3b24c76785d97997846",
      "blockNumber": "0x25e33ba",
      "gasUsed": "0x184cb",
      "effectiveGasPrice": "0xba43cfaa0",
      "blobGasUsed": "0x9c40",
      "from": "0xecf9541c6ff5e8774a6d8f64b57a4be473de49ef",
      "to": "0x3169a913ff6d3542bab8db3beb6ef99aa708f05d",
      "contractAddress": null
    },
    {
      "type": "0x0",
      "status": "0x1",
      "cumulativeGasUsed": "0x239ca",
      "logs": [
        {
          "address": "0x3169a913ff6d3542bab8db3beb6ef99aa708f05d",
          "topics": [
            "0xd2270db0749cf371cd06e708f18bdb337349019735f3c920765f74df26931e8f",
            "0x0000000000000000000000000000000000000000000000000000000000000002"
          ],
          "data": "0x000000000000000000000000000000000000000000000000000000000000006000000000000000000000000000000000000000000000000009b6e64a8ec600000000000000000000000000000000000000000000000000000000000000000dac000000000000000000000000000000000000000000000000000000000000000c436f6e7365727661746976650000000000000000000000000000000000000000",
          "blockHash": "0x8dc4730b11d4ff56450763865958c514ee8d7bef70f414592f0554d912b3d056",
          "blockNumber": "0x25e33be",
          "blockTimestamp": "0x6a27ea5d",
          "transactionHash": "0xea318bf2613cefb6ff2d3b78e8d2ac28833cd923f0e051f39ad4d9f5ec14fd41",
          "transactionIndex": "0x1",
          "logIndex": "0x0",
          "removed": false
        }
      ],
      "logsBloom": "0x04000000000000000040000000000000000000000000000000000000000000000000000000000000000000000000000000000000000000000000000000000000000000000000000000000000000800000000000000000000000000000000000000000000000000000000000000000000000000002000000000000010000000000000000000000000000000000000000000000000000000000000000000000000000000000000000000000100000000000000000000000000000000000000000000000000000000000000000000000000000000000000000000000000000010000000000000000000000000000000000000000000408000000000000000000000",
      "transactionHash": "0xea318bf2613cefb6ff2d3b78e8d2ac28833cd923f0e051f39ad4d9f5ec14fd41",
      "transactionIndex": "0x1",
      "blockHash": "0x8dc4730b11d4ff56450763865958c514ee8d7bef70f414592f0554d912b3d056",
      "blockNumber": "0x25e33be",
      "gasUsed": "0x184fb",
      "effectiveGasPrice": "0xba43cfaa0",
      "blobGasUsed": "0x9c40",
      "from": "0xecf9541c6ff5e8774a6d8f64b57a4be473de49ef",
      "to": "0x3169a913ff6d3542bab8db3beb6ef99aa708f05d",
      "contractAddress": null
    },
    {
      "type": "0x0",
      "status": "0x1",
      "cumulativeGasUsed": "0x84e40",
      "logs": [
        {
          "address": "0x3169a913ff6d3542bab8db3beb6ef99aa708f05d",
          "topics": [
            "0xd2270db0749cf371cd06e708f18bdb337349019735f3c920765f74df26931e8f",
            "0x0000000000000000000000000000000000000000000000000000000000000003"
          ],
          "data": "0x0000000000000000000000000000000000000000000000000000000000000060000000000000000000000000000000000000000000000000058d15e1762800000000000000000000000000000000000000000000000000000000000000002710000000000000000000000000000000000000000000000000000000000000000a4167677265737369766500000000000000000000000000000000000000000000",
          "blockHash": "0x094ac2197d33be6b502ff81dc50b3e7d50311abceaceafd752bf8c4c0903e056",
          "blockNumber": "0x25e33c1",
          "blockTimestamp": "0x6a27ea63",
          "transactionHash": "0x006524b1e3390b06f4bea3000de89ccc1fe6113d30714f8256f1b771ad4f5803",
          "transactionIndex": "0x3",
          "logIndex": "0x3",
          "removed": false
        }
      ],
      "logsBloom": "0x00000000000000000040000000000000000000000000000000000000000000000000000000000000000000000000000000000000020000000000000000000000000000000000000000000000000800000000000000000000000000000000000000000000000000000000000000000000000000002000000000000010000000000000000000000000000000000000000000000000000000000000000000000000000000000000000000000000000000000000000000800000000000000000400000000000000000000000000000000000000000000000000000000000000010000000000000000000000000000000000000000000400000000000000000000000",
      "transactionHash": "0x006524b1e3390b06f4bea3000de89ccc1fe6113d30714f8256f1b771ad4f5803",
      "transactionIndex": "0x3",
      "blockHash": "0x094ac2197d33be6b502ff81dc50b3e7d50311abceaceafd752bf8c4c0903e056",
      "blockNumber": "0x25e33c1",
      "gasUsed": "0x184e3",
      "effectiveGasPrice": "0xba43cfaa0",
      "blobGasUsed": "0x9c40",
      "from": "0xecf9541c6ff5e8774a6d8f64b57a4be473de49ef",
      "to": "0x3169a913ff6d3542bab8db3beb6ef99aa708f05d",
      "contractAddress": null
    },
    {
      "type": "0x0",
      "status": "0x1",
      "cumulativeGasUsed": "0x17431",
      "logs": [
        {
          "address": "0x3169a913ff6d3542bab8db3beb6ef99aa708f05d",
          "topics": [
            "0xdb1c1d00eebcb507bcd937e8305eb395e99f183759119b71dc6e2c7e0a6a030b",
            "0x0000000000000000000000000000000000000000000000000000000000000002"
          ],
          "data": "0x",
          "blockHash": "0xe0dedb8598db5e193be946239700a81455555a6638f2179a72e6138b87e34baa",
          "blockNumber": "0x25e33c5",
          "blockTimestamp": "0x6a27ea6b",
          "transactionHash": "0x0793138b7eae60347e94204a78b9997f1841ff24159b96651ad0405aee00e79b",
          "transactionIndex": "0x1",
          "logIndex": "0x0",
          "removed": false
        }
      ],
      "logsBloom": "0x04000000000000000000000000000000000000000000000000000000000000000000000000000000000000000000000000000000000000000000000000000000000000000000000000000000000800080000000000000000000000000000000000000000000000000000000000000000000000002000000000000000000000000000000000000000000002000000000000000000000000000000000000000000000000000000000000000100000000000000000000000000000000000000000000000000000000000000000000000000000000000000000000000000000000000000000000000000000000000000000020000000408000000000000000000000",
      "transactionHash": "0x0793138b7eae60347e94204a78b9997f1841ff24159b96651ad0405aee00e79b",
      "transactionIndex": "0x1",
      "blockHash": "0xe0dedb8598db5e193be946239700a81455555a6638f2179a72e6138b87e34baa",
      "blockNumber": "0x25e33c5",
      "gasUsed": "0xbf62",
      "effectiveGasPrice": "0xba43cfaa0",
      "blobGasUsed": "0x9c40",
      "from": "0xecf9541c6ff5e8774a6d8f64b57a4be473de49ef",
      "to": "0x3169a913ff6d3542bab8db3beb6ef99aa708f05d",
      "contractAddress": null
    },
    {
      "type": "0x0",
      "status": "0x1",
      "cumulativeGasUsed": "0x17cd2",
      "logs": [
        {
          "address": "0xbc17d7f8f265d069781ed765914ed092989d92e7",
          "topics": [
            "0xddf252ad1be2c89b69c2b068fc378daa952ba7f163c4a11628f55a4df523b3ef",
            "0x0000000000000000000000000000000000000000000000000000000000000000",
            "0x000000000000000000000000ecf9541c6ff5e8774a6d8f64b57a4be473de49ef"
          ],
          "data": "0x0000000000000000000000000000000000000000000000056bc75e2d63100000",
          "blockHash": "0x85dc044e35bc08a820c81735551fa9d317ddc874861394ca6a40a39832c993dc",
          "blockNumber": "0x25e33c8",
          "blockTimestamp": "0x6a27ea71",
          "transactionHash": "0x43337925a8d602115a2dd339eba0b779e98f23f59faa4096272386f09e9f3fee",
          "transactionIndex": "0x1",
          "logIndex": "0x0",
          "removed": false
        }
      ],
      "logsBloom": "0x00000000000000000000000000000000000000000000000000000000000000000000000000000000002000000000004000000000000000000000000000000000000000000000000000000008000000000000010000000000000000000000000000000000020000000000000000000800000000000000000000000010000000000000000000000000000000000000000000000000000000000000080000000000000010000000000000000000000000000000000000000000000000000000000000000002000000000000000000000000000000000000000000000000000020000000000000000000000004000000000000000000000000000000000000000000",
      "transactionHash": "0x43337925a8d602115a2dd339eba0b779e98f23f59faa4096272386f09e9f3fee",
      "transactionIndex": "0x1",
      "blockHash": "0x85dc044e35bc08a820c81735551fa9d317ddc874861394ca6a40a39832c993dc",
      "blockNumber": "0x25e33c8",
      "gasUsed": "0xc803",
      "effectiveGasPrice": "0xba43cfaa0",
      "blobGasUsed": "0x9c40",
      "from": "0xecf9541c6ff5e8774a6d8f64b57a4be473de49ef",
      "to": "0xbc17d7f8f265d069781ed765914ed092989d92e7",
      "contractAddress": null
    },
    {
      "type": "0x0",
      "status": "0x1",
      "cumulativeGasUsed": "0x16926",
      "logs": [
        {
          "address": "0xbc17d7f8f265d069781ed765914ed092989d92e7",
          "topics": [
            "0x8c5be1e5ebec7d5bd14f71427d1e84f3dd0314c0f7b2291e5b200ac8c7c3b925",
            "0x000000000000000000000000ecf9541c6ff5e8774a6d8f64b57a4be473de49ef",
            "0x0000000000000000000000003169a913ff6d3542bab8db3beb6ef99aa708f05d"
          ],
          "data": "0x0000000000000000000000000000000000000000000000056bc75e2d63100000",
          "blockHash": "0x5cdc9cd7f2b842784a4c4d94e7456e7f9ac5be23d24e49b9090851b2d475c0bf",
          "blockNumber": "0x25e33cb",
          "blockTimestamp": "0x6a27ea77",
          "transactionHash": "0xe2afbae142ed5bd1ae42faa64d4f135c2631a30d7f00e12ea7fee2e70bb1752c",
          "transactionIndex": "0x1",
          "logIndex": "0x0",
          "removed": false
        }
      ],
      "logsBloom": "0x00000000000000000000000000000000000000000000000000000000000000000000000000000000002000000000004000000000000000000000000000200000000000000000000000000000000000000000010000000000000000000000200000000000000000000000000000000000000000000000000000000000020000000000000000000000000000000000000000000000000000000000080000000000020010000000000000000000000000000000000000000000000000000000000000000000000000000020000000000000000000000000000000000000000000000010000000000000000004000000000000000000000000000000000000000000",
      "transactionHash": "0xe2afbae142ed5bd1ae42faa64d4f135c2631a30d7f00e12ea7fee2e70bb1752c",
      "transactionIndex": "0x1",
      "blockHash": "0x5cdc9cd7f2b842784a4c4d94e7456e7f9ac5be23d24e49b9090851b2d475c0bf",
      "blockNumber": "0x25e33cb",
      "gasUsed": "0xb457",
      "effectiveGasPrice": "0xba43cfaa0",
      "blobGasUsed": "0x9c40",
      "from": "0xecf9541c6ff5e8774a6d8f64b57a4be473de49ef",
      "to": "0xbc17d7f8f265d069781ed765914ed092989d92e7",
      "contractAddress": null
    },
    {
      "type": "0x0",
      "status": "0x1",
      "cumulativeGasUsed": "0x2ae00",
      "logs": [
        {
          "address": "0xbc17d7f8f265d069781ed765914ed092989d92e7",
          "topics": [
            "0xddf252ad1be2c89b69c2b068fc378daa952ba7f163c4a11628f55a4df523b3ef",
            "0x000000000000000000000000ecf9541c6ff5e8774a6d8f64b57a4be473de49ef",
            "0x0000000000000000000000003169a913ff6d3542bab8db3beb6ef99aa708f05d"
          ],
          "data": "0x0000000000000000000000000000000000000000000000056bc75e2d63100000",
          "blockHash": "0x7849b8cfa38ef4a01e098ad2f4de8bf2cdcd443fd4140859f4998477a4e82916",
          "blockNumber": "0x25e33ce",
          "blockTimestamp": "0x6a27ea7d",
          "transactionHash": "0xaffc4711e87de4939a8852eebdf3a326cce0a87af36b2a25da60ef3829979437",
          "transactionIndex": "0x1",
          "logIndex": "0x0",
          "removed": false
        },
        {
          "address": "0x3169a913ff6d3542bab8db3beb6ef99aa708f05d",
          "topics": [
            "0x90890809c654f11d6e72a28fa60149770a0d11ec6c92319d6ceb2bb0a4ea1a15",
            "0x000000000000000000000000ecf9541c6ff5e8774a6d8f64b57a4be473de49ef"
          ],
          "data": "0x0000000000000000000000000000000000000000000000056bc75e2d631000000000000000000000000000000000000000000000000000056bc75e2d63100000",
          "blockHash": "0x7849b8cfa38ef4a01e098ad2f4de8bf2cdcd443fd4140859f4998477a4e82916",
          "blockNumber": "0x25e33ce",
          "blockTimestamp": "0x6a27ea7d",
          "transactionHash": "0xaffc4711e87de4939a8852eebdf3a326cce0a87af36b2a25da60ef3829979437",
          "transactionIndex": "0x1",
          "logIndex": "0x1",
          "removed": false
        }
      ],
      "logsBloom": "0x00000000000000000000000000000000000000000400000000000000000000000000000000000000002000000000004008000000000000000000000000000000000000000000000000000008000800000000010000000000000000000000200000000000000000000000000000000000000000002000000000000010020000000000000000000000000000000000000000000000000000000000080000000000000010000000000000000000000000000000000000000000000000000000000000000002000000000020000000000000000000000000000000000000000000000000000000000000000004000000000000000000400000000000000000000000",
      "transactionHash": "0xaffc4711e87de4939a8852eebdf3a326cce0a87af36b2a25da60ef3829979437",
      "transactionIndex": "0x1",
      "blockHash": "0x7849b8cfa38ef4a01e098ad2f4de8bf2cdcd443fd4140859f4998477a4e82916",
      "blockNumber": "0x25e33ce",
      "gasUsed": "0x1f931",
      "effectiveGasPrice": "0xba43cfaa0",
      "blobGasUsed": "0x9c40",
      "from": "0xecf9541c6ff5e8774a6d8f64b57a4be473de49ef",
      "to": "0x3169a913ff6d3542bab8db3beb6ef99aa708f05d",
      "contractAddress": null
    },
    {
      "type": "0x0",
      "status": "0x1",
      "cumulativeGasUsed": "0x842ef",
      "logs": [
        {
          "address": "0xbc17d7f8f265d069781ed765914ed092989d92e7",
          "topics": [
            "0x8c5be1e5ebec7d5bd14f71427d1e84f3dd0314c0f7b2291e5b200ac8c7c3b925",
            "0x0000000000000000000000003169a913ff6d3542bab8db3beb6ef99aa708f05d",
            "0x000000000000000000000000ba8075d91983d15628de99cdc510cd6c70f434ee"
          ],
          "data": "0x000000000000000000000000000000000000000000000001a6cd3b9dbae4fae5",
          "blockHash": "0xa9cd1b16ae0a24b4e04d94cc1bc432a5d9113b909f94835deb50577748383ccd",
          "blockNumber": "0x25e33d2",
          "blockTimestamp": "0x6a27ea85",
          "transactionHash": "0x98c71f4f9385da6a91b874771587c400efe19ab739c73156553ae612d8a1230b",
          "transactionIndex": "0x2",
          "logIndex": "0x1",
          "removed": false
        },
        {
          "address": "0xbc17d7f8f265d069781ed765914ed092989d92e7",
          "topics": [
            "0xddf252ad1be2c89b69c2b068fc378daa952ba7f163c4a11628f55a4df523b3ef",
            "0x0000000000000000000000003169a913ff6d3542bab8db3beb6ef99aa708f05d",
            "0x000000000000000000000000ba8075d91983d15628de99cdc510cd6c70f434ee"
          ],
          "data": "0x000000000000000000000000000000000000000000000001a6cd3b9dbae4fae5",
          "blockHash": "0xa9cd1b16ae0a24b4e04d94cc1bc432a5d9113b909f94835deb50577748383ccd",
          "blockNumber": "0x25e33d2",
          "blockTimestamp": "0x6a27ea85",
          "transactionHash": "0x98c71f4f9385da6a91b874771587c400efe19ab739c73156553ae612d8a1230b",
          "transactionIndex": "0x2",
          "logIndex": "0x2",
          "removed": false
        },
        {
          "address": "0xba8075d91983d15628de99cdc510cd6c70f434ee",
          "topics": [
            "0x73a19dd210f1a7f902193214c0ee91dd35ee5b4d920cba8d519eca65a7b488ca",
            "0x0000000000000000000000003169a913ff6d3542bab8db3beb6ef99aa708f05d"
          ],
          "data": "0x000000000000000000000000000000000000000000000001a6cd3b9dbae4fae500000000000000000000000000000000000000000000000069b34ee76eb93eb9",
          "blockHash": "0xa9cd1b16ae0a24b4e04d94cc1bc432a5d9113b909f94835deb50577748383ccd",
          "blockNumber": "0x25e33d2",
          "blockTimestamp": "0x6a27ea85",
          "transactionHash": "0x98c71f4f9385da6a91b874771587c400efe19ab739c73156553ae612d8a1230b",
          "transactionIndex": "0x2",
          "logIndex": "0x3",
          "removed": false
        },
        {
          "address": "0xbc17d7f8f265d069781ed765914ed092989d92e7",
          "topics": [
            "0x8c5be1e5ebec7d5bd14f71427d1e84f3dd0314c0f7b2291e5b200ac8c7c3b925",
            "0x0000000000000000000000003169a913ff6d3542bab8db3beb6ef99aa708f05d",
            "0x0000000000000000000000007e1827697843f377761f19f6f3386d8750d75bbd"
          ],
          "data": "0x000000000000000000000000000000000000000000000001df4127ffc57f0518",
          "blockHash": "0xa9cd1b16ae0a24b4e04d94cc1bc432a5d9113b909f94835deb50577748383ccd",
          "blockNumber": "0x25e33d2",
          "blockTimestamp": "0x6a27ea85",
          "transactionHash": "0x98c71f4f9385da6a91b874771587c400efe19ab739c73156553ae612d8a1230b",
          "transactionIndex": "0x2",
          "logIndex": "0x4",
          "removed": false
        },
        {
          "address": "0xbc17d7f8f265d069781ed765914ed092989d92e7",
          "topics": [
            "0xddf252ad1be2c89b69c2b068fc378daa952ba7f163c4a11628f55a4df523b3ef",
            "0x0000000000000000000000003169a913ff6d3542bab8db3beb6ef99aa708f05d",
            "0x0000000000000000000000007e1827697843f377761f19f6f3386d8750d75bbd"
          ],
          "data": "0x000000000000000000000000000000000000000000000001df4127ffc57f0518",
          "blockHash": "0xa9cd1b16ae0a24b4e04d94cc1bc432a5d9113b909f94835deb50577748383ccd",
          "blockNumber": "0x25e33d2",
          "blockTimestamp": "0x6a27ea85",
          "transactionHash": "0x98c71f4f9385da6a91b874771587c400efe19ab739c73156553ae612d8a1230b",
          "transactionIndex": "0x2",
          "logIndex": "0x5",
          "removed": false
        },
        {
          "address": "0x7e1827697843f377761f19f6f3386d8750d75bbd",
          "topics": [
            "0x73a19dd210f1a7f902193214c0ee91dd35ee5b4d920cba8d519eca65a7b488ca",
            "0x0000000000000000000000003169a913ff6d3542bab8db3beb6ef99aa708f05d"
          ],
          "data": "0x000000000000000000000000000000000000000000000001df4127ffc57f05180000000000000000000000000000000000000000000000004fe031554b952b84",
          "blockHash": "0xa9cd1b16ae0a24b4e04d94cc1bc432a5d9113b909f94835deb50577748383ccd",
          "blockNumber": "0x25e33d2",
          "blockTimestamp": "0x6a27ea85",
          "transactionHash": "0x98c71f4f9385da6a91b874771587c400efe19ab739c73156553ae612d8a1230b",
          "transactionIndex": "0x2",
          "logIndex": "0x6",
          "removed": false
        },
        {
          "address": "0xbc17d7f8f265d069781ed765914ed092989d92e7",
          "topics": [
            "0x8c5be1e5ebec7d5bd14f71427d1e84f3dd0314c0f7b2291e5b200ac8c7c3b925",
            "0x0000000000000000000000003169a913ff6d3542bab8db3beb6ef99aa708f05d",
            "0x000000000000000000000000a40af1a30e4094b2807fdfbf6195c06245ab0822"
          ],
          "data": "0x000000000000000000000000000000000000000000000001e5b8fa8fe2ac0000",
          "blockHash": "0xa9cd1b16ae0a24b4e04d94cc1bc432a5d9113b909f94835deb50577748383ccd",
          "blockNumber": "0x25e33d2",
          "blockTimestamp": "0x6a27ea85",
          "transactionHash": "0x98c71f4f9385da6a91b874771587c400efe19ab739c73156553ae612d8a1230b",
          "transactionIndex": "0x2",
          "logIndex": "0x7",
          "removed": false
        },
        {
          "address": "0xbc17d7f8f265d069781ed765914ed092989d92e7",
          "topics": [
            "0xddf252ad1be2c89b69c2b068fc378daa952ba7f163c4a11628f55a4df523b3ef",
            "0x0000000000000000000000003169a913ff6d3542bab8db3beb6ef99aa708f05d",
            "0x000000000000000000000000a40af1a30e4094b2807fdfbf6195c06245ab0822"
          ],
          "data": "0x000000000000000000000000000000000000000000000001e5b8fa8fe2ac0000",
          "blockHash": "0xa9cd1b16ae0a24b4e04d94cc1bc432a5d9113b909f94835deb50577748383ccd",
          "blockNumber": "0x25e33d2",
          "blockTimestamp": "0x6a27ea85",
          "transactionHash": "0x98c71f4f9385da6a91b874771587c400efe19ab739c73156553ae612d8a1230b",
          "transactionIndex": "0x2",
          "logIndex": "0x8",
          "removed": false
        },
        {
          "address": "0xa40af1a30e4094b2807fdfbf6195c06245ab0822",
          "topics": [
            "0x73a19dd210f1a7f902193214c0ee91dd35ee5b4d920cba8d519eca65a7b488ca",
            "0x0000000000000000000000003169a913ff6d3542bab8db3beb6ef99aa708f05d"
          ],
          "data": "0x000000000000000000000000000000000000000000000001e5b8fa8fe2ac000000000000000000000000000000000000000000000000000035f81bd7192f8e39",
          "blockHash": "0xa9cd1b16ae0a24b4e04d94cc1bc432a5d9113b909f94835deb50577748383ccd",
          "blockNumber": "0x25e33d2",
          "blockTimestamp": "0x6a27ea85",
          "transactionHash": "0x98c71f4f9385da6a91b874771587c400efe19ab739c73156553ae612d8a1230b",
          "transactionIndex": "0x2",
          "logIndex": "0x9",
          "removed": false
        },
        {
          "address": "0x3169a913ff6d3542bab8db3beb6ef99aa708f05d",
          "topics": [
            "0x83387a3342ff1ebc5e437dc9ae0f98274afda12a11cf547eebec05a3e0b8f8a7",
            "0x0000000000000000000000000000000000000000000000000000000000000002"
          ],
          "data": "0x0000000000000000000000000000000000000000000000056bc75e2d631000000000000000000000000000000000000000000000000000000000000000000003",
          "blockHash": "0xa9cd1b16ae0a24b4e04d94cc1bc432a5d9113b909f94835deb50577748383ccd",
          "blockNumber": "0x25e33d2",
          "blockTimestamp": "0x6a27ea85",
          "transactionHash": "0x98c71f4f9385da6a91b874771587c400efe19ab739c73156553ae612d8a1230b",
          "transactionIndex": "0x2",
          "logIndex": "0xa",
          "removed": false
        }
      ],
      "logsBloom": "0x04400000000200000000000000000000000000000100000000000000000000000000048000000001002900000000004000000000000000000000000000200000000000000000000000000008000802000000010000010000000000002000280000000000020000200000000000000000000000002000000000000010020000000000000000000000000000000000000000000000000000008800000000010000020000000000000000000100020000002000000200000000000000000000000000000002000000000020000000000000000002000000000002000000000000000010000000000000000004000000000000000000408000000000000000000000",
      "transactionHash": "0x98c71f4f9385da6a91b874771587c400efe19ab739c73156553ae612d8a1230b",
      "transactionIndex": "0x2",
      "blockHash": "0xa9cd1b16ae0a24b4e04d94cc1bc432a5d9113b909f94835deb50577748383ccd",
      "blockNumber": "0x25e33d2",
      "gasUsed": "0x6f7ec",
      "effectiveGasPrice": "0xba43cfaa0",
      "blobGasUsed": "0x9c40",
      "from": "0xecf9541c6ff5e8774a6d8f64b57a4be473de49ef",
      "to": "0x3169a913ff6d3542bab8db3beb6ef99aa708f05d",
      "contractAddress": null
    }
  ],
  "libraries": [],
  "pending": [],
  "returns": {},
  "timestamp": 1781000838197,
  "chain": 5003,
  "commit": "4673f4e"
}