{
  "transactions": [
    {
      "hash": "0xb54a4e0991e8619ee102b69569bb61f7d0141f17b9f4db5dd3dba1046e7e1e01",
      "transactionType": "CREATE",
      "contractName": "MockProtocol",
      "contractAddress": "0x9ef3feb3c404651c8d240c529969b99b743de8d0",
      "function": null,
      "arguments": [
        "0xe84E84D7e2E588aa8F88d1D1ADF2bdc70365a02b"
      ],
      "transaction": {
        "from": "0xecf9541c6ff5e8774a6d8f64b57a4be473de49ef",
        "to": null,
        "gas": "0x66f6e",
        "value": "0x0",
        "input": "0x60a060405234801561001057600080fd5b506040516105aa3803806105aa83398101604081905261002f91610087565b6001600160a01b0381166100765760405162461bcd60e51b815260206004820152600a6024820152691e995c9bc819dd585c9960b21b604482015260640160405180910390fd5b6001600160a01b03166080526100b7565b60006020828403121561009957600080fd5b81516001600160a01b03811681146100b057600080fd5b9392505050565b6080516104cb6100df60003960008181604b01528181610100015261022301526104cb6000f3fe608060405234801561001057600080fd5b50600436106100415760003560e01c80637ceab3b114610046578063a82d54771461008a578063f022a926146100ab575b600080fd5b61006d7f000000000000000000000000000000000000000000000000000000000000000081565b6040516001600160a01b0390911681526020015b60405180910390f35b61009d6100983660046102ba565b6100cc565b604051908152602001610081565b6100be6100b93660046102f5565b6101f0565b60405161008192919061037a565b604051630c83f4c360e11b8152600481018590526001600160a01b03848116602483015260448201849052600091829182917f000000000000000000000000000000000000000000000000000000000000000090911690631907e98690606401600060405180830381865afa158015610149573d6000803e3d6000fd5b505050506040513d6000823e601f3d908101601f1916820160405261017191908101906103b3565b9150915081819061019e5760405162461bcd60e51b8152600401610195919061047b565b60405180910390fd5b5060408051868152602081018690526001600160a01b0388169189917ffadada88032203b5438592507c633c935dd15accdf6ff4577531f9d96922368c910160405180910390a3509195945050505050565b604051630c83f4c360e11b8152600481018490526001600160a01b038381166024830152604482018390526000916060917f00000000000000000000000000000000000000000000000000000000000000001690631907e98690606401600060405180830381865afa15801561026a573d6000803e3d6000fd5b505050506040513d6000823e601f3d908101601f1916820160405261029291908101906103b3565b91509150935093915050565b80356001600160a01b03811681146102b557600080fd5b919050565b600080600080608085870312156102d057600080fd5b843593506102e06020860161029e565b93969395505050506040820135916060013590565b60008060006060848603121561030a57600080fd5b8335925061031a6020850161029e565b9150604084013590509250925092565b60005b8381101561034557818101518382015260200161032d565b50506000910152565b6000815180845261036681602086016020860161032a565b601f01601f19169290920160200192915050565b8215158152604060208201526000610395604083018461034e565b949350505050565b634e487b7160e01b600052604160045260246000fd5b600080604083850312156103c657600080fd5b825180151581146103d657600080fd5b602084015190925067ffffffffffffffff808211156103f457600080fd5b818501915085601f83011261040857600080fd5b81518181111561041a5761041a61039d565b604051601f8201601f19908116603f011681019083821181831017156104425761044261039d565b8160405282815288602084870101111561045b57600080fd5b61046c83602083016020880161032a565b80955050505050509250929050565b60208152600061048e602083018461034e565b939250505056fea26469706673582212207ee54b20ed50e4063f3e861400d8185bc92e75db64ce94f089d635707a129d4764736f6c63430008180033000000000000000000000000e84e84d7e2e588aa8f88d1d1adf2bdc70365a02b",
        "nonce": "0x109",
        "chainId": "0x138b"
      },
      "additionalContracts": [],
      "isFixedGasLimit": false
    },
    {
      "hash": "0x900461aa732839477051ca3f71d2401107418066f4978ed72dbe031774b867fe",
      "transactionType": "CALL",
      "contractName": "MockProtocol",
      "contractAddress": "0x9ef3feb3c404651c8d240c529969b99b743de8d0",
      "function": "executeAgentAction(uint256,address,uint256,uint256)",
      "arguments": [
        "1",
        "0xbc17D7F8f265d069781ed765914ED092989d92e7",
        "1000",
        "1000000000000000000"
      ],
      "transaction": {
        "from": "0xecf9541c6ff5e8774a6d8f64b57a4be473de49ef",
        "to": "0x9ef3feb3c404651c8d240c529969b99b743de8d0",
        "gas": "0x7815",
        "value": "0x0",
        "input": "0xa82d54770000000000000000000000000000000000000000000000000000000000000001000000000000000000000000bc17d7f8f265d069781ed765914ed092989d92e700000000000000000000000000000000000000000000000000000000000003e80000000000000000000000000000000000000000000000000de0b6b3a7640000",
        "nonce": "0x10a",
        "chainId": "0x138b"
      },
      "additionalContracts": [],
      "isFixedGasLimit": false
    }
  ],
  "receipts": [
    {
      "type": "0x0",
      "status": "0x1",
      "cumulativeGasUsed": "0x65b77",
      "logs": [],
      "logsBloom": "0x00000000000000000000000000000000000000000000000000000000000000000000000000000000000000000000000000000000000000000000000000000000000000000000000000000000000000000000000000000000000000000000000000000000000000000000000000000000000000000000000000000000000000000000000000000000000000000000000000000000000000000000000000000000000000000000000000000000000000000000000000000000000000000000000000000000000000000000000000000000000000000000000000000000000000000000000000000000000000000000000000000000000000000000000000000000",
      "transactionHash": "0xb54a4e0991e8619ee102b69569bb61f7d0141f17b9f4db5dd3dba1046e7e1e01",
      "transactionIndex": "0x2",
      "blockHash": "0xd4ebd78cb245df33df7c6b78f250e09ae0c9c7ea8efe66516048900bc6bc673e",
      "blockNumber": "0x25e5801",
      "gasUsed": "0x4e4c0",
      "effectiveGasPrice": "0xba43cfaa0",
      "blobGasUsed": "0x5f500",
      "from": "0xecf9541c6ff5e8774a6d8f64b57a4be473de49ef",
      "to": null,
      "contractAddress": "0x9ef3feb3c404651c8d240c529969b99b743de8d0"
    },
    {
      "type": "0x0",
      "status": "0x1",
      "cumulativeGasUsed": "0x18f2e",
      "logs": [
        {
          "address": "0x9ef3feb3c404651c8d240c529969b99b743de8d0",
          "topics": [
            "0xfadada88032203b5438592507c633c935dd15accdf6ff4577531f9d96922368c",
            "0x0000000000000000000000000000000000000000000000000000000000000001",
            "0x000000000000000000000000bc17d7f8f265d069781ed765914ed092989d92e7"
          ],
          "data": "0x00000000000000000000000000000000000000000000000000000000000003e80000000000000000000000000000000000000000000000000de0b6b3a7640000",
          "blockHash": "0xa7cbd813ea09b197ab91a3403834ea2db79c83cd28fbdfa2dcd72e2b8873291b",
          "blockNumber": "0x25e5804",
          "blockTimestamp": "0x6a2832e9",
          "transactionHash": "0x900461aa732839477051ca3f71d2401107418066f4978ed72dbe031774b867fe",
          "transactionIndex": "0x1",
          "logIndex": "0x0",
          "removed": false
        }
      ],
      "logsBloom": "0x01000000000000000000000002000000000000000000000000020000000000000000400000000000000000000000000000000000000000000000000000040000000000000000100000000000000000000000000000040000100000000000000000000000000000000000000000000000000000000000000000000000000000000000000000000000000000000008000080000000000000000000000000000000000000000000000000000000000000000000000000000000000000000000000000000000000000000080000000000000000000000000000000000000000040000000000000000000000000000000000000000000000000000000000000000000",
      "transactionHash": "0x900461aa732839477051ca3f71d2401107418066f4978ed72dbe031774b867fe",
      "transactionIndex": "0x1",
      "blockHash": "0xa7cbd813ea09b197ab91a3403834ea2db79c83cd28fbdfa2dcd72e2b8873291b",
      "blockNumber": "0x25e5804",
      "gasUsed": "0xda5f",
      "effectiveGasPrice": "0xba43cfaa0",
      "blobGasUsed": "0x9c40",
      "from": "0xecf9541c6ff5e8774a6d8f64b57a4be473de49ef",
      "to": "0x9ef3feb3c404651c8d240c529969b99b743de8d0",
      "contractAddress": null
    }
  ],
  "libraries": [],
  "pending": [],
  "returns": {},
  "timestamp": 1781019369941,
  "chain": 5003,
  "commit": "40a181b"
}