{
  "transactions": [
    {
      "hash": "0xb013f8820f473015a449bac87f7ab8d5bae9a4363e4ba703d1bdef5df6bf8826",
      "transactionType": "CREATE",
      "contractName": "MockYieldAdapter",
      "contractAddress": "0x63bad8f71455099ebc7a01743c42f9471301edeb",
      "function": null,
      "arguments": [
        "0xbc17D7F8f265d069781ed765914ED092989d92e7",
        "0x7E4399B91bF6801d7D74E359d162065c88EA9d1B",
        "2000"
      ],
      "transaction": {
        "from": "0x0cded2fda02daaa7108b7bcbc18c9c15a94dcf43",
        "to": null,
        "gas": "0xa9780",
        "value": "0x0",
        "input": "0x60e060405234801561001057600080fd5b50604051610a02380380610a0283398101604081905261002f916100c2565b6001600160a01b0383161580159061004f57506001600160a01b03821615155b61008b5760405162461bcd60e51b81526020600482015260096024820152683d32b9379030b2323960b91b604482015260640160405180910390fd5b6001600160a01b03928316608052911660a05260c0526100fe565b80516001600160a01b03811681146100bd57600080fd5b919050565b6000806000606084860312156100d757600080fd5b6100e0846100a6565b92506100ee602085016100a6565b9150604084015190509250925092565b60805160a05160c05161089061017260003960008181609d0152610593015260008181610175015281816101cb015281816103c5015281816104020152818161046301526104f70152600081816101010152818161019c0152818161026701528181610307015261039b01526108906000f3fe608060405234801561001057600080fd5b50600436106100935760003560e01c8063a5e3875111610066578063a5e387511461014c578063ba5d30781461015f578063c70920bc14610168578063fbfa77cf14610170578063fc0c546a1461019757600080fd5b806325ac1df2146100985780633131fd71146100d257806338d52e0f146100ff5780637d32e79314610139575b600080fd5b6100bf7f000000000000000000000000000000000000000000000000000000000000000081565b6040519081526020015b60405180910390f35b6001546100e69067ffffffffffffffff1681565b60405167ffffffffffffffff90911681526020016100c9565b7f00000000000000000000000000000000000000000000000000000000000000005b6040516001600160a01b0390911681526020016100c9565b6100bf610147366004610711565b6101be565b6100bf61015a366004610711565b610456565b6100bf60005481565b6100bf610551565b6101217f000000000000000000000000000000000000000000000000000000000000000081565b6101217f000000000000000000000000000000000000000000000000000000000000000081565b6000336001600160a01b037f000000000000000000000000000000000000000000000000000000000000000016146102295760405162461bcd60e51b81526020600482015260096024820152681b9bdd081d985d5b1d60ba1b60448201526064015b60405180910390fd5b6000610233610551565b90508083116102425782610244565b805b6040516370a0823160e01b81523060048201529092506000906001600160a01b037f000000000000000000000000000000000000000000000000000000000000000016906370a0823190602401602060405180830381865afa1580156102ae573d6000803e3d6000fd5b505050506040513d601f19601f820116820180604052508101906102d2919061072a565b905060008382101561036c576102e88285610759565b6040516340c10f1960e01b8152306004820152602481018290529091507f00000000000000000000000000000000000000000000000000000000000000006001600160a01b0316906340c10f1990604401600060405180830381600087803b15801561035357600080fd5b505af1158015610367573d6000803e3d6000fd5b505050505b6103768484610759565b6000556001805467ffffffffffffffff19164267ffffffffffffffff161790556103ea7f00000000000000000000000000000000000000000000000000000000000000006001600160a01b03167f0000000000000000000000000000000000000000000000000000000000000000866105ea565b60408051858152602081018390526001600160a01b037f000000000000000000000000000000000000000000000000000000000000000016917f05e80b386259d0dada3903280f3cd1b708a9bf35b91c88225c3906af86117727910160405180910390a2505050919050565b6000336001600160a01b037f000000000000000000000000000000000000000000000000000000000000000016146104bc5760405162461bcd60e51b81526020600482015260096024820152681b9bdd081d985d5b1d60ba1b6044820152606401610220565b816104c5610551565b6104cf9190610772565b6000556001805467ffffffffffffffff19164267ffffffffffffffff161790556040518281527f00000000000000000000000000000000000000000000000000000000000000006001600160a01b0316907fb03c53b28e78a88e31607a27e1fa48234dce28d5d9d9ec7b295aeb02e674a1e19060200160405180910390a25090565b600080546000036105625750600090565b60015460009061057c9067ffffffffffffffff1642610759565b905060006105906301e13380612710610785565b827f00000000000000000000000000000000000000000000000000000000000000006000546105bf9190610785565b6105c99190610785565b6105d3919061079c565b9050806000546105e39190610772565b9250505090565b604080516001600160a01b038416602482015260448082018490528251808303909101815260649091018252602080820180516001600160e01b031663a9059cbb60e01b1790528251808401909352600d83526c39b0b332903a3930b739b332b960991b9083015261065e91859190610663565b505050565b600080846001600160a01b03168460405161067e91906107e2565b6000604051808303816000865af19150503d80600081146106bb576040519150601f19603f3d011682016040523d82523d6000602084013e6106c0565b606091505b50915091508180156106ea5750805115806106ea5750808060200190518101906106ea91906107fe565b83906107095760405162461bcd60e51b81526004016102209190610827565b505050505050565b60006020828403121561072357600080fd5b5035919050565b60006020828403121561073c57600080fd5b5051919050565b634e487b7160e01b600052601160045260246000fd5b8181038181111561076c5761076c610743565b92915050565b8082018082111561076c5761076c610743565b808202811582820484141761076c5761076c610743565b6000826107b957634e487b7160e01b600052601260045260246000fd5b500490565b60005b838110156107d95781810151838201526020016107c1565b50506000910152565b600082516107f48184602087016107be565b9190910192915050565b60006020828403121561081057600080fd5b8151801515811461082057600080fd5b9392505050565b60208152600082518060208401526108468160408501602087016107be565b601f01601f1916919091016040019291505056fea264697066735822122056c81245eb68908fbdf5c3095f72c251fe5ba854a029be866b362ba013dc2d1c64736f6c63430008180033000000000000000000000000bc17d7f8f265d069781ed765914ed092989d92e70000000000000000000000007e4399b91bf6801d7d74e359d162065c88ea9d1b00000000000000000000000000000000000000000000000000000000000007d0",
        "nonce": "0xb1",
        "chainId": "0x138b"
      },
      "additionalContracts": [],
      "isFixedGasLimit": false
    },
    {
      "hash": "0xedef4cb1afc0b7e70041573580ca09af5c08138c6e763839584ba1eb42a67585",
      "transactionType": "CALL",
      "contractName": null,
      "contractAddress": "0xc1ed73d6707701561df96abbbc37fc7e81f9cc36",
      "function": "approveAdapter(address)",
      "arguments": [
        "0x63baD8F71455099eBC7a01743C42f9471301edEb"
      ],
      "transaction": {
        "from": "0x0cded2fda02daaa7108b7bcbc18c9c15a94dcf43",
        "to": "0xc1ed73d6707701561df96abbbc37fc7e81f9cc36",
        "gas": "0x11d4a",
        "value": "0x0",
        "input": "0xc0e2ffc400000000000000000000000063bad8f71455099ebc7a01743c42f9471301edeb",
        "nonce": "0xb2",
        "chainId": "0x138b"
      },
      "additionalContracts": [],
      "isFixedGasLimit": false
    },
    {
      "hash": "0x80b4472075c2b1ea52aa89db94f304f9b456319dfaa00f1bcfd560d2b2048283",
      "transactionType": "CALL",
      "contractName": null,
      "contractAddress": "0x7e4399b91bf6801d7d74e359d162065c88ea9d1b",
      "function": "approveStrategy(address)",
      "arguments": [
        "0x63baD8F71455099eBC7a01743C42f9471301edEb"
      ],
      "transaction": {
        "from": "0x0cded2fda02daaa7108b7bcbc18c9c15a94dcf43",
        "to": "0x7e4399b91bf6801d7d74e359d162065c88ea9d1b",
        "gas": "0x1578f",
        "value": "0x0",
        "input": "0x3b8ae39700000000000000000000000063bad8f71455099ebc7a01743c42f9471301edeb",
        "nonce": "0xb3",
        "chainId": "0x138b"
      },
      "additionalContracts": [],
      "isFixedGasLimit": false
    },
    {
      "hash": "0x3392cfa2de0319329dd37d4606270a8893ef8bf81c0aab7a85d036a96ce769f4",
      "transactionType": "CALL",
      "contractName": null,
      "contractAddress": "0x7e4399b91bf6801d7d74e359d162065c88ea9d1b",
      "function": "deployToStrategy(address,uint256)",
      "arguments": [
        "0x63baD8F71455099eBC7a01743C42f9471301edEb",
        "27315789473684210526"
      ],
      "transaction": {
        "from": "0x0cded2fda02daaa7108b7bcbc18c9c15a94dcf43",
        "to": "0x7e4399b91bf6801d7d74e359d162065c88ea9d1b",
        "gas": "0x327fe",
        "value": "0x0",
        "input": "0xf6c00db900000000000000000000000063bad8f71455099ebc7a01743c42f9471301edeb0000000000000000000000000000000000000000000000017b152dcd124d435e",
        "nonce": "0xb4",
        "chainId": "0x138b"
      },
      "additionalContracts": [],
      "isFixedGasLimit": false
    },
    {
      "hash": "0x241ad5db1911e9460642d9e5fc3638108ed107e4fbc21069488f6b009ce440f8",
      "transactionType": "CREATE",
      "contractName": "ReputationBond",
      "contractAddress": "0xef2f3602d5fe04487a971e5d749dac7343b8f895",
      "function": null,
      "arguments": [
        "0xbc17D7F8f265d069781ed765914ED092989d92e7",
        "0x4eCE1853623CA801536d319cB9ddE454f5dA6dC7",
        "0x0cDed2Fda02DAAA7108b7BcBC18C9c15A94dCf43",
        "5000000000000000000",
        "10000000000000000000",
        "86400"
      ],
      "transaction": {
        "from": "0x0cded2fda02daaa7108b7bcbc18c9c15a94dcf43",
        "to": null,
        "gas": "0x19872e",
        "value": "0x0",
        "input": "0x6101206040523480156200001257600080fd5b506040516200183e3803806200183e833981016040819052620000359162000174565b6001600160a01b038616158015906200005657506001600160a01b03851615155b80156200006b57506001600160a01b03841615155b620000a95760405162461bcd60e51b81526020600482015260096024820152683d32b9379030b2323960b91b60448201526064015b60405180910390fd5b600083118015620000ba5750600082115b8015620000d057506000816001600160401b0316115b6200010b5760405162461bcd60e51b815260206004820152600a6024820152697a65726f20706172616d60b01b6044820152606401620000a0565b6001600160a01b0395861660805293851660a052600080546001600160a01b031916939095169290921790935560c09290925260e0919091526001600160401b031661010052620001f4565b80516001600160a01b03811681146200016f57600080fd5b919050565b60008060008060008060c087890312156200018e57600080fd5b620001998762000157565b9550620001a96020880162000157565b9450620001b96040880162000157565b6060880151608089015160a08a015192965090945092506001600160401b0381168114620001e657600080fd5b809150509295509295509295565b60805160a05160c05160e0516101005161159c620002a2600039600081816101350152610fed0152600081816102c1015281816107e2015281816108080152610d9701526000818161026c01528181610f7d01528181610fbb015261110e01526000818161018d0152818161054601528181610a290152610e4e0152600081816101df015281816104a701528181610640015281816108af01528181610ba90152610f59015261159c6000f3fe608060405234801561001057600080fd5b50600436106101165760003560e01c8063571dc452116100a25780638802834e116100715780638802834e146102bc578063a28889e1146102e3578063c60df258146102eb578063f3eca9f51461030b578063fe25e00a1461031e57600080fd5b8063571dc452146102675780636ffcdfc01461028e5780637cc3beb2146102a157806385687423146102a957600080fd5b806334b25ee2116100e957806334b25ee2146101c757806338d52e0f146101da5780634857f039146102015780634dd3b23a1461022f578063564a565d1461024257600080fd5b806305d188d51461011b578063117f5f9214610130578063184fed04146101755780632c159a1a14610188575b600080fd5b61012e61012936600461130f565b610331565b005b6101577f000000000000000000000000000000000000000000000000000000000000000081565b60405167ffffffffffffffff90911681526020015b60405180910390f35b61012e610183366004611328565b610525565b6101af7f000000000000000000000000000000000000000000000000000000000000000081565b6040516001600160a01b03909116815260200161016c565b61012e6101d536600461135b565b6106da565b6101af7f000000000000000000000000000000000000000000000000000000000000000081565b61022161020f36600461130f565b60036020526000908152604090205481565b60405190815260200161016c565b6001546101af906001600160a01b031681565b61025561025036600461130f565b6109a6565b60405161016c969594939291906113a1565b6102217f000000000000000000000000000000000000000000000000000000000000000081565b61012e61029c366004611328565b610a08565b61012e610c16565b61012e6102b7366004611415565b610caf565b6102217f000000000000000000000000000000000000000000000000000000000000000081565b600454610221565b6102216102f936600461130f565b60026020526000908152604090205481565b610221610319366004611328565b610d86565b6000546101af906001600160a01b031681565b60006004828154811061034657610346611439565b60009182526020909120600590910201905060016003820154600160401b900460ff16600481111561037a5761037a61138b565b146103b75760405162461bcd60e51b81526020600482015260086024820152673737ba1037b832b760c11b60448201526064015b60405180910390fd5b600381015467ffffffffffffffff1642116104025760405162461bcd60e51b815260206004820152600b60248201526a3bb4b73237bb9037b832b760a91b60448201526064016103ae565b60018101546001600160a01b0316331461044f5760405162461bcd60e51b815260206004820152600e60248201526d3737ba1031b430b63632b733b2b960911b60448201526064016103ae565b80546000908152600360205260408120805460019290610470908490611465565b909155505060038101805460ff60401b191668040000000000000000179055600181015460028201546104d1916001600160a01b037f0000000000000000000000000000000000000000000000000000000000000000811692911690611167565b60018101546002820154604080516001600160a01b039093168352602083019190915283917f7ec7107717290205d2119c068c2ae799b536f33fa185b6a2838cf30680a9f001910160405180910390a25050565b6040516233950960e01b815260048101839052829033906001600160a01b037f000000000000000000000000000000000000000000000000000000000000000016906233950990602401602060405180830381865afa15801561058c573d6000803e3d6000fd5b505050506040513d601f19601f820116820180604052508101906105b0919061147e565b6001600160a01b0316146105f55760405162461bcd60e51b815260206004820152600c60248201526b3737ba1037b832b930ba37b960a11b60448201526064016103ae565b600082116106335760405162461bcd60e51b815260206004820152600b60248201526a1e995c9bc8185b5bdd5b9d60aa1b60448201526064016103ae565b6106686001600160a01b037f0000000000000000000000000000000000000000000000000000000000000000163330856111db565b6000838152600260205260408120805484929061068690849061149b565b90915550506000838152600260209081526040918290205482518581529182015284917f76ad44f945c63aa770c89c79a23aa8dce0ef8f2e8a23149993aeedecf9a1276191015b60405180910390a2505050565b6000546001600160a01b031633146107225760405162461bcd60e51b815260206004820152600b60248201526a3737ba1030b93134ba32b960a91b60448201526064016103ae565b60006004838154811061073757610737611439565b60009182526020909120600590910201905060016003820154600160401b900460ff16600481111561076b5761076b61138b565b146107a35760405162461bcd60e51b81526020600482015260086024820152673737ba1037b832b760c11b60448201526064016103ae565b805460009081526003602052604081208054600192906107c4908490611465565b9091555050811561091a5780546000908152600260205260408120547f00000000000000000000000000000000000000000000000000000000000000001161082c577f000000000000000000000000000000000000000000000000000000000000000061083e565b81546000908152600260205260409020545b8254600090815260026020526040812080549293508392909190610863908490611465565b909155505060038201805460ff60401b191668020000000000000000179055600182015460028301546108d6916001600160a01b0316906108a590849061149b565b6001600160a01b037f0000000000000000000000000000000000000000000000000000000000000000169190611167565b815460408051600181526020810184905286917f167adf75c182aae5ba9b781f3d20b596ddb0c40d52ec12a7cfae091e5c8dc52f910160405180910390a350505050565b806002015460026000836000015481526020019081526020016000206000828254610945919061149b565b909155505060038101805460ff60401b19166803000000000000000017905580546040805160008082526020820152815186927f167adf75c182aae5ba9b781f3d20b596ddb0c40d52ec12a7cfae091e5c8dc52f928290030190a35b505050565b600481815481106109b657600080fd5b6000918252602090912060059091020180546001820154600283015460038401546004909401549294506001600160a01b0390911692909167ffffffffffffffff821691600160401b900460ff169086565b6040516233950960e01b815260048101839052829033906001600160a01b037f000000000000000000000000000000000000000000000000000000000000000016906233950990602401602060405180830381865afa158015610a6f573d6000803e3d6000fd5b505050506040513d601f19601f82011682018060405250810190610a93919061147e565b6001600160a01b031614610ad85760405162461bcd60e51b815260206004820152600c60248201526b3737ba1037b832b930ba37b960a11b60448201526064016103ae565b60008381526003602052604090205415610b255760405162461bcd60e51b815260206004820152600e60248201526d616374697665206469737075746560901b60448201526064016103ae565b600082118015610b4357506000838152600260205260409020548211155b610b785760405162461bcd60e51b8152602060048201526006602482015265185b5bdd5b9d60d21b60448201526064016103ae565b60008381526002602052604081208054849290610b96908490611465565b90915550610bd090506001600160a01b037f0000000000000000000000000000000000000000000000000000000000000000163384611167565b6000838152600260209081526040918290205482518581529182015284917f1e4e763fd42b488021e03e8687ef9d775abb9718a58f315086719438b887e99a91016106cd565b6001546001600160a01b03163314610c5e5760405162461bcd60e51b815260206004820152600b60248201526a6e6f742070656e64696e6760a81b60448201526064016103ae565b60018054600080546001600160a01b03199081166001600160a01b03841617825590911690915560405133917f62c4ec66f9e523bbd2e3d6b99abedf26e34538320986c3ab7337183b8fdf385b91a2565b6000546001600160a01b03163314610cf75760405162461bcd60e51b815260206004820152600b60248201526a3737ba1030b93134ba32b960a91b60448201526064016103ae565b6001600160a01b038116610d3c5760405162461bcd60e51b815260206004820152600c60248201526b3d32b9379030b93134ba32b960a11b60448201526064016103ae565b600180546001600160a01b0319166001600160a01b0383169081179091556040517f1370c12d274aa60df301081dc51c45cb460f561f77d61e63386a09c81f8bec7390600090a250565b6000828152600260205260408120547f00000000000000000000000000000000000000000000000000000000000000001115610df25760405162461bcd60e51b815260206004820152600b60248201526a1d5b99195c989bdb99195960aa1b60448201526064016103ae565b81610e2f5760405162461bcd60e51b815260206004820152600d60248201526c7a65726f2065766964656e636560981b60448201526064016103ae565b6040516233950960e01b81526004810184905233906001600160a01b037f000000000000000000000000000000000000000000000000000000000000000016906233950990602401602060405180830381865afa158015610e94573d6000803e3d6000fd5b505050506040513d601f19601f82011682018060405250810190610eb8919061147e565b6001600160a01b031603610eff5760405162461bcd60e51b815260206004820152600e60248201526d73656c66206368616c6c656e676560901b60448201526064016103ae565b60008381526003602052604090205415610f4c5760405162461bcd60e51b815260206004820152600e60248201526d646973707574652061637469766560901b60448201526064016103ae565b610fa16001600160a01b037f00000000000000000000000000000000000000000000000000000000000000001633307f00000000000000000000000000000000000000000000000000000000000000006111db565b50600480546040805160c0810182528581523360208201527f000000000000000000000000000000000000000000000000000000000000000091810191909152909190606081016110127f0000000000000000000000000000000000000000000000000000000000000000426114ae565b67ffffffffffffffff16815260200160018152602090810185905282546001818101855560009485529382902083516005909202019081559082015192810180546001600160a01b039094166001600160a01b03199094169390931790925560408101516002830155606081015160038301805467ffffffffffffffff90921667ffffffffffffffff1983168117825560808401519394939268ffffffffffffffffff191617600160401b8360048111156110cf576110cf61138b565b021790555060a09190910151600490910155600083815260036020526040812080546001929061110090849061149b565b9091555050604080513381527f00000000000000000000000000000000000000000000000000000000000000006020820152849183917f5edb9440eb12cb45b792e18cd6b9db37b1c5e7969158511c5fe49b6c7ad529e7910160405180910390a392915050565b604080516001600160a01b038416602482015260448082018490528251808303909101815260649091018252602080820180516001600160e01b031663a9059cbb60e01b1790528251808401909352600d83526c39b0b332903a3930b739b332b960991b908301526109a191859190611261565b604080516001600160a01b0385811660248301528416604482015260648082018490528251808303909101815260849091018252602080820180516001600160e01b03166323b872dd60e01b1790528251808401909352601183527073616665207472616e7366657246726f6d60781b9083015261125b91869190611261565b50505050565b600080846001600160a01b03168460405161127c91906114fa565b6000604051808303816000865af19150503d80600081146112b9576040519150601f19603f3d011682016040523d82523d6000602084013e6112be565b606091505b50915091508180156112e85750805115806112e85750808060200190518101906112e89190611516565b83906113075760405162461bcd60e51b81526004016103ae9190611533565b505050505050565b60006020828403121561132157600080fd5b5035919050565b6000806040838503121561133b57600080fd5b50508035926020909101359150565b801515811461135857600080fd5b50565b6000806040838503121561136e57600080fd5b8235915060208301356113808161134a565b809150509250929050565b634e487b7160e01b600052602160045260246000fd5b8681526001600160a01b03861660208201526040810185905267ffffffffffffffff8416606082015260c08101600584106113ec57634e487b7160e01b600052602160045260246000fd5b608082019390935260a00152949350505050565b6001600160a01b038116811461135857600080fd5b60006020828403121561142757600080fd5b813561143281611400565b9392505050565b634e487b7160e01b600052603260045260246000fd5b634e487b7160e01b600052601160045260246000fd5b818103818111156114785761147861144f565b92915050565b60006020828403121561149057600080fd5b815161143281611400565b808201808211156114785761147861144f565b67ffffffffffffffff8181168382160190808211156114cf576114cf61144f565b5092915050565b60005b838110156114f15781810151838201526020016114d9565b50506000910152565b6000825161150c8184602087016114d6565b9190910192915050565b60006020828403121561152857600080fd5b81516114328161134a565b60208152600082518060208401526115528160408501602087016114d6565b601f01601f1916919091016040019291505056fea26469706673582212208a9331a4328cb60169d98b413b1a769dfc3a468dea7ffc3f517e802c151b802864736f6c63430008180033000000000000000000000000bc17d7f8f265d069781ed765914ed092989d92e70000000000000000000000004ece1853623ca801536d319cb9dde454f5da6dc70000000000000000000000000cded2fda02daaa7108b7bcbc18c9c15a94dcf430000000000000000000000000000000000000000000000004563918244f400000000000000000000000000000000000000000000000000008ac7230489e800000000000000000000000000000000000000000000000000000000000000015180",
        "nonce": "0xb5",
        "chainId": "0x138b"
      },
      "additionalContracts": [],
      "isFixedGasLimit": false
    },
    {
      "hash": "0xabcabfd5b19e6e0cae0cc05a3e7de7fe3c6a708428f8959dc5c289f8d22498cb",
      "transactionType": "CALL",
      "contractName": null,
      "contractAddress": "0xbc17d7f8f265d069781ed765914ed092989d92e7",
      "function": "mint(address,uint256)",
      "arguments": [
        "0x0cDed2Fda02DAAA7108b7BcBC18C9c15A94dCf43",
        "250000000000000000000"
      ],
      "transaction": {
        "from": "0x0cded2fda02daaa7108b7bcbc18c9c15a94dcf43",
        "to": "0xbc17d7f8f265d069781ed765914ed092989d92e7",
        "gas": "0xaeff",
        "value": "0x0",
        "input": "0x40c10f190000000000000000000000000cded2fda02daaa7108b7bcbc18c9c15a94dcf4300000000000000000000000000000000000000000000000d8d726b7177a80000",
        "nonce": "0xb6",
        "chainId": "0x138b"
      },
      "additionalContracts": [],
      "isFixedGasLimit": false
    },
    {
      "hash": "0x5da71cc5211f73c3ce7771a4bc79affa94dfc0376d46a315d0f57e790d800cc3",
      "transactionType": "CALL",
      "contractName": null,
      "contractAddress": "0xbc17d7f8f265d069781ed765914ed092989d92e7",
      "function": "approve(address,uint256)",
      "arguments": [
        "0xeF2F3602d5fe04487a971e5d749DAC7343b8F895",
        "250000000000000000000"
      ],
      "transaction": {
        "from": "0x0cded2fda02daaa7108b7bcbc18c9c15a94dcf43",
        "to": "0xbc17d7f8f265d069781ed765914ed092989d92e7",
        "gas": "0xec61",
        "value": "0x0",
        "input": "0x095ea7b3000000000000000000000000ef2f3602d5fe04487a971e5d749dac7343b8f89500000000000000000000000000000000000000000000000d8d726b7177a80000",
        "nonce": "0xb7",
        "chainId": "0x138b"
      },
      "additionalContracts": [],
      "isFixedGasLimit": false
    },
    {
      "hash": "0xa4bb17f3d206dd234e70b55dacce8beb5909b5bba8c375cf23d2caa4b868311d",
      "transactionType": "CALL",
      "contractName": "ReputationBond",
      "contractAddress": "0xef2f3602d5fe04487a971e5d749dac7343b8f895",
      "function": "postBond(uint256,uint256)",
      "arguments": [
        "1",
        "50000000000000000000"
      ],
      "transaction": {
        "from": "0x0cded2fda02daaa7108b7bcbc18c9c15a94dcf43",
        "to": "0xef2f3602d5fe04487a971e5d749dac7343b8f895",
        "gas": "0x719e",
        "value": "0x0",
        "input": "0x184fed040000000000000000000000000000000000000000000000000000000000000001000000000000000000000000000000000000000000000002b5e3af16b1880000",
        "nonce": "0xb8",
        "chainId": "0x138b"
      },
      "additionalContracts": [],
      "isFixedGasLimit": false
    },
    {
      "hash": "0x42f8e8a57654c38467aab35d747f2189cd8cc9acbeea8b4da622e723c71b9c93",
      "transactionType": "CALL",
      "contractName": "ReputationBond",
      "contractAddress": "0xef2f3602d5fe04487a971e5d749dac7343b8f895",
      "function": "postBond(uint256,uint256)",
      "arguments": [
        "2",
        "50000000000000000000"
      ],
      "transaction": {
        "from": "0x0cded2fda02daaa7108b7bcbc18c9c15a94dcf43",
        "to": "0xef2f3602d5fe04487a971e5d749dac7343b8f895",
        "gas": "0x719e",
        "value": "0x0",
        "input": "0x184fed040000000000000000000000000000000000000000000000000000000000000002000000000000000000000000000000000000000000000002b5e3af16b1880000",
        "nonce": "0xb9",
        "chainId": "0x138b"
      },
      "additionalContracts": [],
      "isFixedGasLimit": false
    },
    {
      "hash": "0xe69902977d88bde041f6b865653617e3daa8f255a38324d034b125e5349e033b",
      "transactionType": "CALL",
      "contractName": "ReputationBond",
      "contractAddress": "0xef2f3602d5fe04487a971e5d749dac7343b8f895",
      "function": "postBond(uint256,uint256)",
      "arguments": [
        "3",
        "50000000000000000000"
      ],
      "transaction": {
        "from": "0x0cded2fda02daaa7108b7bcbc18c9c15a94dcf43",
        "to": "0xef2f3602d5fe04487a971e5d749dac7343b8f895",
        "gas": "0x719e",
        "value": "0x0",
        "input": "0x184fed040000000000000000000000000000000000000000000000000000000000000003000000000000000000000000000000000000000000000002b5e3af16b1880000",
        "nonce": "0xba",
        "chainId": "0x138b"
      },
      "additionalContracts": [],
      "isFixedGasLimit": false
    },
    {
      "hash": "0xa1aa074eb3f199dbe9d90c5a990cc90c9c314fe0bffc7e3f2cd47fbe67046f15",
      "transactionType": "CALL",
      "contractName": "ReputationBond",
      "contractAddress": "0xef2f3602d5fe04487a971e5d749dac7343b8f895",
      "function": "postBond(uint256,uint256)",
      "arguments": [
        "4",
        "50000000000000000000"
      ],
      "transaction": {
        "from": "0x0cded2fda02daaa7108b7bcbc18c9c15a94dcf43",
        "to": "0xef2f3602d5fe04487a971e5d749dac7343b8f895",
        "gas": "0x719e",
        "value": "0x0",
        "input": "0x184fed040000000000000000000000000000000000000000000000000000000000000004000000000000000000000000000000000000000000000002b5e3af16b1880000",
        "nonce": "0xbb",
        "chainId": "0x138b"
      },
      "additionalContracts": [],
      "isFixedGasLimit": false
    },
    {
      "hash": "0x0b257e25d475a07742240b0a86abc68449aedb42f6d392791867355551de39bf",
      "transactionType": "CALL",
      "contractName": "ReputationBond",
      "contractAddress": "0xef2f3602d5fe04487a971e5d749dac7343b8f895",
      "function": "postBond(uint256,uint256)",
      "arguments": [
        "5",
        "50000000000000000000"
      ],
      "transaction": {
        "from": "0x0cded2fda02daaa7108b7bcbc18c9c15a94dcf43",
        "to": "0xef2f3602d5fe04487a971e5d749dac7343b8f895",
        "gas": "0x719e",
        "value": "0x0",
        "input": "0x184fed040000000000000000000000000000000000000000000000000000000000000005000000000000000000000000000000000000000000000002b5e3af16b1880000",
        "nonce": "0xbc",
        "chainId": "0x138b"
      },
      "additionalContracts": [],
      "isFixedGasLimit": false
    },
    {
      "hash": "0x0b4a64defa33242d91a0a7428678a09c6baadee096f779b3bee6a7abc0619c90",
      "transactionType": "CALL",
      "contractName": null,
      "contractAddress": "0xc10eccc78492395f12a8455c8a13471990c53047",
      "function": "setReputationBond(address,uint256)",
      "arguments": [
        "0xeF2F3602d5fe04487a971e5d749DAC7343b8F895",
        "10000000000000000000"
      ],
      "transaction": {
        "from": "0x0cded2fda02daaa7108b7bcbc18c9c15a94dcf43",
        "to": "0xc10eccc78492395f12a8455c8a13471990c53047",
        "gas": "0x1668a",
        "value": "0x0",
        "input": "0x6881e9e4000000000000000000000000ef2f3602d5fe04487a971e5d749dac7343b8f8950000000000000000000000000000000000000000000000008ac7230489e80000",
        "nonce": "0xbd",
        "chainId": "0x138b"
      },
      "additionalContracts": [],
      "isFixedGasLimit": false
    },
    {
      "hash": "0xe5951e05c35be616f604e081a8fbd1e90dc5492dc1cdb77f01afda10f6f859e4",
      "transactionType": "CREATE",
      "contractName": "Seasons",
      "contractAddress": "0xbf8f5e4434f4467cd1d9e10ea5c58fdcf67e5a80",
      "function": null,
      "arguments": [
        "0x4eCE1853623CA801536d319cB9ddE454f5dA6dC7"
      ],
      "transaction": {
        "from": "0x0cded2fda02daaa7108b7bcbc18c9c15a94dcf43",
        "to": null,
        "gas": "0x136c2a",
        "value": "0x0",
        "input": "0x60a060405234801561001057600080fd5b5060405161112338038061112383398101604081905261002f91610098565b6001600160a01b0381166100755760405162461bcd60e51b81526020600482015260096024820152683d32b9379030b2323960b91b604482015260640160405180910390fd5b6001600160a01b0316608052600080546001600160a01b031916331790556100c8565b6000602082840312156100aa57600080fd5b81516001600160a01b03811681146100c157600080fd5b9392505050565b6080516110246100ff600039600081816101a0015281816104040152818161084d015281816109c80152610ae501526110246000f3fe608060405234801561001057600080fd5b50600436106100f55760003560e01c80635072900e11610097578063944781b011610066578063944781b014610299578063c42cf535146102ac578063e7b4e5ab146102bf578063f5d709a1146102df57600080fd5b80635072900e1461021557806350ad1156146102285780635e891ce614610266578063715f8fe81461029157600080fd5b80632a3a6bc6116100d35780632a3a6bc6146101605780632c159a1a1461019b57806330458327146101c257806338f15fdf146101ed57600080fd5b806305261aea146100fa57806305411bd91461010f5780630c340a2414610135575b600080fd5b61010d610108366004610d7e565b61031b565b005b61012261011d366004610d97565b610539565b6040519081526020015b60405180910390f35b600054610148906001600160a01b031681565b6040516001600160a01b03909116815260200161012c565b61018e61016e366004610dc8565b600460209081526000928352604080842090915290825290205460ff1681565b60405161012c9190610e22565b6101487f000000000000000000000000000000000000000000000000000000000000000081565b6101226101d0366004610dc8565b600660209081526000928352604080842090915290825290205481565b6102006101fb366004610e44565b6106c8565b6040805192835260208301919091520161012c565b610122610223366004610dc8565b61078f565b610256610236366004610dc8565b600360209081526000928352604080842090915290825290205460ff1681565b604051901515815260200161012c565b610122610274366004610dc8565b600560209081526000928352604080842090915290825290205481565b600154610122565b61010d6102a7366004610e70565b6108f1565b61010d6102ba366004610ebd565b610c30565b6102d26102cd366004610d7e565b610cdc565b60405161012c9190610eda565b6102f26102ed366004610d7e565b610d3e565b6040805167ffffffffffffffff948516815293909216602084015215159082015260600161012c565b60006001828154811061033057610330610f1e565b60009182526020909120018054909150600160801b900460ff16156103885760405162461bcd60e51b8152602060048201526009602482015268199a5b985b1a5e995960ba1b60448201526064015b60405180910390fd5b8054600160401b900467ffffffffffffffff164210156103d65760405162461bcd60e51b81526020600482015260096024820152681b9bdd08195b99195960ba1b604482015260640161037f565b805460ff60801b1916600160801b1781556000828152600260205260408120905b81548110156104fc5760007f00000000000000000000000000000000000000000000000000000000000000006001600160a01b031663aee1446084848154811061044357610443610f1e565b90600052602060002001546040518263ffffffff1660e01b815260040161046c91815260200190565b6040805180830381865afa158015610488573d6000803e3d6000fd5b505050506040513d601f19601f820116820180604052508101906104ac9190610f34565b509050806006600087815260200190815260200160002060008585815481106104d7576104d7610f1e565b60009182526020808320909101548352820192909252604001902055506001016103f7565b50805460405190815283907faa63f771f1d5218666dcb81933d09fce831a34e0132b5610aac03649da496b2a9060200160405180910390a2505050565b600080546001600160a01b031633146105835760405162461bcd60e51b815260206004820152600c60248201526b3737ba1033b7bb32b93737b960a11b604482015260640161037f565b60008267ffffffffffffffff16116105cd5760405162461bcd60e51b815260206004820152600d60248201526c3d32b93790323ab930ba34b7b760991b604482015260640161037f565b506001805460408051606081019091524267ffffffffffffffff81168252919290602081016105fc8685610f6e565b67ffffffffffffffff9081168252600060209283018190528454600181018655948152829020835194018054928401516040909401511515600160801b0260ff60801b19948316600160401b026fffffffffffffffffffffffffffffffff1990941695909216949094179190911791909116179055817f5fe8d3fd1b25a4a6c091c65dbdc8e1e44fd2574a5b051f88014277834c3628918261069e8682610f6e565b6040805167ffffffffffffffff93841681529290911660208301520160405180910390a250919050565b6000828152600260205260408120819081805b82548110156107855760008382815481106106f8576106f8610f1e565b9060005260206000200154905086600181111561071757610717610dea565b600089815260046020908152604080832085845290915290205460ff16600181111561074557610745610dea565b14610750575061077d565b600061075c898361078f565b905083158061076a57508581135b1561077a57600193508196508095505b50505b6001016106db565b5050509250929050565b600082815260036020908152604080832084845290915281205460ff166107e75760405162461bcd60e51b815260206004820152600c60248201526b1b9bdd08195b9c9bdb1b195960a21b604482015260640161037f565b6000600184815481106107fc576107fc610f1e565b600091825260209091200154600160801b900460ff1615610837575060008381526006602090815260408083208584529091529020546108c3565b6040516305770a2360e51b8152600481018490527f00000000000000000000000000000000000000000000000000000000000000006001600160a01b03169063aee14460906024016040805180830381865afa15801561089b573d6000803e3d6000fd5b505050506040513d601f19601f820116820180604052508101906108bf9190610f34565b5090505b60008481526005602090815260408083208684529091529020546108e79082610f96565b9150505b92915050565b60006001848154811061090657610906610f1e565b60009182526020909120018054909150600160801b900460ff16156109595760405162461bcd60e51b8152602060048201526009602482015268199a5b985b1a5e995960ba1b604482015260640161037f565b8054600160401b900467ffffffffffffffff1642106109a95760405162461bcd60e51b815260206004820152600c60248201526b1cd9585cdbdb88195b99195960a21b604482015260640161037f565b6040516233950960e01b81526004810184905233906001600160a01b037f000000000000000000000000000000000000000000000000000000000000000016906233950990602401602060405180830381865afa158015610a0e573d6000803e3d6000fd5b505050506040513d601f19601f82011682018060405250810190610a329190610fb6565b6001600160a01b031614610a775760405162461bcd60e51b815260206004820152600c60248201526b3737ba1037b832b930ba37b960a11b604482015260640161037f565b600084815260036020908152604080832086845290915290205460ff1615610acc5760405162461bcd60e51b8152602060048201526008602482015267195b9c9bdb1b195960c21b604482015260640161037f565b6040516305770a2360e51b8152600481018490526000907f00000000000000000000000000000000000000000000000000000000000000006001600160a01b03169063aee14460906024016040805180830381865afa158015610b33573d6000803e3d6000fd5b505050506040513d601f19601f82011682018060405250810190610b579190610f34565b50600086815260036020908152604080832088845282528083208054600160ff1991821681179092558a8552600484528285208a865290935292208054939450869390929116908381811115610baf57610baf610dea565b021790555060008581526005602090815260408083208784528252808320849055878352600282528083208054600181018255908452919092200185905551849086907fc802992ebe03a6dbba3e528aaa5a57f3287b985ded510921a6cf6bef0e3e22b790610c219087908690610fd3565b60405180910390a35050505050565b6000546001600160a01b03163314610c795760405162461bcd60e51b815260206004820152600c60248201526b3737ba1033b7bb32b93737b960a11b604482015260640161037f565b6001600160a01b038116610cba5760405162461bcd60e51b81526020600482015260086024820152673d32b9379033b7bb60c11b604482015260640161037f565b600080546001600160a01b0319166001600160a01b0392909216919091179055565b600081815260026020908152604091829020805483518184028101840190945280845260609392830182828015610d3257602002820191906000526020600020905b815481526020019060010190808311610d1e575b50505050509050919050565b60018181548110610d4e57600080fd5b60009182526020909120015467ffffffffffffffff8082169250600160401b82041690600160801b900460ff1683565b600060208284031215610d9057600080fd5b5035919050565b600060208284031215610da957600080fd5b813567ffffffffffffffff81168114610dc157600080fd5b9392505050565b60008060408385031215610ddb57600080fd5b50508035926020909101359150565b634e487b7160e01b600052602160045260246000fd5b60028110610e1e57634e487b7160e01b600052602160045260246000fd5b9052565b602081016108eb8284610e00565b803560028110610e3f57600080fd5b919050565b60008060408385031215610e5757600080fd5b82359150610e6760208401610e30565b90509250929050565b600080600060608486031215610e8557600080fd5b8335925060208401359150610e9c60408501610e30565b90509250925092565b6001600160a01b0381168114610eba57600080fd5b50565b600060208284031215610ecf57600080fd5b8135610dc181610ea5565b6020808252825182820181905260009190848201906040850190845b81811015610f1257835183529284019291840191600101610ef6565b50909695505050505050565b634e487b7160e01b600052603260045260246000fd5b60008060408385031215610f4757600080fd5b505080516020909101519092909150565b634e487b7160e01b600052601160045260246000fd5b67ffffffffffffffff818116838216019080821115610f8f57610f8f610f58565b5092915050565b8181036000831280158383131683831282161715610f8f57610f8f610f58565b600060208284031215610fc857600080fd5b8151610dc181610ea5565b60408101610fe18285610e00565b826020830152939250505056fea264697066735822122011bec60bac434050fc63415fabadc56f4643deb9b77303123f5dcdef555753ab64736f6c634300081800330000000000000000000000004ece1853623ca801536d319cb9dde454f5da6dc7",
        "nonce": "0xbe",
        "chainId": "0x138b"
      },
      "additionalContracts": [],
      "isFixedGasLimit": false
    },
    {
      "hash": "0x6229971609db6537aee2f5b679f0345b5baa42f202e6f9c5fb762accb50b8c62",
      "transactionType": "CALL",
      "contractName": "Seasons",
      "contractAddress": "0xbf8f5e4434f4467cd1d9e10ea5c58fdcf67e5a80",
      "function": "startSeason(uint64)",
      "arguments": [
        "604800"
      ],
      "transaction": {
        "from": "0x0cded2fda02daaa7108b7bcbc18c9c15a94dcf43",
        "to": "0xbf8f5e4434f4467cd1d9e10ea5c58fdcf67e5a80",
        "gas": "0x6e60",
        "value": "0x0",
        "input": "0x05411bd90000000000000000000000000000000000000000000000000000000000093a80",
        "nonce": "0xbf",
        "chainId": "0x138b"
      },
      "additionalContracts": [],
      "isFixedGasLimit": false
    },
    {
      "hash": "0x7325ae205a43c018f7ced45c71f947515e22104fe028ee171e8ffb146ade8997",
      "transactionType": "CALL",
      "contractName": "Seasons",
      "contractAddress": "0xbf8f5e4434f4467cd1d9e10ea5c58fdcf67e5a80",
      "function": "enroll(uint256,uint256,uint8)",
      "arguments": [
        "0",
        "1",
        "0"
      ],
      "transaction": {
        "from": "0x0cded2fda02daaa7108b7bcbc18c9c15a94dcf43",
        "to": "0xbf8f5e4434f4467cd1d9e10ea5c58fdcf67e5a80",
        "gas": "0x722e",
        "value": "0x0",
        "input": "0x944781b0000000000000000000000000000000000000000000000000000000000000000000000000000000000000000000000000000000000000000000000000000000010000000000000000000000000000000000000000000000000000000000000000",
        "nonce": "0xc0",
        "chainId": "0x138b"
      },
      "additionalContracts": [],
      "isFixedGasLimit": false
    },
    {
      "hash": "0x0c410450f0a4778e92fe299192b4b1a9bc39ff39db94fb493a8e246cec8f6cb4",
      "transactionType": "CALL",
      "contractName": "Seasons",
      "contractAddress": "0xbf8f5e4434f4467cd1d9e10ea5c58fdcf67e5a80",
      "function": "enroll(uint256,uint256,uint8)",
      "arguments": [
        "0",
        "2",
        "1"
      ],
      "transaction": {
        "from": "0x0cded2fda02daaa7108b7bcbc18c9c15a94dcf43",
        "to": "0xbf8f5e4434f4467cd1d9e10ea5c58fdcf67e5a80",
        "gas": "0x7255",
        "value": "0x0",
        "input": "0x944781b0000000000000000000000000000000000000000000000000000000000000000000000000000000000000000000000000000000000000000000000000000000020000000000000000000000000000000000000000000000000000000000000001",
        "nonce": "0xc1",
        "chainId": "0x138b"
      },
      "additionalContracts": [],
      "isFixedGasLimit": false
    },
    {
      "hash": "0x1c47acd28dee27b5a7c8cce7a2c201b4d392c6903f25f0709e14b9d0477f413e",
      "transactionType": "CALL",
      "contractName": "Seasons",
      "contractAddress": "0xbf8f5e4434f4467cd1d9e10ea5c58fdcf67e5a80",
      "function": "enroll(uint256,uint256,uint8)",
      "arguments": [
        "0",
        "3",
        "0"
      ],
      "transaction": {
        "from": "0x0cded2fda02daaa7108b7bcbc18c9c15a94dcf43",
        "to": "0xbf8f5e4434f4467cd1d9e10ea5c58fdcf67e5a80",
        "gas": "0x722e",
        "value": "0x0",
        "input": "0x944781b0000000000000000000000000000000000000000000000000000000000000000000000000000000000000000000000000000000000000000000000000000000030000000000000000000000000000000000000000000000000000000000000000",
        "nonce": "0xc2",
        "chainId": "0x138b"
      },
      "additionalContracts": [],
      "isFixedGasLimit": false
    },
    {
      "hash": "0x19574bf46f7b4e87d63d63d331d987c927864941b045ead04cc387193a2edea6",
      "transactionType": "CALL",
      "contractName": "Seasons",
      "contractAddress": "0xbf8f5e4434f4467cd1d9e10ea5c58fdcf67e5a80",
      "function": "enroll(uint256,uint256,uint8)",
      "arguments": [
        "0",
        "4",
        "1"
      ],
      "transaction": {
        "from": "0x0cded2fda02daaa7108b7bcbc18c9c15a94dcf43",
        "to": "0xbf8f5e4434f4467cd1d9e10ea5c58fdcf67e5a80",
        "gas": "0x7255",
        "value": "0x0",
        "input": "0x944781b0000000000000000000000000000000000000000000000000000000000000000000000000000000000000000000000000000000000000000000000000000000040000000000000000000000000000000000000000000000000000000000000001",
        "nonce": "0xc3",
        "chainId": "0x138b"
      },
      "additionalContracts": [],
      "isFixedGasLimit": false
    },
    {
      "hash": "0x08e79e884ebe1981a5ec0f8e0c0a6fdd1f5a6421b2812c71921e4ba4b56b601c",
      "transactionType": "CALL",
      "contractName": "Seasons",
      "contractAddress": "0xbf8f5e4434f4467cd1d9e10ea5c58fdcf67e5a80",
      "function": "enroll(uint256,uint256,uint8)",
      "arguments": [
        "0",
        "5",
        "0"
      ],
      "transaction": {
        "from": "0x0cded2fda02daaa7108b7bcbc18c9c15a94dcf43",
        "to": "0xbf8f5e4434f4467cd1d9e10ea5c58fdcf67e5a80",
        "gas": "0x722e",
        "value": "0x0",
        "input": "0x944781b0000000000000000000000000000000000000000000000000000000000000000000000000000000000000000000000000000000000000000000000000000000050000000000000000000000000000000000000000000000000000000000000000",
        "nonce": "0xc4",
        "chainId": "0x138b"
      },
      "additionalContracts": [],
      "isFixedGasLimit": false
    }
  ],
  "receipts": [
    {
      "type": "0x2",
      "status": "0x1",
      "cumulativeGasUsed": "0x8c5a2",
      "logs": [],
      "logsBloom": "0x00000000000000000000000000000000000000000000000000000000000000000000000000000000000000000000000000000000000000000000000000000000000000000000000000000000000000000000000000000000000000000000000000000000000000000000000000000000000000000000000000000000000000000000000000000000000000000000000000000000000000000000000000000000000000000000000000000000000000000000000000000000000000000000000000000000000000000000000000000000000000000000000000000000000000000000000000000000000000000000000000000000000000000000000000000000",
      "transactionHash": "0xb013f8820f473015a449bac87f7ab8d5bae9a4363e4ba703d1bdef5df6bf8826",
      "transactionIndex": "0x1",
      "blockHash": "0xe7d6f586e9e8706153234154486d774964539c0b2254f0ef79ed7ceb93321830",
      "blockNumber": "0x2599e9b",
      "gasUsed": "0x810d3",
      "effectiveGasPrice": "0xba43cfaa0",
      "blobGasUsed": "0x90ec0",
      "from": "0x0cded2fda02daaa7108b7bcbc18c9c15a94dcf43",
      "to": null,
      "contractAddress": "0x63bad8f71455099ebc7a01743c42f9471301edeb"
    },
    {
      "type": "0x2",
      "status": "0x1",
      "cumulativeGasUsed": "0x177e1",
      "logs": [
        {
          "address": "0xc1ed73d6707701561df96abbbc37fc7e81f9cc36",
          "topics": [
            "0x5f39be1a7faac2c79b5f0468d40abfb19c11674de2b1097369256b8ecbe61e4c",
            "0x00000000000000000000000063bad8f71455099ebc7a01743c42f9471301edeb"
          ],
          "data": "0x",
          "blockHash": "0x25c87cdf188e4c521c5c04abc1c9fad523b58c9bd0474ded855bb66d2b29f39d",
          "blockNumber": "0x2599e9f",
          "blockTimestamp": "0x6a1ec01f",
          "transactionHash": "0xedef4cb1afc0b7e70041573580ca09af5c08138c6e763839584ba1eb42a67585",
          "transactionIndex": "0x1",
          "logIndex": "0x0",
          "removed": false
        }
      ],
      "logsBloom": "0x00000000000000000000000000000000000008000000000000000000000000000000000004000000000000000000000000000000000000000000000000000000001000000000000000000000000000000000000000000040000000000000000000000000000000000000000000000000000000000000000000000000000000000001000002000000000000000000000000000010000040000000000000000008000000000000000000000000000000000000000000000000000000000000000000000000000000000000000000000000000000000000000000000000000000000000000000000000000000000000000000000000000000000000000000000000",
      "transactionHash": "0xedef4cb1afc0b7e70041573580ca09af5c08138c6e763839584ba1eb42a67585",
      "transactionIndex": "0x1",
      "blockHash": "0x25c87cdf188e4c521c5c04abc1c9fad523b58c9bd0474ded855bb66d2b29f39d",
      "blockNumber": "0x2599e9f",
      "gasUsed": "0xc312",
      "effectiveGasPrice": "0xba43cfaa0",
      "blobGasUsed": "0x9c40",
      "from": "0x0cded2fda02daaa7108b7bcbc18c9c15a94dcf43",
      "to": "0xc1ed73d6707701561df96abbbc37fc7e81f9cc36",
      "contractAddress": null
    },
    {
      "type": "0x2",
      "status": "0x1",
      "cumulativeGasUsed": "0x1cb6d",
      "logs": [
        {
          "address": "0x7e4399b91bf6801d7d74e359d162065c88ea9d1b",
          "topics": [
            "0x960dd94cbb79169f09a4e445d58b895df2d9bffa5b31055d0932d801724a20d1",
            "0x00000000000000000000000063bad8f71455099ebc7a01743c42f9471301edeb"
          ],
          "data": "0x",
          "blockHash": "0x61dcf4c560aa1750db5f00628265982e673e1f46ebd7b5c0b3d91bca94320db2",
          "blockNumber": "0x2599ea2",
          "blockTimestamp": "0x6a1ec025",
          "transactionHash": "0x80b4472075c2b1ea52aa89db94f304f9b456319dfaa00f1bcfd560d2b2048283",
          "transactionIndex": "0x1",
          "logIndex": "0x0",
          "removed": false
        }
      ],
      "logsBloom": "0x00000000000000000000000000000000000000000000000000040000000000000000000004000000000000000000000000000000000000000000000000000000000000000000000000000000000000000000000000000040000000000000000000800000000000000000000000000000000000000000000000080000000000002000000000000000000000000000000000000110000000000000000000000000000000000000000000000000000000000000000000000000000000000000000000000000000000000000000000000000000000000000000000000000000000000000000400000000000000000000000000000000000000000000000000000000",
      "transactionHash": "0x80b4472075c2b1ea52aa89db94f304f9b456319dfaa00f1bcfd560d2b2048283",
      "transactionIndex": "0x1",
      "blockHash": "0x61dcf4c560aa1750db5f00628265982e673e1f46ebd7b5c0b3d91bca94320db2",
      "blockNumber": "0x2599ea2",
      "gasUsed": "0xeaea",
      "effectiveGasPrice": "0xba43cfaa0",
      "blobGasUsed": "0x9c40",
      "from": "0x0cded2fda02daaa7108b7bcbc18c9c15a94dcf43",
      "to": "0x7e4399b91bf6801d7d74e359d162065c88ea9d1b",
      "contractAddress": null
    },
    {
      "type": "0x2",
      "status": "0x1",
      "cumulativeGasUsed": "0x7ad28",
      "logs": [
        {
          "address": "0xbc17d7f8f265d069781ed765914ed092989d92e7",
          "topics": [
            "0xddf252ad1be2c89b69c2b068fc378daa952ba7f163c4a11628f55a4df523b3ef",
            "0x0000000000000000000000007e4399b91bf6801d7d74e359d162065c88ea9d1b",
            "0x00000000000000000000000063bad8f71455099ebc7a01743c42f9471301edeb"
          ],
          "data": "0x0000000000000000000000000000000000000000000000017b152dcd124d435e",
          "blockHash": "0x61151107548cc862602749d4e249adffde5173ea44d7f8209f332a83883b0a1b",
          "blockNumber": "0x2599ea5",
          "blockTimestamp": "0x6a1ec02b",
          "transactionHash": "0x3392cfa2de0319329dd37d4606270a8893ef8bf81c0aab7a85d036a96ce769f4",
          "transactionIndex": "0x2",
          "logIndex": "0x2",
          "removed": false
        },
        {
          "address": "0x63bad8f71455099ebc7a01743c42f9471301edeb",
          "topics": [
            "0xb03c53b28e78a88e31607a27e1fa48234dce28d5d9d9ec7b295aeb02e674a1e1",
            "0x0000000000000000000000007e4399b91bf6801d7d74e359d162065c88ea9d1b"
          ],
          "data": "0x0000000000000000000000000000000000000000000000017b152dcd124d435e",
          "blockHash": "0x61151107548cc862602749d4e249adffde5173ea44d7f8209f332a83883b0a1b",
          "blockNumber": "0x2599ea5",
          "blockTimestamp": "0x6a1ec02b",
          "transactionHash": "0x3392cfa2de0319329dd37d4606270a8893ef8bf81c0aab7a85d036a96ce769f4",
          "transactionIndex": "0x2",
          "logIndex": "0x3",
          "removed": false
        },
        {
          "address": "0x7e4399b91bf6801d7d74e359d162065c88ea9d1b",
          "topics": [
            "0x8e4e2e42f895296bb97dbd12f09e75ab7fd4fb1d5faab1defdb6ec3aa543f144",
            "0x00000000000000000000000063bad8f71455099ebc7a01743c42f9471301edeb"
          ],
          "data": "0x0000000000000000000000000000000000000000000000017b152dcd124d435e",
          "blockHash": "0x61151107548cc862602749d4e249adffde5173ea44d7f8209f332a83883b0a1b",
          "blockNumber": "0x2599ea5",
          "blockTimestamp": "0x6a1ec02b",
          "transactionHash": "0x3392cfa2de0319329dd37d4606270a8893ef8bf81c0aab7a85d036a96ce769f4",
          "transactionIndex": "0x2",
          "logIndex": "0x4",
          "removed": false
        }
      ],
      "logsBloom": "0x00000000000000000000000000200000000000000000000000000000000000000000000004000000002000000000000000000000000000000000000000000000000000000000000000008008000000000000010000000040000000000000002000000000082080000000000000000000000000000000000000000010000000002000000000020000000000000000000000000110000000000000000000000000000000008000000020000000000000000000000000000000000000000000000000000002000000100000000000000000100000000000000020000000000000000000000400000000000004000000000000000000000000000000000000000000",
      "transactionHash": "0x3392cfa2de0319329dd37d4606270a8893ef8bf81c0aab7a85d036a96ce769f4",
      "transactionIndex": "0x2",
      "blockHash": "0x61151107548cc862602749d4e249adffde5173ea44d7f8209f332a83883b0a1b",
      "blockNumber": "0x2599ea5",
      "gasUsed": "0x2287a",
      "effectiveGasPrice": "0xba43cfaa0",
      "blobGasUsed": "0x9c40",
      "from": "0x0cded2fda02daaa7108b7bcbc18c9c15a94dcf43",
      "to": "0x7e4399b91bf6801d7d74e359d162065c88ea9d1b",
      "contractAddress": null
    },
    {
      "type": "0x2",
      "status": "0x1",
      "cumulativeGasUsed": "0x145778",
      "logs": [],
      "logsBloom": "0x00000000000000000000000000000000000000000000000000000000000000000000000000000000000000000000000000000000000000000000000000000000000000000000000000000000000000000000000000000000000000000000000000000000000000000000000000000000000000000000000000000000000000000000000000000000000000000000000000000000000000000000000000000000000000000000000000000000000000000000000000000000000000000000000000000000000000000000000000000000000000000000000000000000000000000000000000000000000000000000000000000000000000000000000000000000",
      "transactionHash": "0x241ad5db1911e9460642d9e5fc3638108ed107e4fbc21069488f6b009ce440f8",
      "transactionIndex": "0x1",
      "blockHash": "0x3b74cb3a30f7bf07496ecbc05a427856069a2e7730713a6e3b39f9e65813ec1d",
      "blockNumber": "0x2599ea8",
      "gasUsed": "0x1376f5",
      "effectiveGasPrice": "0xba43cfaa0",
      "blobGasUsed": "0x132bd0",
      "from": "0x0cded2fda02daaa7108b7bcbc18c9c15a94dcf43",
      "to": null,
      "contractAddress": "0xef2f3602d5fe04487a971e5d749dac7343b8f895"
    },
    {
      "type": "0x2",
      "status": "0x1",
      "cumulativeGasUsed": "0x13a06",
      "logs": [
        {
          "address": "0xbc17d7f8f265d069781ed765914ed092989d92e7",
          "topics": [
            "0xddf252ad1be2c89b69c2b068fc378daa952ba7f163c4a11628f55a4df523b3ef",
            "0x0000000000000000000000000000000000000000000000000000000000000000",
            "0x0000000000000000000000000cded2fda02daaa7108b7bcbc18c9c15a94dcf43"
          ],
          "data": "0x00000000000000000000000000000000000000000000000d8d726b7177a80000",
          "blockHash": "0xfb69e9e368ee324019440aeaf2ff430714fa5c1e93e9eb66618f16ca9c73af19",
          "blockNumber": "0x2599eab",
          "blockTimestamp": "0x6a1ec037",
          "transactionHash": "0xabcabfd5b19e6e0cae0cc05a3e7de7fe3c6a708428f8959dc5c289f8d22498cb",
          "transactionIndex": "0x1",
          "logIndex": "0x0",
          "removed": false
        }
      ],
      "logsBloom": "0x00000000000000000000000000000000000000000000000000000000000000000000000000000000002000000000000000000000000000000000000000000000000000000000000000000008000000000000010000000000000000000000000000000000020000000000000000000800000000000000000000000010000000000000000000000000000000000000000000000000000000000000000000000000000000000000000000000000000000000001000000000000000000000001000000001002000000000000000000000000000000000000000000000000000020000000000000000000000004000000000000000000000000000000000000000000",
      "transactionHash": "0xabcabfd5b19e6e0cae0cc05a3e7de7fe3c6a708428f8959dc5c289f8d22498cb",
      "transactionIndex": "0x1",
      "blockHash": "0xfb69e9e368ee324019440aeaf2ff430714fa5c1e93e9eb66618f16ca9c73af19",
      "blockNumber": "0x2599eab",
      "gasUsed": "0x8537",
      "effectiveGasPrice": "0xba43cfaa0",
      "blobGasUsed": "0x9c40",
      "from": "0x0cded2fda02daaa7108b7bcbc18c9c15a94dcf43",
      "to": "0xbc17d7f8f265d069781ed765914ed092989d92e7",
      "contractAddress": null
    },
    {
      "type": "0x2",
      "status": "0x1",
      "cumulativeGasUsed": "0x194da",
      "logs": [
        {
          "address": "0xbc17d7f8f265d069781ed765914ed092989d92e7",
          "topics": [
            "0x8c5be1e5ebec7d5bd14f71427d1e84f3dd0314c0f7b2291e5b200ac8c7c3b925",
            "0x0000000000000000000000000cded2fda02daaa7108b7bcbc18c9c15a94dcf43",
            "0x000000000000000000000000ef2f3602d5fe04487a971e5d749dac7343b8f895"
          ],
          "data": "0x00000000000000000000000000000000000000000000000d8d726b7177a80000",
          "blockHash": "0xc1ccf255f1eb9f88c5ad34528bf13a18343f05ddd333ee7a6c6960edc53ee60c",
          "blockNumber": "0x2599eae",
          "blockTimestamp": "0x6a1ec03d",
          "transactionHash": "0x5da71cc5211f73c3ce7771a4bc79affa94dfc0376d46a315d0f57e790d800cc3",
          "transactionIndex": "0x1",
          "logIndex": "0x0",
          "removed": false
        }
      ],
      "logsBloom": "0x00000000000000000000000000000000000000000000000000000000000000000000000000000000002000000000000100000000000000000000000000200000000000000000000000000000000000000000030000000000000000000000000000000000000000000008000000000000000000000000000000000000000000000000000000000000000000000000000000000000000000000000000000000000020000000000000000000000000000000001000000000000000000000001000000001000000000000000000000000000000000000000000000000000000000000010000000000000000004000000000000000000000000000000000000000000",
      "transactionHash": "0x5da71cc5211f73c3ce7771a4bc79affa94dfc0376d46a315d0f57e790d800cc3",
      "transactionIndex": "0x1",
      "blockHash": "0xc1ccf255f1eb9f88c5ad34528bf13a18343f05ddd333ee7a6c6960edc53ee60c",
      "blockNumber": "0x2599eae",
      "gasUsed": "0xb457",
      "effectiveGasPrice": "0xba43cfaa0",
      "blobGasUsed": "0x9c40",
      "from": "0x0cded2fda02daaa7108b7bcbc18c9c15a94dcf43",
      "to": "0xbc17d7f8f265d069781ed765914ed092989d92e7",
      "contractAddress": null
    },
    {
      "type": "0x2",
      "status": "0x1",
      "cumulativeGasUsed": "0x21683",
      "logs": [
        {
          "address": "0xbc17d7f8f265d069781ed765914ed092989d92e7",
          "topics": [
            "0xddf252ad1be2c89b69c2b068fc378daa952ba7f163c4a11628f55a4df523b3ef",
            "0x0000000000000000000000000cded2fda02daaa7108b7bcbc18c9c15a94dcf43",
            "0x000000000000000000000000ef2f3602d5fe04487a971e5d749dac7343b8f895"
          ],
          "data": "0x000000000000000000000000000000000000000000000002b5e3af16b1880000",
          "blockHash": "0xc9adeea4c5c1498fc874ad72decdc045d0563d4aa275d0b3f2e68ddb08b8a26a",
          "blockNumber": "0x2599eb2",
          "blockTimestamp": "0x6a1ec045",
          "transactionHash": "0xa4bb17f3d206dd234e70b55dacce8beb5909b5bba8c375cf23d2caa4b868311d",
          "transactionIndex": "0x1",
          "logIndex": "0x0",
          "removed": false
        },
        {
          "address": "0xef2f3602d5fe04487a971e5d749dac7343b8f895",
          "topics": [
            "0x76ad44f945c63aa770c89c79a23aa8dce0ef8f2e8a23149993aeedecf9a12761",
            "0x0000000000000000000000000000000000000000000000000000000000000001"
          ],
          "data": "0x000000000000000000000000000000000000000000000002b5e3af16b1880000000000000000000000000000000000000000000000000002b5e3af16b1880000",
          "blockHash": "0xc9adeea4c5c1498fc874ad72decdc045d0563d4aa275d0b3f2e68ddb08b8a26a",
          "blockNumber": "0x2599eb2",
          "blockTimestamp": "0x6a1ec045",
          "transactionHash": "0xa4bb17f3d206dd234e70b55dacce8beb5909b5bba8c375cf23d2caa4b868311d",
          "transactionIndex": "0x1",
          "logIndex": "0x1",
          "removed": false
        }
      ],
      "logsBloom": "0x00000000000000000000000000000000000000000000000000000000000000000000000000000000002000000000000100000008000000000000000000040002000000000000000000000008000000000000030000040000000000000000000000000000000000000008000000000000000000000000000000000010000000000000000000100000000000000000000000000000000000000000000000080000000000000000000000000000000000000009000000000000000000000001000000001802000000000000000000000000000000000000000000000000000040000000000000000000000004000000000000000000000000000000000000000000",
      "transactionHash": "0xa4bb17f3d206dd234e70b55dacce8beb5909b5bba8c375cf23d2caa4b868311d",
      "transactionIndex": "0x1",
      "blockHash": "0xc9adeea4c5c1498fc874ad72decdc045d0563d4aa275d0b3f2e68ddb08b8a26a",
      "blockNumber": "0x2599eb2",
      "gasUsed": "0x161b4",
      "effectiveGasPrice": "0xba43cfaa0",
      "blobGasUsed": "0x9c40",
      "from": "0x0cded2fda02daaa7108b7bcbc18c9c15a94dcf43",
      "to": "0xef2f3602d5fe04487a971e5d749dac7343b8f895",
      "contractAddress": null
    },
    {
      "type": "0x2",
      "status": "0x1",
      "cumulativeGasUsed": "0x3de7a",
      "logs": [
        {
          "address": "0xbc17d7f8f265d069781ed765914ed092989d92e7",
          "topics": [
            "0xddf252ad1be2c89b69c2b068fc378daa952ba7f163c4a11628f55a4df523b3ef",
            "0x0000000000000000000000000cded2fda02daaa7108b7bcbc18c9c15a94dcf43",
            "0x000000000000000000000000ef2f3602d5fe04487a971e5d749dac7343b8f895"
          ],
          "data": "0x000000000000000000000000000000000000000000000002b5e3af16b1880000",
          "blockHash": "0xd66ff6bcea74b722596f195f129fac1346cf5c36f754b5ac7ef8d81ff397df38",
          "blockNumber": "0x2599eb5",
          "blockTimestamp": "0x6a1ec04b",
          "transactionHash": "0x42f8e8a57654c38467aab35d747f2189cd8cc9acbeea8b4da622e723c71b9c93",
          "transactionIndex": "0x2",
          "logIndex": "0x2",
          "removed": false
        },
        {
          "address": "0xef2f3602d5fe04487a971e5d749dac7343b8f895",
          "topics": [
            "0x76ad44f945c63aa770c89c79a23aa8dce0ef8f2e8a23149993aeedecf9a12761",
            "0x0000000000000000000000000000000000000000000000000000000000000002"
          ],
          "data": "0x000000000000000000000000000000000000000000000002b5e3af16b1880000000000000000000000000000000000000000000000000002b5e3af16b1880000",
          "blockHash": "0xd66ff6bcea74b722596f195f129fac1346cf5c36f754b5ac7ef8d81ff397df38",
          "blockNumber": "0x2599eb5",
          "blockTimestamp": "0x6a1ec04b",
          "transactionHash": "0x42f8e8a57654c38467aab35d747f2189cd8cc9acbeea8b4da622e723c71b9c93",
          "transactionIndex": "0x2",
          "logIndex": "0x3",
          "removed": false
        }
      ],
      "logsBloom": "0x04000000000000000000000000000000000000000000000000000000000000000000000000000000002000000000000100000008000000000000000000000002000000000000000000000008000000000000030000000000000000000000000000000000000000000008000000000000000000000000000000000010000000000000000000100000000000000000000000000000000000000000000000080000000000000000000000000100000000000009000000000000000000000001000000001802000000000000000000000000000000000000000000000000000000000000000000000000000004000000000000000000008000000000000000000000",
      "transactionHash": "0x42f8e8a57654c38467aab35d747f2189cd8cc9acbeea8b4da622e723c71b9c93",
      "transactionIndex": "0x2",
      "blockHash": "0xd66ff6bcea74b722596f195f129fac1346cf5c36f754b5ac7ef8d81ff397df38",
      "blockNumber": "0x2599eb5",
      "gasUsed": "0x11ee8",
      "effectiveGasPrice": "0xba43cfaa0",
      "blobGasUsed": "0x9c40",
      "from": "0x0cded2fda02daaa7108b7bcbc18c9c15a94dcf43",
      "to": "0xef2f3602d5fe04487a971e5d749dac7343b8f895",
      "contractAddress": null
    },
    {
      "type": "0x2",
      "status": "0x1",
      "cumulativeGasUsed": "0x75171",
      "logs": [
        {
          "address": "0xbc17d7f8f265d069781ed765914ed092989d92e7",
          "topics": [
            "0xddf252ad1be2c89b69c2b068fc378daa952ba7f163c4a11628f55a4df523b3ef",
            "0x0000000000000000000000000cded2fda02daaa7108b7bcbc18c9c15a94dcf43",
            "0x000000000000000000000000ef2f3602d5fe04487a971e5d749dac7343b8f895"
          ],
          "data": "0x000000000000000000000000000000000000000000000002b5e3af16b1880000",
          "blockHash": "0x778e25d71eded4c20459068d60c80f19cd2a551a18aa005f3268d883214621db",
          "blockNumber": "0x2599eb8",
          "blockTimestamp": "0x6a1ec051",
          "transactionHash": "0xe69902977d88bde041f6b865653617e3daa8f255a38324d034b125e5349e033b",
          "transactionIndex": "0x2",
          "logIndex": "0x4",
          "removed": false
        },
        {
          "address": "0xef2f3602d5fe04487a971e5d749dac7343b8f895",
          "topics": [
            "0x76ad44f945c63aa770c89c79a23aa8dce0ef8f2e8a23149993aeedecf9a12761",
            "0x0000000000000000000000000000000000000000000000000000000000000003"
          ],
          "data": "0x000000000000000000000000000000000000000000000002b5e3af16b1880000000000000000000000000000000000000000000000000002b5e3af16b1880000",
          "blockHash": "0x778e25d71eded4c20459068d60c80f19cd2a551a18aa005f3268d883214621db",
          "blockNumber": "0x2599eb8",
          "blockTimestamp": "0x6a1ec051",
          "transactionHash": "0xe69902977d88bde041f6b865653617e3daa8f255a38324d034b125e5349e033b",
          "transactionIndex": "0x2",
          "logIndex": "0x5",
          "removed": false
        }
      ],
      "logsBloom": "0x00000000000000000000000000000000000000000000000000000000000000000000000000000000002000000000000100000008020000000000000000000002000000000000000000000008000000000000030000000000000000000000000000000000000000000008000000000000000000000000000000000010000000000000000000100000000000000000000000000000000000000000000000080000000000000000000000000000000000000009000000800000000000000001400000001802000000000000000000000000000000000000000000000000000000000000000000000000000004000000000000000000000000000000000000000000",
      "transactionHash": "0xe69902977d88bde041f6b865653617e3daa8f255a38324d034b125e5349e033b",
      "transactionIndex": "0x2",
      "blockHash": "0x778e25d71eded4c20459068d60c80f19cd2a551a18aa005f3268d883214621db",
      "blockNumber": "0x2599eb8",
      "gasUsed": "0x11ee8",
      "effectiveGasPrice": "0xba43cfaa0",
      "blobGasUsed": "0x9c40",
      "from": "0x0cded2fda02daaa7108b7bcbc18c9c15a94dcf43",
      "to": "0xef2f3602d5fe04487a971e5d749dac7343b8f895",
      "contractAddress": null
    },
    {
      "type": "0x2",
      "status": "0x1",
      "cumulativeGasUsed": "0x2b3a1",
      "logs": [
        {
          "address": "0xbc17d7f8f265d069781ed765914ed092989d92e7",
          "topics": [
            "0xddf252ad1be2c89b69c2b068fc378daa952ba7f163c4a11628f55a4df523b3ef",
            "0x0000000000000000000000000cded2fda02daaa7108b7bcbc18c9c15a94dcf43",
            "0x000000000000000000000000ef2f3602d5fe04487a971e5d749dac7343b8f895"
          ],
          "data": "0x000000000000000000000000000000000000000000000002b5e3af16b1880000",
          "blockHash": "0x90809c0dcf7a9eb3eb14815cb53f2e8f6c20b11339c0a54407b61a00cc825a8d",
          "blockNumber": "0x2599ebb",
          "blockTimestamp": "0x6a1ec057",
          "transactionHash": "0xa1aa074eb3f199dbe9d90c5a990cc90c9c314fe0bffc7e3f2cd47fbe67046f15",
          "transactionIndex": "0x2",
          "logIndex": "0x2",
          "removed": false
        },
        {
          "address": "0xef2f3602d5fe04487a971e5d749dac7343b8f895",
          "topics": [
            "0x76ad44f945c63aa770c89c79a23aa8dce0ef8f2e8a23149993aeedecf9a12761",
            "0x0000000000000000000000000000000000000000000000000000000000000004"
          ],
          "data": "0x000000000000000000000000000000000000000000000002b5e3af16b1880000000000000000000000000000000000000000000000000002b5e3af16b1880000",
          "blockHash": "0x90809c0dcf7a9eb3eb14815cb53f2e8f6c20b11339c0a54407b61a00cc825a8d",
          "blockNumber": "0x2599ebb",
          "blockTimestamp": "0x6a1ec057",
          "transactionHash": "0xa1aa074eb3f199dbe9d90c5a990cc90c9c314fe0bffc7e3f2cd47fbe67046f15",
          "transactionIndex": "0x2",
          "logIndex": "0x3",
          "removed": false
        }
      ],
      "logsBloom": "0x00000000000000000000000000000000000000000000000000000000000000000000000000000000002000000000000100000008000000000000000000000002000000000000000000000008000000000000030000000000000000000000000008000000000000000008000000000000000000000000000000000010000000000000000000100000000000000000000000000000000000000000000000080000000000000000000000000000000000000009000000000000002000000001000000001802000000000000000000000000000000008000000000000000000000000000000000000000000004000000000000000000000000000000000000000000",
      "transactionHash": "0xa1aa074eb3f199dbe9d90c5a990cc90c9c314fe0bffc7e3f2cd47fbe67046f15",
      "transactionIndex": "0x2",
      "blockHash": "0x90809c0dcf7a9eb3eb14815cb53f2e8f6c20b11339c0a54407b61a00cc825a8d",
      "blockNumber": "0x2599ebb",
      "gasUsed": "0x11ee8",
      "effectiveGasPrice": "0xba43cfaa0",
      "blobGasUsed": "0x9c40",
      "from": "0x0cded2fda02daaa7108b7bcbc18c9c15a94dcf43",
      "to": "0xef2f3602d5fe04487a971e5d749dac7343b8f895",
      "contractAddress": null
    },
    {
      "type": "0x2",
      "status": "0x1",
      "cumulativeGasUsed": "0x1c0f7",
      "logs": [
        {
          "address": "0xbc17d7f8f265d069781ed765914ed092989d92e7",
          "topics": [
            "0xddf252ad1be2c89b69c2b068fc378daa952ba7f163c4a11628f55a4df523b3ef",
            "0x0000000000000000000000000cded2fda02daaa7108b7bcbc18c9c15a94dcf43",
            "0x000000000000000000000000ef2f3602d5fe04487a971e5d749dac7343b8f895"
          ],
          "data": "0x000000000000000000000000000000000000000000000002b5e3af16b1880000",
          "blockHash": "0x92d76742841303a1b9158083ebda0b516c9a7fb332cb5eb3f2483a943b33947d",
          "blockNumber": "0x2599ebe",
          "blockTimestamp": "0x6a1ec05d",
          "transactionHash": "0x0b257e25d475a07742240b0a86abc68449aedb42f6d392791867355551de39bf",
          "transactionIndex": "0x1",
          "logIndex": "0x0",
          "removed": false
        },
        {
          "address": "0xef2f3602d5fe04487a971e5d749dac7343b8f895",
          "topics": [
            "0x76ad44f945c63aa770c89c79a23aa8dce0ef8f2e8a23149993aeedecf9a12761",
            "0x0000000000000000000000000000000000000000000000000000000000000005"
          ],
          "data": "0x000000000000000000000000000000000000000000000002b5e3af16b1880000000000000000000000000000000000000000000000000002b5e3af16b1880000",
          "blockHash": "0x92d76742841303a1b9158083ebda0b516c9a7fb332cb5eb3f2483a943b33947d",
          "blockNumber": "0x2599ebe",
          "blockTimestamp": "0x6a1ec05d",
          "transactionHash": "0x0b257e25d475a07742240b0a86abc68449aedb42f6d392791867355551de39bf",
          "transactionIndex": "0x1",
          "logIndex": "0x1",
          "removed": false
        }
      ],
      "logsBloom": "0x00000000000000000000000000000000000000000000000000000000000000000000000000000000002000000000000100000008000000000000000000000002000010000000000000000008000000000000030000000000000000000000000000000000000000000008000000000000000000000000000000000010000000000000000000100000000000000000001000000800000000000000000000080000000000000000000000000000000000000009000000000000000000000001000000001802000000000000000000000000000000000000000000000000000000000000000000000000000004000000000000000000000000000000000000000000",
      "transactionHash": "0x0b257e25d475a07742240b0a86abc68449aedb42f6d392791867355551de39bf",
      "transactionIndex": "0x1",
      "blockHash": "0x92d76742841303a1b9158083ebda0b516c9a7fb332cb5eb3f2483a943b33947d",
      "blockNumber": "0x2599ebe",
      "gasUsed": "0x10c28",
      "effectiveGasPrice": "0xba43cfaa0",
      "blobGasUsed": "0x9c40",
      "from": "0x0cded2fda02daaa7108b7bcbc18c9c15a94dcf43",
      "to": "0xef2f3602d5fe04487a971e5d749dac7343b8f895",
      "contractAddress": null
    },
    {
      "type": "0x2",
      "status": "0x1",
      "cumulativeGasUsed": "0x1c540",
      "logs": [
        {
          "address": "0xc10eccc78492395f12a8455c8a13471990c53047",
          "topics": [
            "0x880df386fad2b529bde1b1e57c875092d23d78f34a9545c6b3624b68e06e9a84"
          ],
          "data": "0x000000000000000000000000ef2f3602d5fe04487a971e5d749dac7343b8f8950000000000000000000000000000000000000000000000008ac7230489e80000",
          "blockHash": "0xa1d710a32909c6d334f571bccaeb2351362e63f304149a52064e8064bdc163f3",
          "blockNumber": "0x2599ec1",
          "blockTimestamp": "0x6a1ec063",
          "transactionHash": "0x0b4a64defa33242d91a0a7428678a09c6baadee096f779b3bee6a7abc0619c90",
          "transactionIndex": "0x1",
          "logIndex": "0x0",
          "removed": false
        }
      ],
      "logsBloom": "0x00000000000000000000000000000000000000000000000000000000008000000000000000000000000000400000000000000000000000000000000000000000000000000000000000000000000000000000000000000000000000000000000000000000000000000000000000000000000000000000000000000000008200000000000000000000000000000000000000000000000000000000000000000000000000000000000000000000000000000000000000000001000000000000000000000000000000000000000000000020000000000000000000000000000000000000000000000000000000000000000000000000000000000000000000000000",
      "transactionHash": "0x0b4a64defa33242d91a0a7428678a09c6baadee096f779b3bee6a7abc0619c90",
      "transactionIndex": "0x1",
      "blockHash": "0xa1d710a32909c6d334f571bccaeb2351362e63f304149a52064e8064bdc163f3",
      "blockNumber": "0x2599ec1",
      "gasUsed": "0x11071",
      "effectiveGasPrice": "0xba43cfaa0",
      "blobGasUsed": "0x9c40",
      "from": "0x0cded2fda02daaa7108b7bcbc18c9c15a94dcf43",
      "to": "0xc10eccc78492395f12a8455c8a13471990c53047",
      "contractAddress": null
    },
    {
      "type": "0x2",
      "status": "0x1",
      "cumulativeGasUsed": "0xf82e9",
      "logs": [],
      "logsBloom": "0x00000000000000000000000000000000000000000000000000000000000000000000000000000000000000000000000000000000000000000000000000000000000000000000000000000000000000000000000000000000000000000000000000000000000000000000000000000000000000000000000000000000000000000000000000000000000000000000000000000000000000000000000000000000000000000000000000000000000000000000000000000000000000000000000000000000000000000000000000000000000000000000000000000000000000000000000000000000000000000000000000000000000000000000000000000000",
      "transactionHash": "0xe5951e05c35be616f604e081a8fbd1e90dc5492dc1cdb77f01afda10f6f859e4",
      "transactionIndex": "0x1",
      "blockHash": "0x36ecc80129c02df56f39089cec8102e567d3f98011a988986888ac79f476ca0e",
      "blockNumber": "0x2599ec5",
      "gasUsed": "0xece1a",
      "effectiveGasPrice": "0xba43cfaa0",
      "blobGasUsed": "0xeb280",
      "from": "0x0cded2fda02daaa7108b7bcbc18c9c15a94dcf43",
      "to": null,
      "contractAddress": "0xbf8f5e4434f4467cd1d9e10ea5c58fdcf67e5a80"
    },
    {
      "type": "0x2",
      "status": "0x1",
      "cumulativeGasUsed": "0x1c780",
      "logs": [
        {
          "address": "0xbf8f5e4434f4467cd1d9e10ea5c58fdcf67e5a80",
          "topics": [
            "0x5fe8d3fd1b25a4a6c091c65dbdc8e1e44fd2574a5b051f88014277834c362891",
            "0x0000000000000000000000000000000000000000000000000000000000000000"
          ],
          "data": "0x000000000000000000000000000000000000000000000000000000006a1ec073000000000000000000000000000000000000000000000000000000006a27faf3",
          "blockHash": "0x3f1450803c7bb23b5cb0156091351e3731ec5739c4861dcb6a5cabe7da35d511",
          "blockNumber": "0x2599ec9",
          "blockTimestamp": "0x6a1ec073",
          "transactionHash": "0x6229971609db6537aee2f5b679f0345b5baa42f202e6f9c5fb762accb50b8c62",
          "transactionIndex": "0x1",
          "logIndex": "0x0",
          "removed": false
        }
      ],
      "logsBloom": "0x00000000000000001000000000000000000000000000000000000000000000000000000000000000000000000000000200000000000000000000000000000000000000000000000000080000000000000000000000000000000000000000000000000000020000000000000000000800010000000000000000000000000000000000000000000000000000000000000000000000000000000000000000000000000000000000000000000000000000000000000000000000000000000000000000000008800000000000000000000000000000000000000000000000000020000000000000000000000000000000000000000000000000000000000000000000",
      "transactionHash": "0x6229971609db6537aee2f5b679f0345b5baa42f202e6f9c5fb762accb50b8c62",
      "transactionIndex": "0x1",
      "blockHash": "0x3f1450803c7bb23b5cb0156091351e3731ec5739c4861dcb6a5cabe7da35d511",
      "blockNumber": "0x2599ec9",
      "gasUsed": "0x112b1",
      "effectiveGasPrice": "0xba43cfaa0",
      "blobGasUsed": "0x9c40",
      "from": "0x0cded2fda02daaa7108b7bcbc18c9c15a94dcf43",
      "to": "0xbf8f5e4434f4467cd1d9e10ea5c58fdcf67e5a80",
      "contractAddress": null
    },
    {
      "type": "0x2",
      "status": "0x1",
      "cumulativeGasUsed": "0x2de95",
      "logs": [
        {
          "address": "0xbf8f5e4434f4467cd1d9e10ea5c58fdcf67e5a80",
          "topics": [
            "0xc802992ebe03a6dbba3e528aaa5a57f3287b985ded510921a6cf6bef0e3e22b7",
            "0x0000000000000000000000000000000000000000000000000000000000000000",
            "0x0000000000000000000000000000000000000000000000000000000000000001"
          ],
          "data": "0x00000000000000000000000000000000000000000000000000000000000000000000000000000000000000000000000000000000000000000de0b6b3a7640000",
          "blockHash": "0x5798eef21d241fd44fcad60ddd1191be778e60d247ec6df5d887393470584015",
          "blockNumber": "0x2599ecc",
          "blockTimestamp": "0x6a1ec079",
          "transactionHash": "0x7325ae205a43c018f7ced45c71f947515e22104fe028ee171e8ffb146ade8997",
          "transactionIndex": "0x1",
          "logIndex": "0x0",
          "removed": false
        }
      ],
      "logsBloom": "0x00000000000000000000000000000000000000000000000000000000000000000000200000000000000000000000000200000000000000000000000000040000000000000000000000000000000000000000000000040000000000000000000000000000020000000000000000000800010000000000000000000200000000000000000000000000000000000000000000000000000000000000000000000000000000000000000000000000004000000000000000000000000000000000000000000008000000000000000000000000000000000000000000000000000060000000000000000000000000000000000000000000000000000000000000000000",
      "transactionHash": "0x7325ae205a43c018f7ced45c71f947515e22104fe028ee171e8ffb146ade8997",
      "transactionIndex": "0x1",
      "blockHash": "0x5798eef21d241fd44fcad60ddd1191be778e60d247ec6df5d887393470584015",
      "blockNumber": "0x2599ecc",
      "gasUsed": "0x1fe1e",
      "effectiveGasPrice": "0xba43cfaa0",
      "blobGasUsed": "0x9c40",
      "from": "0x0cded2fda02daaa7108b7bcbc18c9c15a94dcf43",
      "to": "0xbf8f5e4434f4467cd1d9e10ea5c58fdcf67e5a80",
      "contractAddress": null
    },
    {
      "type": "0x2",
      "status": "0x1",
      "cumulativeGasUsed": "0x2bddd",
      "logs": [
        {
          "address": "0xbf8f5e4434f4467cd1d9e10ea5c58fdcf67e5a80",
          "topics": [
            "0xc802992ebe03a6dbba3e528aaa5a57f3287b985ded510921a6cf6bef0e3e22b7",
            "0x0000000000000000000000000000000000000000000000000000000000000000",
            "0x0000000000000000000000000000000000000000000000000000000000000002"
          ],
          "data": "0x00000000000000000000000000000000000000000000000000000000000000010000000000000000000000000000000000000000000000001bc16d674ec80000",
          "blockHash": "0xb49783dd1ef6cc59dba75d6b49d69495e6f928baa3c160c7fc33f8cff62cfc39",
          "blockNumber": "0x2599ecf",
          "blockTimestamp": "0x6a1ec07f",
          "transactionHash": "0x0c410450f0a4778e92fe299192b4b1a9bc39ff39db94fb493a8e246cec8f6cb4",
          "transactionIndex": "0x1",
          "logIndex": "0x0",
          "removed": false
        }
      ],
      "logsBloom": "0x04000000000000000000000000000000000000000000000000000000000000000000200000000000000000000000000200000000000000000000000000000000000000000000000000000000000000000000000000000000000000000000000000000000020000000000000000000800010000000000000000000200000000000000000000000000000000000000000000000000000000000000000000000000000000000000000000000100004000000000000000000000000000000000000000000008000000000000000000000000000000000000000000000000000020000000000000000000000000000000000000000000008000000000000000000000",
      "transactionHash": "0x0c410450f0a4778e92fe299192b4b1a9bc39ff39db94fb493a8e246cec8f6cb4",
      "transactionIndex": "0x1",
      "blockHash": "0xb49783dd1ef6cc59dba75d6b49d69495e6f928baa3c160c7fc33f8cff62cfc39",
      "blockNumber": "0x2599ecf",
      "gasUsed": "0x2091a",
      "effectiveGasPrice": "0xba43cfaa0",
      "blobGasUsed": "0x9c40",
      "from": "0x0cded2fda02daaa7108b7bcbc18c9c15a94dcf43",
      "to": "0xbf8f5e4434f4467cd1d9e10ea5c58fdcf67e5a80",
      "contractAddress": null
    },
    {
      "type": "0x2",
      "status": "0x1",
      "cumulativeGasUsed": "0x8594e",
      "logs": [
        {
          "address": "0xbf8f5e4434f4467cd1d9e10ea5c58fdcf67e5a80",
          "topics": [
            "0xc802992ebe03a6dbba3e528aaa5a57f3287b985ded510921a6cf6bef0e3e22b7",
            "0x0000000000000000000000000000000000000000000000000000000000000000",
            "0x0000000000000000000000000000000000000000000000000000000000000003"
          ],
          "data": "0x000000000000000000000000000000000000000000000000000000000000000000000000000000000000000000000000000000000000000029a2241af62c0000",
          "blockHash": "0xd6740bb491f644117eb7805b00a81060c8c2fada554a1315a1eaa7134b2a1c57",
          "blockNumber": "0x2599ed2",
          "blockTimestamp": "0x6a1ec085",
          "transactionHash": "0x1c47acd28dee27b5a7c8cce7a2c201b4d392c6903f25f0709e14b9d0477f413e",
          "transactionIndex": "0x3",
          "logIndex": "0x5",
          "removed": false
        }
      ],
      "logsBloom": "0x00000000000000000000000000000000000000000000000000000000000000000000200000000000000000000000000200000000020000000000000000000000000000000000000000000000000000000000000000000000000000000000000000000000020000000000000000000800010000000000000000000200000000000000000000000000000000000000000000000000000000000000000000000000000000000000000000000000004000000000000000800000000000000000400000000008000000000000000000000000000000000000000000000000000020000000000000000000000000000000000000000000000000000000000000000000",
      "transactionHash": "0x1c47acd28dee27b5a7c8cce7a2c201b4d392c6903f25f0709e14b9d0477f413e",
      "transactionIndex": "0x3",
      "blockHash": "0xd6740bb491f644117eb7805b00a81060c8c2fada554a1315a1eaa7134b2a1c57",
      "blockNumber": "0x2599ed2",
      "gasUsed": "0x1bb52",
      "effectiveGasPrice": "0xba43cfaa0",
      "blobGasUsed": "0x9c40",
      "from": "0x0cded2fda02daaa7108b7bcbc18c9c15a94dcf43",
      "to": "0xbf8f5e4434f4467cd1d9e10ea5c58fdcf67e5a80",
      "contractAddress": null
    },
    {
      "type": "0x2",
      "status": "0x1",
      "cumulativeGasUsed": "0x3ab2f",
      "logs": [
        {
          "address": "0xbf8f5e4434f4467cd1d9e10ea5c58fdcf67e5a80",
          "topics": [
            "0xc802992ebe03a6dbba3e528aaa5a57f3287b985ded510921a6cf6bef0e3e22b7",
            "0x0000000000000000000000000000000000000000000000000000000000000000",
            "0x0000000000000000000000000000000000000000000000000000000000000004"
          ],
          "data": "0x00000000000000000000000000000000000000000000000000000000000000010000000000000000000000000000000000000000000000004563918244f40000",
          "blockHash": "0xe91cf66aeec3d8b0ea8b1949370ceffec1adbdd96e883200774c6aa09a798453",
          "blockNumber": "0x2599ed5",
          "blockTimestamp": "0x6a1ec08b",
          "transactionHash": "0x19574bf46f7b4e87d63d63d331d987c927864941b045ead04cc387193a2edea6",
          "transactionIndex": "0x2",
          "logIndex": "0x3",
          "removed": false
        }
      ],
      "logsBloom": "0x00000000000000000000000000000000000000000000000000000000000000000000200000000000000000000000000200000000000000000000000000000000000000000000000000000000000000000000000000000000000000000000000008000000020000000000000000000800010000000000000000000200000000000000000000000000000000000000000000000000000000000000000000000000000000000000000000000000004000000000000000000000002000000000000000000008000000000000000000000000000000008000000000000000000020000000000000000000000000000000000000000000000000000000000000000000",
      "transactionHash": "0x19574bf46f7b4e87d63d63d331d987c927864941b045ead04cc387193a2edea6",
      "transactionIndex": "0x2",
      "blockHash": "0xe91cf66aeec3d8b0ea8b1949370ceffec1adbdd96e883200774c6aa09a798453",
      "blockNumber": "0x2599ed5",
      "gasUsed": "0x2091a",
      "effectiveGasPrice": "0xba43cfaa0",
      "blobGasUsed": "0x9c40",
      "from": "0x0cded2fda02daaa7108b7bcbc18c9c15a94dcf43",
      "to": "0xbf8f5e4434f4467cd1d9e10ea5c58fdcf67e5a80",
      "contractAddress": null
    },
    {
      "type": "0x2",
      "status": "0x1",
      "cumulativeGasUsed": "0x29bd5",
      "logs": [
        {
          "address": "0xbf8f5e4434f4467cd1d9e10ea5c58fdcf67e5a80",
          "topics": [
            "0xc802992ebe03a6dbba3e528aaa5a57f3287b985ded510921a6cf6bef0e3e22b7",
            "0x0000000000000000000000000000000000000000000000000000000000000000",
            "0x0000000000000000000000000000000000000000000000000000000000000005"
          ],
          "data": "0x00000000000000000000000000000000000000000000000000000000000000000000000000000000000000000000000000000000000000006f05b59d3b200000",
          "blockHash": "0x941f16dfbd43e9ba838bfce14effda523e1a0f9a5c20aa4afb5b271f3a21b1ba",
          "blockNumber": "0x2599ed8",
          "blockTimestamp": "0x6a1ec091",
          "transactionHash": "0x08e79e884ebe1981a5ec0f8e0c0a6fdd1f5a6421b2812c71921e4ba4b56b601c",
          "transactionIndex": "0x1",
          "logIndex": "0x0",
          "removed": false
        }
      ],
      "logsBloom": "0x00000000000000000000000000000000000000000000000000000000000000000000200000000000000000000000000200000000000000000000000000000000000010000000000000000000000000000000000000000000000000000000000000000000020000000000000000000800010000000000000000000200000000000000000000000000000000000000001000000800000000000000000000000000000000000000000000000000004000000000000000000000000000000000000000000008000000000000000000000000000000000000000000000000000020000000000000000000000000000000000000000000000000000000000000000000",
      "transactionHash": "0x08e79e884ebe1981a5ec0f8e0c0a6fdd1f5a6421b2812c71921e4ba4b56b601c",
      "transactionIndex": "0x1",
      "blockHash": "0x941f16dfbd43e9ba838bfce14effda523e1a0f9a5c20aa4afb5b271f3a21b1ba",
      "blockNumber": "0x2599ed8",
      "gasUsed": "0x1bb52",
      "effectiveGasPrice": "0xba43cfaa0",
      "blobGasUsed": "0x9c40",
      "from": "0x0cded2fda02daaa7108b7bcbc18c9c15a94dcf43",
      "to": "0xbf8f5e4434f4467cd1d9e10ea5c58fdcf67e5a80",
      "contractAddress": null
    }
  ],
  "libraries": [],
  "pending": [],
  "returns": {},
  "timestamp": 1780400274544,
  "chain": 5003,
  "commit": "5d9212c"
}