{
  "transactions": [
    {
      "hash": "0x50cd396a88b2b07c8164ca6d3caf6ffe5dc7bfe78dce9028e9862034922a46fc",
      "transactionType": "CREATE",
      "contractName": "Allocator",
      "contractAddress": "0xece0489534c8c16d6a5282315479fee6928bdb13",
      "function": null,
      "arguments": [
        "0xbc17D7F8f265d069781ed765914ED092989d92e7",
        "0x4eCE1853623CA801536d319cB9ddE454f5dA6dC7",
        "0xeF2F3602d5fe04487a971e5d749DAC7343b8F895"
      ],
      "transaction": {
        "from": "0xecf9541c6ff5e8774a6d8f64b57a4be473de49ef",
        "to": null,
        "gas": "0x3d40c1",
        "value": "0x0",
        "input": "0x60c060405260016000553480156200001657600080fd5b5060405162003774380380620037748339810160408190526200003991620001f1565b6001600160a01b038316158015906200005a57506001600160a01b03821615155b620000975760405162461bcd60e51b81526020600482015260096024820152683d32b9379030b2323960b91b604482015260640160405180910390fd5b6001600160a01b0383811660805282811660a052600280549183166001600160a01b031992831617905560038054821633908117909155600180549092161790556040805160a0810182526004606082018181526327b832b760e11b608084015282526000602083018190526127109383019390935280546001810182559252805190916003027f8a35acfbc15ff81a39ae7d344fd709f28e8600b4aa8c65c6b64bfe7fe36bd19b019081906200014f9082620002e2565b506020820151816001015560408201518160020155505060007fd2270db0749cf371cd06e708f18bdb337349019735f3c920765f74df26931e8f6000612710604051620001c392919060608082526004908201526327b832b760e11b60808201526020810192909252604082015260a00190565b60405180910390a2505050620003ae565b80516001600160a01b0381168114620001ec57600080fd5b919050565b6000806000606084860312156200020757600080fd5b6200021284620001d4565b92506200022260208501620001d4565b91506200023260408501620001d4565b90509250925092565b634e487b7160e01b600052604160045260246000fd5b600181811c908216806200026657607f821691505b6020821081036200028757634e487b7160e01b600052602260045260246000fd5b50919050565b601f821115620002dd576000816000526020600020601f850160051c81016020861015620002b85750805b601f850160051c820191505b81811015620002d957828155600101620002c4565b5050505b505050565b81516001600160401b03811115620002fe57620002fe6200023b565b62000316816200030f845462000251565b846200028d565b602080601f8311600181146200034e5760008415620003355750858301515b600019600386901b1c1916600185901b178555620002d9565b600085815260208120601f198616915b828110156200037f578886015182559484019460019091019084016200035e565b50858210156200039e5787850151600019600388901b60f8161c191681555b5050505050600190811b01905550565b60805160a05161334c62000428600039600081816102b101528181611a0b0152611bd8015260008181610327015281816104ed015281816107b401528181610cc701528181610d6e01528181610dfe015281816111ac0152818161179f01528181612292015281816123520152612663015261334c6000f3fe608060405234801561001057600080fd5b50600436106101fb5760003560e01c8063580b466a1161011a5780638c64ea4a116100ad578063b6b55f251161007c578063b6b55f251461044f578063c3c5a54714610462578063c42cf53514610485578063d713858414610498578063d959fb2e146104b857600080fd5b80638c64ea4a1461040e578063a523cc3114610421578063a7c6a10014610434578063b09d7c2b1461043c57600080fd5b806370a08231116100e957806370a08231146103cb5780637d7c2a1c146103eb5780638456cb59146103f35780638a0dac4a146103fb57600080fd5b8063580b466a1461037a5780635c975abb1461039c57806360b5662e146103b057806364c9ec6f146103b857600080fd5b80632e1a7d4d116101925780633a98ef39116101615780633a98ef39146103495780633cc162f1146103525780633f4ba83a1461035f578063452a93201461036757600080fd5b80632e1a7d4d146102d3578063329c29fb146102e657806335edc1b21461031957806338d52e0f1461032257600080fd5b80631b453ca3116101ce5780631b453ca31461026e578063256b5a021461028157806328e99803146102945780632c159a1a146102ac57600080fd5b806301e1d114146102005780630c340a241461021b5780630ff46782146102465780631a678cd314610259575b600080fd5b6102086104cb565b6040519081526020015b60405180910390f35b60035461022e906001600160a01b031681565b6040516001600160a01b039091168152602001610212565b610208610254366004612d29565b6105b1565b61026c610267366004612d54565b610625565b005b61026c61027c366004612d71565b610697565b61026c61028f366004612d29565b610732565b61029c61090e565b6040516102129493929190612dc6565b61022e7f000000000000000000000000000000000000000000000000000000000000000081565b6102086102e1366004612d71565b610b44565b6103096102f4366004612d29565b60076020526000908152604090205460ff1681565b6040519015158152602001610212565b61020860055481565b61022e7f000000000000000000000000000000000000000000000000000000000000000081565b61020860095481565b6006546103099060ff1681565b61026c610e6b565b60015461022e906001600160a01b031681565b61038d610388366004612d71565b610ecf565b60405161021293929190612ec4565b60015461030990600160a01b900460ff1681565b600454610208565b60025461022e906001600160a01b031681565b6102086103d9366004612d29565b60086020526000908152604090205481565b61026c610f91565b61026c6112b1565b61026c610409366004612d29565b61131b565b61022e61041c366004612d71565b6113d5565b61020861042f366004612ee9565b6113ff565b600a54610208565b61026c61044a366004612f68565b611585565b61020861045d366004612d71565b61160e565b610309610470366004612d29565b600b6020526000908152604090205460ff1681565b61026c610493366004612d29565b611849565b6102086104a6366004612d29565b600c6020526000908152604090205481565b61026c6104c6366004612d29565b6118d6565b6040516370a0823160e01b815230600482015260009081906001600160a01b037f000000000000000000000000000000000000000000000000000000000000000016906370a0823190602401602060405180830381865afa158015610534573d6000803e3d6000fd5b505050506040513d601f19601f820116820180604052508101906105589190612fa1565b905060005b600a548110156105ab57610597600a828154811061057d5761057d612fba565b6000918252602090912001546001600160a01b031661194e565b6105a19083612fe6565b915060010161055d565b50919050565b6001600160a01b0381166000908152600b602052604081205460ff1661060e5760405162461bcd60e51b815260206004820152600d60248201526c1d5b9adb9bdddb881d985d5b1d609a1b60448201526064015b60405180910390fd5b61061f8261061a6119f9565b611b4f565b92915050565b6003546001600160a01b0316331461064f5760405162461bcd60e51b815260040161060590612ff9565b6006805460ff19168215159081179091556040519081527f1c8333739769c1b87bc26ebb0134ae5b42f3d18d89d139a22083b5256c061355906020015b60405180910390a150565b6003546001600160a01b031633146106c15760405162461bcd60e51b815260040161060590612ff9565b60045481106106ff5760405162461bcd60e51b815260206004820152600a6024820152696e6f206d616e6461746560b01b6044820152606401610605565b600581905560405181907fdb1c1d00eebcb507bcd937e8305eb395e99f183759119b71dc6e2c7e0a6a030b90600090a250565b6003546001600160a01b0316331461075c5760405162461bcd60e51b815260040161060590612ff9565b6001600160a01b0381166000908152600b602052604090205460ff16156107b25760405162461bcd60e51b815260206004820152600a6024820152691c9959da5cdd195c995960b21b6044820152606401610605565b7f00000000000000000000000000000000000000000000000000000000000000006001600160a01b0316816001600160a01b03166338d52e0f6040518163ffffffff1660e01b8152600401602060405180830381865afa15801561081a573d6000803e3d6000fd5b505050506040513d601f19601f8201168201806040525081019061083e919061301f565b6001600160a01b0316146108825760405162461bcd60e51b815260206004820152600b60248201526a1ddc9bdb99c8185cdcd95d60aa1b6044820152606401610605565b6001600160a01b0381166000818152600b6020526040808220805460ff19166001908117909155600a8054918201815583527fc65a7bb8d6351c1cf70c95a316cc6a92839c986682d98bc35f958f4883f9d2a80180546001600160a01b03191684179055517f7b7ef7a864d96a85497a1ed846adb39940dd6ccef678ff6ac8d55505e09b8cc49190a250565b600a5460609081908190819060006109246119f9565b9050600060046005548154811061093d5761093d612fba565b906000526020600020906003020190508267ffffffffffffffff8111156109665761096661303c565b60405190808252806020026020018201604052801561098f578160200160208202803683370190505b5096508267ffffffffffffffff8111156109ab576109ab61303c565b6040519080825280602002602001820160405280156109d4578160200160208202803683370190505b5095508267ffffffffffffffff8111156109f0576109f061303c565b604051908082528060200260200182016040528015610a19578160200160208202803683370190505b509450610a2c610a276104cb565b611ff2565b50909450600090505b83811015610b3a57600a8181548110610a5057610a50612fba565b9060005260206000200160009054906101000a90046001600160a01b0316888281518110610a8057610a80612fba565b60200260200101906001600160a01b031690816001600160a01b031681525050610ad1600a8281548110610ab657610ab6612fba565b6000918252602090912001546001600160a01b031684611b4f565b878281518110610ae357610ae3612fba565b6020026020010181815250508160010154878281518110610b0657610b06612fba565b60200260200101511015868281518110610b2257610b22612fba565b91151560209283029190910190910152600101610a35565b5050505090919293565b6000600160005414610b685760405162461bcd60e51b815260040161060590613052565b600260005581610ba85760405162461bcd60e51b815260206004820152600b60248201526a7a65726f2073686172657360a81b6044820152606401610605565b33600090815260086020526040902054821115610bfd5760405162461bcd60e51b8152602060048201526013602482015272696e73756666696369656e742073686172657360681b6044820152606401610605565b600954610c0b906001612fe6565b610c136104cb565b610c1e906001612fe6565b610c289084613075565b610c32919061308c565b905060008111610c725760405162461bcd60e51b815260206004820152600b60248201526a7a65726f2061737365747360a81b6044820152606401610605565b3360009081526008602052604081208054849290610c919084906130ae565b925050819055508160096000828254610caa91906130ae565b90915550506040516370a0823160e01b81523060048201526000907f00000000000000000000000000000000000000000000000000000000000000006001600160a01b0316906370a0823190602401602060405180830381865afa158015610d16573d6000803e3d6000fd5b505050506040513d601f19601f82011682018060405250810190610d3a9190612fa1565b905081811015610df157610d56610d5182846130ae565b612152565b6040516370a0823160e01b81523060048201526000907f00000000000000000000000000000000000000000000000000000000000000006001600160a01b0316906370a0823190602401602060405180830381865afa158015610dbd573d6000803e3d6000fd5b505050506040513d601f19601f82011682018060405250810190610de19190612fa1565b905082811015610def578092505b505b610e256001600160a01b037f00000000000000000000000000000000000000000000000000000000000000001633846123ff565b604080518381526020810185905233917ff279e6a1f5e320cca91135676d9cb6e44ca8a08c0b88342bcdb1144f6511b568910160405180910390a2506001600055919050565b6001546001600160a01b03163314610e955760405162461bcd60e51b8152600401610605906130c1565b6001805460ff60a01b1916905560405133907f5db9ee0a495bf2e6ff9c91a7834c1ba4fdd244a5e8aa4e537bd38aeae4b073aa90600090a2565b60048181548110610edf57600080fd5b9060005260206000209060030201600091509050806000018054610f02906130e7565b80601f0160208091040260200160405190810160405280929190818152602001828054610f2e906130e7565b8015610f7b5780601f10610f5057610100808354040283529160200191610f7b565b820191906000526020600020905b815481529060010190602001808311610f5e57829003601f168201915b5050505050908060010154908060020154905083565b600160005414610fb35760405162461bcd60e51b815260040161060590613052565b6002600055600154600160a01b900460ff1615610ffb5760405162461bcd60e51b81526020600482015260066024820152651c185d5cd95960d21b6044820152606401610605565b600a54806110375760405162461bcd60e51b81526020600482015260096024820152686e6f207661756c747360b81b6044820152606401610605565b60006110416104cb565b9050600080600061105184611ff2565b92509250925060005b8581101561111b5783818151811061107457611074612fba565b602002602001015183828151811061108e5761108e612fba565b6020026020010151111561111357611113600a82815481106110b2576110b2612fba565b9060005260206000200160009054906101000a90046001600160a01b03168583815181106110e2576110e2612fba565b60200260200101518584815181106110fc576110fc612fba565b602002602001015161110e91906130ae565b612478565b60010161105a565b5060005b8581101561126857600061113f600a838154811061057d5761057d612fba565b905084828151811061115357611153612fba565b602002602001015181101561125f5760008186848151811061117757611177612fba565b602002602001015161118991906130ae565b6040516370a0823160e01b81523060048201529091506000906001600160a01b037f000000000000000000000000000000000000000000000000000000000000000016906370a0823190602401602060405180830381865afa1580156111f3573d6000803e3d6000fd5b505050506040513d601f19601f820116820180604052508101906112179190612fa1565b905080821115611225578091505b811561125c5761125c600a858154811061124157611241612fba565b6000918252602090912001546001600160a01b031683612656565b50505b5060010161111f565b5060055460408051868152602081018490527f83387a3342ff1ebc5e437dc9ae0f98274afda12a11cf547eebec05a3e0b8f8a7910160405180910390a250506001600055505050565b6001546001600160a01b031633146112db5760405162461bcd60e51b8152600401610605906130c1565b6001805460ff60a01b1916600160a01b17905560405133907f62e78cea01bee320cd4e420270b5ea74000d11b0c9f74754ebdbfc544b05a25890600090a2565b6001546001600160a01b031633146113455760405162461bcd60e51b8152600401610605906130c1565b6001600160a01b03811661138b5760405162461bcd60e51b815260206004820152600d60248201526c3d32b9379033bab0b93234b0b760991b6044820152606401610605565b600180546001600160a01b0319166001600160a01b0383169081179091556040517f01c6520cf747e4632b43b535b91afe3950ccabc4ab29bbd89e3c1f6b0ba0565590600090a250565b600a81815481106113e557600080fd5b6000918252602090912001546001600160a01b0316905081565b6003546000906001600160a01b0316331461142c5760405162461bcd60e51b815260040161060590612ff9565b670de0b6b3a764000083111561146c5760405162461bcd60e51b81526020600482015260056024820152641d1c9d5cdd60da1b6044820152606401610605565b60008211801561147e57506127108211155b6114b05760405162461bcd60e51b815260206004820152600360248201526262707360e81b6044820152606401610605565b50600480546040805160806020601f89018190040282018101909252606081018781529293929091829190899089908190850183828082843760009201829052509385525050506020808301889052604090920186905283546001810185559381522081519192600302019081906115289082613163565b5060208201518160010155604082015181600201555050807fd2270db0749cf371cd06e708f18bdb337349019735f3c920765f74df26931e8f868686866040516115759493929190613223565b60405180910390a2949350505050565b6003546001600160a01b031633146115af5760405162461bcd60e51b815260040161060590612ff9565b6001600160a01b038216600081815260076020908152604091829020805460ff191685151590811790915591519182527f2444fb0d1fe84b2795e40013e1c54a31c773bfd08c00b4e63b8dd7fce04b5d00910160405180910390a25050565b60006001600054146116325760405162461bcd60e51b815260040161060590613052565b6002600055600154600160a01b900460ff161561167a5760405162461bcd60e51b81526020600482015260066024820152651c185d5cd95960d21b6044820152606401610605565b60065460ff16158061169b57503360009081526007602052604090205460ff165b6116df5760405162461bcd60e51b815260206004820152601560248201527419195c1bdcda5d1bdc881b9bdd08185b1b1bddd959605a1b6044820152606401610605565b6000821161171d5760405162461bcd60e51b815260206004820152600b60248201526a7a65726f2061737365747360a81b6044820152606401610605565b6117256104cb565b611730906001612fe6565b60095461173e906001612fe6565b6117489084613075565b611752919061308c565b9050600081116117925760405162461bcd60e51b815260206004820152600b60248201526a7a65726f2073686172657360a81b6044820152606401610605565b6117c76001600160a01b037f00000000000000000000000000000000000000000000000000000000000000001633308561272f565b33600090815260086020526040812080548392906117e6908490612fe6565b9250508190555080600960008282546117ff9190612fe6565b9091555050604080518381526020810183905233917f90890809c654f11d6e72a28fa60149770a0d11ec6c92319d6ceb2bb0a4ea1a15910160405180910390a26001600055919050565b6003546001600160a01b031633146118735760405162461bcd60e51b815260040161060590612ff9565b6001600160a01b0381166118b45760405162461bcd60e51b81526020600482015260086024820152673d32b9379033b7bb60c11b6044820152606401610605565b600380546001600160a01b0319166001600160a01b0392909216919091179055565b6003546001600160a01b031633146119005760405162461bcd60e51b815260040161060590612ff9565b600280546001600160a01b0319166001600160a01b0383169081179091556040519081527f3153d002b244d7427874a391fcd3b7723d75a7a083c9f0aa057ff38d1c23ebce9060200161068c565b6001600160a01b0381166000908152600c6020526040812054806119735760006119f2565b670de0b6b3a7640000836001600160a01b031663c1590cd76040518163ffffffff1660e01b8152600401602060405180830381865afa1580156119ba573d6000803e3d6000fd5b505050506040513d601f19601f820116820180604052508101906119de9190612fa1565b6119e89083613075565b6119f2919061308c565b9392505050565b6000805b600a54811015611b3f5760007f00000000000000000000000000000000000000000000000000000000000000006001600160a01b031663aee14460600a8481548110611a4b57611a4b612fba565b600091825260209182902001546040805163e84f43b760e01b815290516001600160a01b039092169263e84f43b7926004808401938290030181865afa158015611a99573d6000803e3d6000fd5b505050506040513d601f19601f82011682018060405250810190611abd9190612fa1565b6040518263ffffffff1660e01b8152600401611adb91815260200190565b6040805180830381865afa158015611af7573d6000803e3d6000fd5b505050506040513d601f19601f82011682018060405250810190611b1b9190613263565b509050600081138015611b2d57508281115b15611b36578092505b506001016119fd565b5080600003611b4c575060015b90565b600080836001600160a01b031663e84f43b76040518163ffffffff1660e01b8152600401602060405180830381865afa158015611b90573d6000803e3d6000fd5b505050506040513d601f19601f82011682018060405250810190611bb49190612fa1565b6040516305770a2360e51b8152600481018290529091506000906001600160a01b037f0000000000000000000000000000000000000000000000000000000000000000169063aee14460906024016040805180830381865afa158015611c1e573d6000803e3d6000fd5b505050506040513d601f19601f82011682018060405250810190611c429190613263565b5090506000808213611c55576000611c57565b815b9050600085611c6e670de0b6b3a764000084613075565b611c78919061308c565b90506000876001600160a01b031663aaf6e10f6040518163ffffffff1660e01b8152600401602060405180830381865afa158015611cba573d6000803e3d6000fd5b505050506040513d601f19601f82011682018060405250810190611cde9190613287565b67ffffffffffffffff16905060008115611d50576000824211611d02576000611d0c565b611d0c83426130ae565b905062015180811015611d495762015180670de0b6b3a7640000611d3083836130ae565b611d3a9190613075565b611d44919061308c565b611d4c565b60005b9150505b6000896001600160a01b031663c1590cd76040518163ffffffff1660e01b8152600401602060405180830381865afa158015611d90573d6000803e3d6000fd5b505050506040513d601f19601f82011682018060405250810190611db49190612fa1565b905060008a6001600160a01b03166342a35e726040518163ffffffff1660e01b8152600401602060405180830381865afa158015611df6573d6000803e3d6000fd5b505050506040513d601f19601f82011682018060405250810190611e1a9190612fa1565b9050600081600003611e355750670de0b6b3a7640000611eb0565b6000838311611e45576000611e6d565b82670de0b6b3a7640000611e5986836130ae565b611e639190613075565b611e6d919061308c565b90506000611e7c600583613075565b9050670de0b6b3a7640000811115611e995750670de0b6b3a76400005b611eab81670de0b6b3a76400006130ae565b925050505b6002546000906001600160a01b031615611f36576002546040516318c1be4b60e31b8152600481018c90526001600160a01b039091169063c60df25890602401602060405180830381865afa158015611f0d573d6000803e3d6000fd5b505050506040513d601f19601f82011682018060405250810190611f319190612fa1565b611f39565b60005b905060006802b5e3af16b1880000821015611f79576802b5e3af16b1880000611f6a670de0b6b3a764000084613075565b611f74919061308c565b611f83565b670de0b6b3a76400005b9050612710611f946107d083613075565b611fa06107d086613075565b611fac6107d08a613075565b611fb8610fa08d613075565b611fc29190612fe6565b611fcc9190612fe6565b611fd69190612fe6565b611fe0919061308c565b9e9d5050505050505050505050505050565b600a5460609081906000908067ffffffffffffffff8111156120165761201661303c565b60405190808252806020026020018201604052801561203f578160200160208202803683370190505b5093508067ffffffffffffffff81111561205b5761205b61303c565b604051908082528060200260200182016040528015612084578160200160208202803683370190505b50925060005b818110156120cd576120a8600a828154811061057d5761057d612fba565b8482815181106120ba576120ba612fba565b602090810291909101015260010161208a565b5060008060006120db6127b5565b925092509250809450846000036120f5575050505061214b565b600061271060046005548154811061210f5761210f612fba565b9060005260206000209060030201600201548a61212c9190613075565b612136919061308c565b9050612145888585848d612a02565b50505050505b9193909250565b60005b600a54811080156121665750600082115b156123fb576000600c6000600a848154811061218457612184612fba565b60009182526020808320909101546001600160a01b0316835282019290925260400181205491508190036121b857506123e9565b6000670de0b6b3a7640000600a84815481106121d6576121d6612fba565b600091825260209182902001546040805163c1590cd760e01b815290516001600160a01b039092169263c1590cd7926004808401938290030181865afa158015612224573d6000803e3d6000fd5b505050506040513d601f19601f820116820180604052508101906122489190612fa1565b6122529084613075565b61225c919061308c565b9050600081851161226d578461226f565b815b6040516370a0823160e01b81523060048201529091506000906001600160a01b037f000000000000000000000000000000000000000000000000000000000000000016906370a0823190602401602060405180830381865afa1580156122d9573d6000803e3d6000fd5b505050506040513d601f19601f820116820180604052508101906122fd9190612fa1565b9050612330600a868154811061231557612315612fba565b6000918252602090912001546001600160a01b031683612478565b6040516370a0823160e01b815230600482015260009082906001600160a01b037f000000000000000000000000000000000000000000000000000000000000000016906370a0823190602401602060405180830381865afa158015612399573d6000803e3d6000fd5b505050506040513d601f19601f820116820180604052508101906123bd9190612fa1565b6123c791906130ae565b90508087116123d75760006123e1565b6123e181886130ae565b965050505050505b806123f3816132b1565b915050612155565b5050565b604080516001600160a01b038416602482015260448082018490528251808303909101815260649091018252602080820180516001600160e01b031663a9059cbb60e01b1790528251808401909352600d83526c39b0b332903a3930b739b332b960991b9083015261247391859190612bf0565b505050565b6001600160a01b0382166000908152600c60205260408120549081900361249e57505050565b6000836001600160a01b0316633a98ef396040518163ffffffff1660e01b8152600401602060405180830381865afa1580156124de573d6000803e3d6000fd5b505050506040513d601f19601f820116820180604052508101906125029190612fa1565b90506000846001600160a01b03166301e1d1146040518163ffffffff1660e01b8152600401602060405180830381865afa158015612544573d6000803e3d6000fd5b505050506040513d601f19601f820116820180604052508101906125689190612fa1565b9050801580612575575081155b15612581575050505050565b60008161258e8487613075565b612598919061308c565b9050838111156125a55750825b806000036125b557505050505050565b604051632e1a7d4d60e01b8152600481018290526001600160a01b03871690632e1a7d4d906024016020604051808303816000875af11580156125fc573d6000803e3d6000fd5b505050506040513d601f19601f820116820180604052508101906126209190612fa1565b506001600160a01b0386166000908152600c6020526040812080548392906126499084906130ae565b9091555050505050505050565b61268a6001600160a01b037f0000000000000000000000000000000000000000000000000000000000000000168383612c9e565b60405163b6b55f2560e01b8152600481018290526000906001600160a01b0384169063b6b55f25906024016020604051808303816000875af11580156126d4573d6000803e3d6000fd5b505050506040513d601f19601f820116820180604052508101906126f89190612fa1565b6001600160a01b0384166000908152600c6020526040812080549293508392909190612725908490612fe6565b9091555050505050565b604080516001600160a01b0385811660248301528416604482015260648082018490528251808303909101815260849091018252602080820180516001600160e01b03166323b872dd60e01b1790528251808401909352601183527073616665207472616e7366657246726f6d60781b908301526127af91869190612bf0565b50505050565b600a546060906000908190816127c96119f9565b905060006004600554815481106127e2576127e2612fba565b90600052602060002090600302016001015490508267ffffffffffffffff81111561280f5761280f61303c565b604051908082528060200260200182016040528015612838578160200160208202803683370190505b50955060008367ffffffffffffffff8111156128565761285661303c565b60405190808252806020026020018201604052801561287f578160200160208202803683370190505b5090506000805b8581101561293a576128bf600a82815481106128a4576128a4612fba565b6000918252602090912001546001600160a01b031686611b4f565b8382815181106128d1576128d1612fba565b602002602001018181525050838382815181106128f0576128f0612fba565b6020026020010151106129325786612907816132b1565b97505082818151811061291c5761291c612fba565b60200260200101518261292f9190612fe6565b91505b600101612886565b508560000361295457509596600096508695509350505050565b801560005b868110156129f6578484828151811061297457612974612fba565b6020026020010151106129ee57816129a55783818151811061299857612998612fba565b60200260200101516129a8565b60015b8a82815181106129ba576129ba612fba565b6020026020010181815250508981815181106129d8576129d8612fba565b6020026020010151896129eb9190612fe6565b98505b600101612959565b50505050505050909192565b8351600080805b83811015612aec57878181518110612a2357612a23612fba565b602002602001015160000315612ae45760008715612a705787898381518110612a4e57612a4e612fba565b602002602001015187612a619190613075565b612a6b919061308c565b612a73565b60005b905086811115612a9b57612a8787826130ae565b612a919085612fe6565b9350869050612ac3565b888281518110612aad57612aad612fba565b602002602001015183612ac09190612fe6565b92505b808a8381518110612ad657612ad6612fba565b602002602001018181525050505b600101612a09565b50600082118015612afd5750600081115b15612be65760005b83811015612be457878181518110612b1f57612b1f612fba565b602002602001015160001480612b4e575085898281518110612b4357612b43612fba565b602002602001015110155b612bdc57600082898381518110612b6757612b67612fba565b602002602001015185612b7a9190613075565b612b84919061308c565b90506000818b8481518110612b9b57612b9b612fba565b6020026020010151612bad9190612fe6565b905087811115612bba5750865b808b8481518110612bcd57612bcd612fba565b60200260200101818152505050505b600101612b05565b505b5050505050505050565b600080846001600160a01b031684604051612c0b91906132ca565b6000604051808303816000865af19150503d8060008114612c48576040519150601f19603f3d011682016040523d82523d6000602084013e612c4d565b606091505b5091509150818015612c77575080511580612c77575080806020019051810190612c7791906132e6565b8390612c965760405162461bcd60e51b81526004016106059190613303565b505050505050565b604080516001600160a01b038416602482015260448082018490528251808303909101815260649091018252602080820180516001600160e01b031663095ea7b360e01b1790528251808401909352600c83526b7361666520617070726f766560a01b9083015261247391859190612bf0565b6001600160a01b0381168114612d2657600080fd5b50565b600060208284031215612d3b57600080fd5b81356119f281612d11565b8015158114612d2657600080fd5b600060208284031215612d6657600080fd5b81356119f281612d46565b600060208284031215612d8357600080fd5b5035919050565b60008151808452602080850194506020840160005b83811015612dbb57815187529582019590820190600101612d9f565b509495945050505050565b6080808252855190820181905260009060209060a0840190828901845b82811015612e085781516001600160a01b031684529284019290840190600101612de3565b50505083810382850152612e1c8188612d8a565b8481036040860152865180825283880192509083019060005b81811015612e53578351151583529284019291840191600101612e35565b50508481036060860152612e678187612d8a565b9998505050505050505050565b60005b83811015612e8f578181015183820152602001612e77565b50506000910152565b60008151808452612eb0816020860160208601612e74565b601f01601f19169290920160200192915050565b606081526000612ed76060830186612e98565b60208301949094525060400152919050565b60008060008060608587031215612eff57600080fd5b843567ffffffffffffffff80821115612f1757600080fd5b818701915087601f830112612f2b57600080fd5b813581811115612f3a57600080fd5b886020828501011115612f4c57600080fd5b6020928301999098509187013596604001359550909350505050565b60008060408385031215612f7b57600080fd5b8235612f8681612d11565b91506020830135612f9681612d46565b809150509250929050565b600060208284031215612fb357600080fd5b5051919050565b634e487b7160e01b600052603260045260246000fd5b634e487b7160e01b600052601160045260246000fd5b8082018082111561061f5761061f612fd0565b6020808252600c908201526b3737ba1033b7bb32b93737b960a11b604082015260600190565b60006020828403121561303157600080fd5b81516119f281612d11565b634e487b7160e01b600052604160045260246000fd5b6020808252600990820152681c99595b9d1c985b9d60ba1b604082015260600190565b808202811582820484141761061f5761061f612fd0565b6000826130a957634e487b7160e01b600052601260045260246000fd5b500490565b8181038181111561061f5761061f612fd0565b6020808252600c908201526b3737ba1033bab0b93234b0b760a11b604082015260600190565b600181811c908216806130fb57607f821691505b6020821081036105ab57634e487b7160e01b600052602260045260246000fd5b601f821115612473576000816000526020600020601f850160051c810160208610156131445750805b601f850160051c820191505b81811015612c9657828155600101613150565b815167ffffffffffffffff81111561317d5761317d61303c565b6131918161318b84546130e7565b8461311b565b602080601f8311600181146131c657600084156131ae5750858301515b600019600386901b1c1916600185901b178555612c96565b600085815260208120601f198616915b828110156131f5578886015182559484019460019091019084016131d6565b50858210156132135787850151600019600388901b60f8161c191681555b5050505050600190811b01905550565b606081528360608201528385608083013760006080858301015260006080601f19601f870116830101905083602083015282604083015295945050505050565b6000806040838503121561327657600080fd5b505080516020909101519092909150565b60006020828403121561329957600080fd5b815167ffffffffffffffff811681146119f257600080fd5b6000600182016132c3576132c3612fd0565b5060010190565b600082516132dc818460208701612e74565b9190910192915050565b6000602082840312156132f857600080fd5b81516119f281612d46565b6020815260006119f26020830184612e9856fea26469706673582212204e0797bda06179444a6a27e874614c38487f758e666903a7679603f074867c2164736f6c63430008180033000000000000000000000000bc17d7f8f265d069781ed765914ed092989d92e70000000000000000000000004ece1853623ca801536d319cb9dde454f5da6dc7000000000000000000000000ef2f3602d5fe04487a971e5d749dac7343b8f895",
        "nonce": "0x125",
        "chainId": "0x138b"
      },
      "additionalContracts": [],
      "isFixedGasLimit": false
    },
    {
      "hash": "0x8e4942340939384fbb3a903b45fbdeb3cdf813fec55d87ad59034e39d7e6d2e2",
      "transactionType": "CALL",
      "contractName": "Allocator",
      "contractAddress": "0xece0489534c8c16d6a5282315479fee6928bdb13",
      "function": "addVault(address)",
      "arguments": [
        "0x7E4399B91bF6801d7D74E359d162065c88EA9d1B"
      ],
      "transaction": {
        "from": "0xecf9541c6ff5e8774a6d8f64b57a4be473de49ef",
        "to": "0xece0489534c8c16d6a5282315479fee6928bdb13",
        "gas": "0x71d2",
        "value": "0x0",
        "input": "0x256b5a020000000000000000000000007e4399b91bf6801d7d74e359d162065c88ea9d1b",
        "nonce": "0x126",
        "chainId": "0x138b"
      },
      "additionalContracts": [],
      "isFixedGasLimit": false
    },
    {
      "hash": "0xa31a92f15d27b42d7745d1a11ca4ed84ea3ab367f7d4c69ed13746d22a2e2c05",
      "transactionType": "CALL",
      "contractName": "Allocator",
      "contractAddress": "0xece0489534c8c16d6a5282315479fee6928bdb13",
      "function": "addVault(address)",
      "arguments": [
        "0x06e196408356D2BDa4d21301B3bbB78c931AE9E3"
      ],
      "transaction": {
        "from": "0xecf9541c6ff5e8774a6d8f64b57a4be473de49ef",
        "to": "0xece0489534c8c16d6a5282315479fee6928bdb13",
        "gas": "0x71d2",
        "value": "0x0",
        "input": "0x256b5a0200000000000000000000000006e196408356d2bda4d21301b3bbb78c931ae9e3",
        "nonce": "0x127",
        "chainId": "0x138b"
      },
      "additionalContracts": [],
      "isFixedGasLimit": false
    },
    {
      "hash": "0xade21ed632067937c4328ded89a49090a4309b30c1722a058f9e54b8324864e9",
      "transactionType": "CALL",
      "contractName": "Allocator",
      "contractAddress": "0xece0489534c8c16d6a5282315479fee6928bdb13",
      "function": "addVault(address)",
      "arguments": [
        "0xBA8075d91983D15628DE99CDC510cD6C70F434EE"
      ],
      "transaction": {
        "from": "0xecf9541c6ff5e8774a6d8f64b57a4be473de49ef",
        "to": "0xece0489534c8c16d6a5282315479fee6928bdb13",
        "gas": "0x71d2",
        "value": "0x0",
        "input": "0x256b5a02000000000000000000000000ba8075d91983d15628de99cdc510cd6c70f434ee",
        "nonce": "0x128",
        "chainId": "0x138b"
      },
      "additionalContracts": [],
      "isFixedGasLimit": false
    },
    {
      "hash": "0xa329c91e7edbd0a32a816e358b1e560d4d5e82cb6838946b712e7cb1c61f2d72",
      "transactionType": "CALL",
      "contractName": "Allocator",
      "contractAddress": "0xece0489534c8c16d6a5282315479fee6928bdb13",
      "function": "addVault(address)",
      "arguments": [
        "0x7E1827697843f377761F19f6F3386D8750d75BBD"
      ],
      "transaction": {
        "from": "0xecf9541c6ff5e8774a6d8f64b57a4be473de49ef",
        "to": "0xece0489534c8c16d6a5282315479fee6928bdb13",
        "gas": "0x71d2",
        "value": "0x0",
        "input": "0x256b5a020000000000000000000000007e1827697843f377761f19f6f3386d8750d75bbd",
        "nonce": "0x129",
        "chainId": "0x138b"
      },
      "additionalContracts": [],
      "isFixedGasLimit": false
    },
    {
      "hash": "0x996d9f940cef03cd02b299dc5ab5d6678392947cdda2f1584a44c2916e26764f",
      "transactionType": "CALL",
      "contractName": "Allocator",
      "contractAddress": "0xece0489534c8c16d6a5282315479fee6928bdb13",
      "function": "addVault(address)",
      "arguments": [
        "0xa40AF1a30E4094b2807fDfbF6195C06245ab0822"
      ],
      "transaction": {
        "from": "0xecf9541c6ff5e8774a6d8f64b57a4be473de49ef",
        "to": "0xece0489534c8c16d6a5282315479fee6928bdb13",
        "gas": "0x71d2",
        "value": "0x0",
        "input": "0x256b5a02000000000000000000000000a40af1a30e4094b2807fdfbf6195c06245ab0822",
        "nonce": "0x12a",
        "chainId": "0x138b"
      },
      "additionalContracts": [],
      "isFixedGasLimit": false
    },
    {
      "hash": "0xaa86950a8900d0acba77dffc00c25dcf758fffb43c6082935f35d82664fb6a79",
      "transactionType": "CALL",
      "contractName": "Allocator",
      "contractAddress": "0xece0489534c8c16d6a5282315479fee6928bdb13",
      "function": "addMandate(string,uint256,uint256)",
      "arguments": [
        "Balanced",
        "600000000000000000",
        "5000"
      ],
      "transaction": {
        "from": "0xecf9541c6ff5e8774a6d8f64b57a4be473de49ef",
        "to": "0xece0489534c8c16d6a5282315479fee6928bdb13",
        "gas": "0x7808",
        "value": "0x0",
        "input": "0xa523cc3100000000000000000000000000000000000000000000000000000000000000600000000000000000000000000000000000000000000000000853a0d2313c00000000000000000000000000000000000000000000000000000000000000001388000000000000000000000000000000000000000000000000000000000000000842616c616e636564000000000000000000000000000000000000000000000000",
        "nonce": "0x12b",
        "chainId": "0x138b"
      },
      "additionalContracts": [],
      "isFixedGasLimit": false
    },
    {
      "hash": "0x2ed01c8916bccbbe54f83650cf19556781cfea5dde60c2001e25de911a2e7123",
      "transactionType": "CALL",
      "contractName": "Allocator",
      "contractAddress": "0xece0489534c8c16d6a5282315479fee6928bdb13",
      "function": "addMandate(string,uint256,uint256)",
      "arguments": [
        "Conservative",
        "700000000000000000",
        "3500"
      ],
      "transaction": {
        "from": "0xecf9541c6ff5e8774a6d8f64b57a4be473de49ef",
        "to": "0xece0489534c8c16d6a5282315479fee6928bdb13",
        "gas": "0x78a4",
        "value": "0x0",
        "input": "0xa523cc31000000000000000000000000000000000000000000000000000000000000006000000000000000000000000000000000000000000000000009b6e64a8ec600000000000000000000000000000000000000000000000000000000000000000dac000000000000000000000000000000000000000000000000000000000000000c436f6e7365727661746976650000000000000000000000000000000000000000",
        "nonce": "0x12c",
        "chainId": "0x138b"
      },
      "additionalContracts": [],
      "isFixedGasLimit": false
    },
    {
      "hash": "0x159202d6740c3cb337f855b224ac98b153b0926c8265bfbd85b7936aaae0e5f0",
      "transactionType": "CALL",
      "contractName": "Allocator",
      "contractAddress": "0xece0489534c8c16d6a5282315479fee6928bdb13",
      "function": "addMandate(string,uint256,uint256)",
      "arguments": [
        "Aggressive",
        "400000000000000000",
        "10000"
      ],
      "transaction": {
        "from": "0xecf9541c6ff5e8774a6d8f64b57a4be473de49ef",
        "to": "0xece0489534c8c16d6a5282315479fee6928bdb13",
        "gas": "0x7856",
        "value": "0x0",
        "input": "0xa523cc310000000000000000000000000000000000000000000000000000000000000060000000000000000000000000000000000000000000000000058d15e1762800000000000000000000000000000000000000000000000000000000000000002710000000000000000000000000000000000000000000000000000000000000000a4167677265737369766500000000000000000000000000000000000000000000",
        "nonce": "0x12d",
        "chainId": "0x138b"
      },
      "additionalContracts": [],
      "isFixedGasLimit": false
    },
    {
      "hash": "0x9b1d877cd67fb8e4fe2ceb26c1b93c3770ae5df1b1c884585ff9e829aa834548",
      "transactionType": "CALL",
      "contractName": "Allocator",
      "contractAddress": "0xece0489534c8c16d6a5282315479fee6928bdb13",
      "function": "setActiveMandate(uint256)",
      "arguments": [
        "2"
      ],
      "transaction": {
        "from": "0xecf9541c6ff5e8774a6d8f64b57a4be473de49ef",
        "to": "0xece0489534c8c16d6a5282315479fee6928bdb13",
        "gas": "0x6e12",
        "value": "0x0",
        "input": "0x1b453ca30000000000000000000000000000000000000000000000000000000000000002",
        "nonce": "0x12e",
        "chainId": "0x138b"
      },
      "additionalContracts": [],
      "isFixedGasLimit": false
    },
    {
      "hash": "0xe7f5f6f0c147db9a99016bf2a65c229d0cfec78a3d0f1da936847d328aa8c075",
      "transactionType": "CALL",
      "contractName": "Allocator",
      "contractAddress": "0xece0489534c8c16d6a5282315479fee6928bdb13",
      "function": "setPermissioned(bool)",
      "arguments": [
        "true"
      ],
      "transaction": {
        "from": "0xecf9541c6ff5e8774a6d8f64b57a4be473de49ef",
        "to": "0xece0489534c8c16d6a5282315479fee6928bdb13",
        "gas": "0x6e12",
        "value": "0x0",
        "input": "0x1a678cd30000000000000000000000000000000000000000000000000000000000000001",
        "nonce": "0x12f",
        "chainId": "0x138b"
      },
      "additionalContracts": [],
      "isFixedGasLimit": false
    },
    {
      "hash": "0x3c23daaa2bc25ae5c9826f56842bddaa18664df4c3e00670f09873de07c9596f",
      "transactionType": "CALL",
      "contractName": "Allocator",
      "contractAddress": "0xece0489534c8c16d6a5282315479fee6928bdb13",
      "function": "setDepositorAllowed(address,bool)",
      "arguments": [
        "0xeCF9541C6Ff5e8774A6d8f64B57A4BE473De49eF",
        "true"
      ],
      "transaction": {
        "from": "0xecf9541c6ff5e8774a6d8f64b57a4be473de49ef",
        "to": "0xece0489534c8c16d6a5282315479fee6928bdb13",
        "gas": "0x739a",
        "value": "0x0",
        "input": "0xb09d7c2b000000000000000000000000ecf9541c6ff5e8774a6d8f64b57a4be473de49ef0000000000000000000000000000000000000000000000000000000000000001",
        "nonce": "0x130",
        "chainId": "0x138b"
      },
      "additionalContracts": [],
      "isFixedGasLimit": false
    },
    {
      "hash": "0x5a04aee50a8da91225b6b633ec79ce5307d4497c6e0dfca7e85b5c9effb2c10d",
      "transactionType": "CALL",
      "contractName": null,
      "contractAddress": "0xbc17d7f8f265d069781ed765914ed092989d92e7",
      "function": "mint(address,uint256)",
      "arguments": [
        "0xeCF9541C6Ff5e8774A6d8f64B57A4BE473De49eF",
        "50000000000000000000"
      ],
      "transaction": {
        "from": "0xecf9541c6ff5e8774a6d8f64b57a4be473de49ef",
        "to": "0xbc17d7f8f265d069781ed765914ed092989d92e7",
        "gas": "0x10601",
        "value": "0x0",
        "input": "0x40c10f19000000000000000000000000ecf9541c6ff5e8774a6d8f64b57a4be473de49ef000000000000000000000000000000000000000000000002b5e3af16b1880000",
        "nonce": "0x131",
        "chainId": "0x138b"
      },
      "additionalContracts": [],
      "isFixedGasLimit": false
    },
    {
      "hash": "0xa742f753a0c0466c37659f6ebfe2fb1e1359500fbd3379fb95de42b1a064dfcc",
      "transactionType": "CALL",
      "contractName": null,
      "contractAddress": "0xbc17d7f8f265d069781ed765914ed092989d92e7",
      "function": "approve(address,uint256)",
      "arguments": [
        "0xECe0489534C8C16D6A5282315479Fee6928bDB13",
        "50000000000000000000"
      ],
      "transaction": {
        "from": "0xecf9541c6ff5e8774a6d8f64b57a4be473de49ef",
        "to": "0xbc17d7f8f265d069781ed765914ed092989d92e7",
        "gas": "0xec61",
        "value": "0x0",
        "input": "0x095ea7b3000000000000000000000000ece0489534c8c16d6a5282315479fee6928bdb13000000000000000000000000000000000000000000000002b5e3af16b1880000",
        "nonce": "0x132",
        "chainId": "0x138b"
      },
      "additionalContracts": [],
      "isFixedGasLimit": false
    },
    {
      "hash": "0xe5917b3b2e0e90b2d07d997823a48ff50edc3adcc29aad074d3e80a5adcb6ded",
      "transactionType": "CALL",
      "contractName": "Allocator",
      "contractAddress": "0xece0489534c8c16d6a5282315479fee6928bdb13",
      "function": "deposit(uint256)",
      "arguments": [
        "50000000000000000000"
      ],
      "transaction": {
        "from": "0xecf9541c6ff5e8774a6d8f64b57a4be473de49ef",
        "to": "0xece0489534c8c16d6a5282315479fee6928bdb13",
        "gas": "0x6efc",
        "value": "0x0",
        "input": "0xb6b55f25000000000000000000000000000000000000000000000002b5e3af16b1880000",
        "nonce": "0x133",
        "chainId": "0x138b"
      },
      "additionalContracts": [],
      "isFixedGasLimit": false
    },
    {
      "hash": "0x4c3ff12b7f23bb179e529ae5b6586b82dda28c66361bb2f48259aa309011392c",
      "transactionType": "CALL",
      "contractName": "Allocator",
      "contractAddress": "0xece0489534c8c16d6a5282315479fee6928bdb13",
      "function": "rebalance()",
      "arguments": [],
      "transaction": {
        "from": "0xecf9541c6ff5e8774a6d8f64b57a4be473de49ef",
        "to": "0xece0489534c8c16d6a5282315479fee6928bdb13",
        "gas": "0x6c4b",
        "value": "0x0",
        "input": "0x7d7c2a1c",
        "nonce": "0x134",
        "chainId": "0x138b"
      },
      "additionalContracts": [],
      "isFixedGasLimit": false
    }
  ],
  "receipts": [
    {
      "type": "0x0",
      "status": "0x1",
      "cumulativeGasUsed": "0x300434",
      "logs": [
        {
          "address": "0xece0489534c8c16d6a5282315479fee6928bdb13",
          "topics": [
            "0xd2270db0749cf371cd06e708f18bdb337349019735f3c920765f74df26931e8f",
            "0x0000000000000000000000000000000000000000000000000000000000000000"
          ],
          "data": "0x00000000000000000000000000000000000000000000000000000000000000600000000000000000000000000000000000000000000000000000000000000000000000000000000000000000000000000000000000000000000000000000271000000000000000000000000000000000000000000000000000000000000000044f70656e00000000000000000000000000000000000000000000000000000000",
          "blockHash": "0xb82cef67ee667017e7d63d125ca8a95062fa977206baf0603addf4bee1573441",
          "blockNumber": "0x25e6f01",
          "blockTimestamp": "0x6a2860e3",
          "transactionHash": "0x50cd396a88b2b07c8164ca6d3caf6ffe5dc7bfe78dce9028e9862034922a46fc",
          "transactionIndex": "0x2",
          "logIndex": "0x1",
          "removed": false
        }
      ],
      "logsBloom": "0x00000000000000000040000000000000000000000000000000000000000000002000000000000000000000000000000000000000400000000000000000000000000000000000000000000000000000000000000000000000000000000000000000000000020000000000000000000800000000000000200000000010000000000000000000000000000000000000000000000000000000000000000000000000000000000000000000000000000000000000000000000000000000000000000000000000000000000000000000000000000000000000000000000000000030000000000000000000000000000000000000000000000000000000000000000000",
      "transactionHash": "0x50cd396a88b2b07c8164ca6d3caf6ffe5dc7bfe78dce9028e9862034922a46fc",
      "transactionIndex": "0x2",
      "blockHash": "0xb82cef67ee667017e7d63d125ca8a95062fa977206baf0603addf4bee1573441",
      "blockNumber": "0x25e6f01",
      "gasUsed": "0x2eba9f",
      "effectiveGasPrice": "0xba43cfaa0",
      "blobGasUsed": "0x2c07e0",
      "from": "0xecf9541c6ff5e8774a6d8f64b57a4be473de49ef",
      "to": null,
      "contractAddress": "0xece0489534c8c16d6a5282315479fee6928bdb13"
    },
    {
      "type": "0x0",
      "status": "0x1",
      "cumulativeGasUsed": "0x22824",
      "logs": [
        {
          "address": "0xece0489534c8c16d6a5282315479fee6928bdb13",
          "topics": [
            "0x7b7ef7a864d96a85497a1ed846adb39940dd6ccef678ff6ac8d55505e09b8cc4",
            "0x0000000000000000000000007e4399b91bf6801d7d74e359d162065c88ea9d1b"
          ],
          "data": "0x",
          "blockHash": "0x933bb81bb860fb219227f22e1c929f8c9257f51be5561df65ce190458fd97672",
          "blockNumber": "0x25e6f05",
          "blockTimestamp": "0x6a2860eb",
          "transactionHash": "0x8e4942340939384fbb3a903b45fbdeb3cdf813fec55d87ad59034e39d7e6d2e2",
          "transactionIndex": "0x1",
          "logIndex": "0x0",
          "removed": false
        }
      ],
      "logsBloom": "0x00000000000000000000000000200000000000000000000000000000000000002000000000000000000000004000000000000000400000000000000000000000000000000000000000000000000000000000002000000000000000000000000000000000002000000000000000000000000000000000200000000000000000000000000000000000000000000000000000000000000000000000000000000000000000008000000000000000000001000000000000000000000000000000000000000000000000000000000000000000000000000000000000000000000000000000000000000000000000000000000000000000000000000000000000000000",
      "transactionHash": "0x8e4942340939384fbb3a903b45fbdeb3cdf813fec55d87ad59034e39d7e6d2e2",
      "transactionIndex": "0x1",
      "blockHash": "0x933bb81bb860fb219227f22e1c929f8c9257f51be5561df65ce190458fd97672",
      "blockNumber": "0x25e6f05",
      "gasUsed": "0x17355",
      "effectiveGasPrice": "0xba43cfaa0",
      "blobGasUsed": "0x9c40",
      "from": "0xecf9541c6ff5e8774a6d8f64b57a4be473de49ef",
      "to": "0xece0489534c8c16d6a5282315479fee6928bdb13",
      "contractAddress": null
    },
    {
      "type": "0x0",
      "status": "0x1",
      "cumulativeGasUsed": "0x1e558",
      "logs": [
        {
          "address": "0xece0489534c8c16d6a5282315479fee6928bdb13",
          "topics": [
            "0x7b7ef7a864d96a85497a1ed846adb39940dd6ccef678ff6ac8d55505e09b8cc4",
            "0x00000000000000000000000006e196408356d2bda4d21301b3bbb78c931ae9e3"
          ],
          "data": "0x",
          "blockHash": "0x1a4d2ef6cabae2053b13edbf9461ce79659c4e41bfb9859a8d6c6e6d47d5e2e5",
          "blockNumber": "0x25e6f08",
          "blockTimestamp": "0x6a2860f1",
          "transactionHash": "0xa31a92f15d27b42d7745d1a11ca4ed84ea3ab367f7d4c69ed13746d22a2e2c05",
          "transactionIndex": "0x1",
          "logIndex": "0x0",
          "removed": false
        }
      ],
      "logsBloom": "0x00000000000000000000000000000000000000000000000000000000000000002000000000000000000000004100000000000000400000000004000000000000000000000000000000000000000000000000002000000000000000000000000000000000000000000000000000000000000000000000200000000000000000000000000000000000000000000000000000000000000000000000000000000000000020000000000000000000000001000000000000000000000000000000000000000000000000000000000000000000000000000000000000000000000000000000000000000000000000000000000000000000000000000000000000000000",
      "transactionHash": "0xa31a92f15d27b42d7745d1a11ca4ed84ea3ab367f7d4c69ed13746d22a2e2c05",
      "transactionIndex": "0x1",
      "blockHash": "0x1a4d2ef6cabae2053b13edbf9461ce79659c4e41bfb9859a8d6c6e6d47d5e2e5",
      "blockNumber": "0x25e6f08",
      "gasUsed": "0x13089",
      "effectiveGasPrice": "0xba43cfaa0",
      "blobGasUsed": "0x9c40",
      "from": "0xecf9541c6ff5e8774a6d8f64b57a4be473de49ef",
      "to": "0xece0489534c8c16d6a5282315479fee6928bdb13",
      "contractAddress": null
    },
    {
      "type": "0x0",
      "status": "0x1",
      "cumulativeGasUsed": "0x1e558",
      "logs": [
        {
          "address": "0xece0489534c8c16d6a5282315479fee6928bdb13",
          "topics": [
            "0x7b7ef7a864d96a85497a1ed846adb39940dd6ccef678ff6ac8d55505e09b8cc4",
            "0x000000000000000000000000ba8075d91983d15628de99cdc510cd6c70f434ee"
          ],
          "data": "0x",
          "blockHash": "0x4f322aae07a6b8984ffd3295653f2af76a3346d67c10829925dc172785557976",
          "blockNumber": "0x25e6f0b",
          "blockTimestamp": "0x6a2860f7",
          "transactionHash": "0xade21ed632067937c4328ded89a49090a4309b30c1722a058f9e54b8324864e9",
          "transactionIndex": "0x1",
          "logIndex": "0x0",
          "removed": false
        }
      ],
      "logsBloom": "0x00400000000000000000000000000000000000000000000000000000000000002000040000000000000000004000000000000000400000000000000000000000000000000000000000000000000000000000002000000000000000002000000000000000000000000000000000000000000000000000200000000000000000000000000000000000000000000000000000000000000000000000000000000000000000000000000000000000000001000000000000000000000000000000000000000000000000000000000000000000000000000000000000000000000000000000000000000000000000000000000000000000000000000000000000000000",
      "transactionHash": "0xade21ed632067937c4328ded89a49090a4309b30c1722a058f9e54b8324864e9",
      "transactionIndex": "0x1",
      "blockHash": "0x4f322aae07a6b8984ffd3295653f2af76a3346d67c10829925dc172785557976",
      "blockNumber": "0x25e6f0b",
      "gasUsed": "0x13089",
      "effectiveGasPrice": "0xba43cfaa0",
      "blobGasUsed": "0x9c40",
      "from": "0xecf9541c6ff5e8774a6d8f64b57a4be473de49ef",
      "to": "0xece0489534c8c16d6a5282315479fee6928bdb13",
      "contractAddress": null
    },
    {
      "type": "0x0",
      "status": "0x1",
      "cumulativeGasUsed": "0x1e540",
      "logs": [
        {
          "address": "0xece0489534c8c16d6a5282315479fee6928bdb13",
          "topics": [
            "0x7b7ef7a864d96a85497a1ed846adb39940dd6ccef678ff6ac8d55505e09b8cc4",
            "0x0000000000000000000000007e1827697843f377761f19f6f3386d8750d75bbd"
          ],
          "data": "0x",
          "blockHash": "0x79c1f10ccac62ad99a6599b02954bdf862a6eb5320aa41a1163fb8d9a5f211cc",
          "blockNumber": "0x25e6f0e",
          "blockTimestamp": "0x6a2860fd",
          "transactionHash": "0xa329c91e7edbd0a32a816e358b1e560d4d5e82cb6838946b712e7cb1c61f2d72",
          "transactionIndex": "0x1",
          "logIndex": "0x0",
          "removed": false
        }
      ],
      "logsBloom": "0x00000000000000000000000000000000000000000000000000000000000000002000000000000000000000004000000000000000400000000000000000000000000000000000000000000000000000000000002000000000000000000000080000000000000000000000000000000000000000000000200000000000000000000000000000000000000000000000000000000000000000000800000000000000000000000000000000000000000001000000000000000000000000000000000000000000000000000000000000000000000000000000000002000000000000000000000000000000000000000000000000000000000000000000000000000000",
      "transactionHash": "0xa329c91e7edbd0a32a816e358b1e560d4d5e82cb6838946b712e7cb1c61f2d72",
      "transactionIndex": "0x1",
      "blockHash": "0x79c1f10ccac62ad99a6599b02954bdf862a6eb5320aa41a1163fb8d9a5f211cc",
      "blockNumber": "0x25e6f0e",
      "gasUsed": "0x13089",
      "effectiveGasPrice": "0xba43cfaa0",
      "blobGasUsed": "0x9c40",
      "from": "0xecf9541c6ff5e8774a6d8f64b57a4be473de49ef",
      "to": "0xece0489534c8c16d6a5282315479fee6928bdb13",
      "contractAddress": null
    },
    {
      "type": "0x0",
      "status": "0x1",
      "cumulativeGasUsed": "0x1e540",
      "logs": [
        {
          "address": "0xece0489534c8c16d6a5282315479fee6928bdb13",
          "topics": [
            "0x7b7ef7a864d96a85497a1ed846adb39940dd6ccef678ff6ac8d55505e09b8cc4",
            "0x000000000000000000000000a40af1a30e4094b2807fdfbf6195c06245ab0822"
          ],
          "data": "0x",
          "blockHash": "0x1abb25b075c49c560daf52a14000a043b7310ea2a366f386b38207256e4dde73",
          "blockNumber": "0x25e6f11",
          "blockTimestamp": "0x6a286103",
          "transactionHash": "0x996d9f940cef03cd02b299dc5ab5d6678392947cdda2f1584a44c2916e26764f",
          "transactionIndex": "0x1",
          "logIndex": "0x0",
          "removed": false
        }
      ],
      "logsBloom": "0x00000000000000000000000000000000000000000000000000000000000000002000000000000001000000004000000000000000400000000000000000000000000000000000000000000000000000000000002000000000000000000000000000000000000000000000000000000000000000000000200000000000000000000000000000000000000000000000000000000000000000008000000000000000000000000000000000000000020001000000000000000000000000000000000000000000000000000000000000000000000000000000000000000000000000000000000000000000000000000000000000000000000000000000000000000000",
      "transactionHash": "0x996d9f940cef03cd02b299dc5ab5d6678392947cdda2f1584a44c2916e26764f",
      "transactionIndex": "0x1",
      "blockHash": "0x1abb25b075c49c560daf52a14000a043b7310ea2a366f386b38207256e4dde73",
      "blockNumber": "0x25e6f11",
      "gasUsed": "0x13089",
      "effectiveGasPrice": "0xba43cfaa0",
      "blobGasUsed": "0x9c40",
      "from": "0xecf9541c6ff5e8774a6d8f64b57a4be473de49ef",
      "to": "0xece0489534c8c16d6a5282315479fee6928bdb13",
      "contractAddress": null
    },
    {
      "type": "0x0",
      "status": "0x1",
      "cumulativeGasUsed": "0x2399a",
      "logs": [
        {
          "address": "0xece0489534c8c16d6a5282315479fee6928bdb13",
          "topics": [
            "0xd2270db0749cf371cd06e708f18bdb337349019735f3c920765f74df26931e8f",
            "0x0000000000000000000000000000000000000000000000000000000000000001"
          ],
          "data": "0x00000000000000000000000000000000000000000000000000000000000000600000000000000000000000000000000000000000000000000853a0d2313c00000000000000000000000000000000000000000000000000000000000000001388000000000000000000000000000000000000000000000000000000000000000842616c616e636564000000000000000000000000000000000000000000000000",
          "blockHash": "0xadf94ea88f45daa658f7065c3fce281c39d3e9548509e57338c25109b3037c3b",
          "blockNumber": "0x25e6f14",
          "blockTimestamp": "0x6a286109",
          "transactionHash": "0xaa86950a8900d0acba77dffc00c25dcf758fffb43c6082935f35d82664fb6a79",
          "transactionIndex": "0x1",
          "logIndex": "0x0",
          "removed": false
        }
      ],
      "logsBloom": "0x00000000000000000040000000000000000000000000000000000000000000002000000000000000000000000000000000000000400000000000000000040000000000000000000000000000000000000000000000040000000000000000000000000000000000000000000000000000000000000000200000000010000000000000000000000000000000000000000000000000000000000000000000000000000000000000000000000000000000000000000000000000000000000000000000000000000000000000000000000000000000000000000000000000000050000000000000000000000000000000000000000000000000000000000000000000",
      "transactionHash": "0xaa86950a8900d0acba77dffc00c25dcf758fffb43c6082935f35d82664fb6a79",
      "transactionIndex": "0x1",
      "blockHash": "0xadf94ea88f45daa658f7065c3fce281c39d3e9548509e57338c25109b3037c3b",
      "blockNumber": "0x25e6f14",
      "gasUsed": "0x184cb",
      "effectiveGasPrice": "0xba43cfaa0",
      "blobGasUsed": "0x9c40",
      "from": "0xecf9541c6ff5e8774a6d8f64b57a4be473de49ef",
      "to": "0xece0489534c8c16d6a5282315479fee6928bdb13",
      "contractAddress": null
    },
    {
      "type": "0x0",
      "status": "0x1",
      "cumulativeGasUsed": "0x239ca",
      "logs": [
        {
          "address": "0xece0489534c8c16d6a5282315479fee6928bdb13",
          "topics": [
            "0xd2270db0749cf371cd06e708f18bdb337349019735f3c920765f74df26931e8f",
            "0x0000000000000000000000000000000000000000000000000000000000000002"
          ],
          "data": "0x000000000000000000000000000000000000000000000000000000000000006000000000000000000000000000000000000000000000000009b6e64a8ec600000000000000000000000000000000000000000000000000000000000000000dac000000000000000000000000000000000000000000000000000000000000000c436f6e7365727661746976650000000000000000000000000000000000000000",
          "blockHash": "0x101aecafde45c272a279f01f226aaf699374d02b100ce2a6c92909331f039d48",
          "blockNumber": "0x25e6f17",
          "blockTimestamp": "0x6a28610f",
          "transactionHash": "0x2ed01c8916bccbbe54f83650cf19556781cfea5dde60c2001e25de911a2e7123",
          "transactionIndex": "0x1",
          "logIndex": "0x0",
          "removed": false
        }
      ],
      "logsBloom": "0x04000000000000000040000000000000000000000000000000000000000000002000000000000000000000000000000000000000400000000000000000000000000000000000000000000000000000000000000000000000000000000000000000000000000000000000000000000000000000000000200000000010000000000000000000000000000000000000000000000000000000000000000000000000000000000000000000000100000000000000000000000000000000000000000000000000000000000000000000000000000000000000000000000000000010000000000000000000000000000000000000000000008000000000000000000000",
      "transactionHash": "0x2ed01c8916bccbbe54f83650cf19556781cfea5dde60c2001e25de911a2e7123",
      "transactionIndex": "0x1",
      "blockHash": "0x101aecafde45c272a279f01f226aaf699374d02b100ce2a6c92909331f039d48",
      "blockNumber": "0x25e6f17",
      "gasUsed": "0x184fb",
      "effectiveGasPrice": "0xba43cfaa0",
      "blobGasUsed": "0x9c40",
      "from": "0xecf9541c6ff5e8774a6d8f64b57a4be473de49ef",
      "to": "0xece0489534c8c16d6a5282315479fee6928bdb13",
      "contractAddress": null
    },
    {
      "type": "0x0",
      "status": "0x1",
      "cumulativeGasUsed": "0xaf0d1",
      "logs": [
        {
          "address": "0xece0489534c8c16d6a5282315479fee6928bdb13",
          "topics": [
            "0xd2270db0749cf371cd06e708f18bdb337349019735f3c920765f74df26931e8f",
            "0x0000000000000000000000000000000000000000000000000000000000000003"
          ],
          "data": "0x0000000000000000000000000000000000000000000000000000000000000060000000000000000000000000000000000000000000000000058d15e1762800000000000000000000000000000000000000000000000000000000000000002710000000000000000000000000000000000000000000000000000000000000000a4167677265737369766500000000000000000000000000000000000000000000",
          "blockHash": "0x96d718564fd69271d1dcbf230f5834e854a9187c44345f678d73950bbc54b264",
          "blockNumber": "0x25e6f1a",
          "blockTimestamp": "0x6a286115",
          "transactionHash": "0x159202d6740c3cb337f855b224ac98b153b0926c8265bfbd85b7936aaae0e5f0",
          "transactionIndex": "0x3",
          "logIndex": "0x2c",
          "removed": false
        }
      ],
      "logsBloom": "0x00000000000000000040000000000000000000000000000000000000000000002000000000000000000000000000000000000000420000000000000000000000000000000000000000000000000000000000000000000000000000000000000000000000000000000000000000000000000000000000200000000010000000000000000000000000000000000000000000000000000000000000000000000000000000000000000000000000000000000000000000800000000000000000400000000000000000000000000000000000000000000000000000000000000010000000000000000000000000000000000000000000000000000000000000000000",
      "transactionHash": "0x159202d6740c3cb337f855b224ac98b153b0926c8265bfbd85b7936aaae0e5f0",
      "transactionIndex": "0x3",
      "blockHash": "0x96d718564fd69271d1dcbf230f5834e854a9187c44345f678d73950bbc54b264",
      "blockNumber": "0x25e6f1a",
      "gasUsed": "0x184e3",
      "effectiveGasPrice": "0xba43cfaa0",
      "blobGasUsed": "0x9c40",
      "from": "0xecf9541c6ff5e8774a6d8f64b57a4be473de49ef",
      "to": "0xece0489534c8c16d6a5282315479fee6928bdb13",
      "contractAddress": null
    },
    {
      "type": "0x0",
      "status": "0x1",
      "cumulativeGasUsed": "0x26849",
      "logs": [
        {
          "address": "0xece0489534c8c16d6a5282315479fee6928bdb13",
          "topics": [
            "0xdb1c1d00eebcb507bcd937e8305eb395e99f183759119b71dc6e2c7e0a6a030b",
            "0x0000000000000000000000000000000000000000000000000000000000000002"
          ],
          "data": "0x",
          "blockHash": "0xcce01d07661a46a1dac61df94a1f2c2ba47b9ab8ce8029580325dfc700eddce9",
          "blockNumber": "0x25e6f1d",
          "blockTimestamp": "0x6a28611b",
          "transactionHash": "0x9b1d877cd67fb8e4fe2ceb26c1b93c3770ae5df1b1c884585ff9e829aa834548",
          "transactionIndex": "0x3",
          "logIndex": "0x2",
          "removed": false
        }
      ],
      "logsBloom": "0x04000000000000000000000000000000000000000000000000000000000000002000000000000000000000000000000000000000400000000000000000000000000000000000000000000000000000080000000000000000000000000000000000000000000000000000000000000000000000000000200000000000000000000000000000000000000002000000000000000000000000000000000000000000000000000000000000000100000000000000000000000000000000000000000000000000000000000000000000000000000000000000000000000000000000000000000000000000000000000000000020000000008000000000000000000000",
      "transactionHash": "0x9b1d877cd67fb8e4fe2ceb26c1b93c3770ae5df1b1c884585ff9e829aa834548",
      "transactionIndex": "0x3",
      "blockHash": "0xcce01d07661a46a1dac61df94a1f2c2ba47b9ab8ce8029580325dfc700eddce9",
      "blockNumber": "0x25e6f1d",
      "gasUsed": "0xbf62",
      "effectiveGasPrice": "0xba43cfaa0",
      "blobGasUsed": "0x9c40",
      "from": "0xecf9541c6ff5e8774a6d8f64b57a4be473de49ef",
      "to": "0xece0489534c8c16d6a5282315479fee6928bdb13",
      "contractAddress": null
    },
    {
      "type": "0x0",
      "status": "0x1",
      "cumulativeGasUsed": "0x2025f",
      "logs": [
        {
          "address": "0xece0489534c8c16d6a5282315479fee6928bdb13",
          "topics": [
            "0x1c8333739769c1b87bc26ebb0134ae5b42f3d18d89d139a22083b5256c061355"
          ],
          "data": "0x0000000000000000000000000000000000000000000000000000000000000001",
          "blockHash": "0x6674081ee2fdcc71a5f5395712c007bf0f549b84dc2eecdc79cffbf864ed965a",
          "blockNumber": "0x25e6f20",
          "blockTimestamp": "0x6a286121",
          "transactionHash": "0xe7f5f6f0c147db9a99016bf2a65c229d0cfec78a3d0f1da936847d328aa8c075",
          "transactionIndex": "0x2",
          "logIndex": "0x1",
          "removed": false
        }
      ],
      "logsBloom": "0x00000000000000000000000020000000000000000000000000000000000800002000000000000000000000000000000000000000400000000000000000000000000000000000000000000000000000000000000000000000000000000000000000000000000000000000000000000000000000000000200000000000000000000000000000000000000000000000000000000000000000000000000000000000000000000000000100000000000000000000000000000000000000000000000000000000000000000000000000000000000000000000000000000000000000000000000000000000000000000000000000000000000000000000000000000000",
      "transactionHash": "0xe7f5f6f0c147db9a99016bf2a65c229d0cfec78a3d0f1da936847d328aa8c075",
      "transactionIndex": "0x2",
      "blockHash": "0x6674081ee2fdcc71a5f5395712c007bf0f549b84dc2eecdc79cffbf864ed965a",
      "blockNumber": "0x25e6f20",
      "gasUsed": "0xb75c",
      "effectiveGasPrice": "0xba43cfaa0",
      "blobGasUsed": "0x9c40",
      "from": "0xecf9541c6ff5e8774a6d8f64b57a4be473de49ef",
      "to": "0xece0489534c8c16d6a5282315479fee6928bdb13",
      "contractAddress": null
    },
    {
      "type": "0x0",
      "status": "0x1",
      "cumulativeGasUsed": "0x16fd6",
      "logs": [
        {
          "address": "0xece0489534c8c16d6a5282315479fee6928bdb13",
          "topics": [
            "0x2444fb0d1fe84b2795e40013e1c54a31c773bfd08c00b4e63b8dd7fce04b5d00",
            "0x000000000000000000000000ecf9541c6ff5e8774a6d8f64b57a4be473de49ef"
          ],
          "data": "0x0000000000000000000000000000000000000000000000000000000000000001",
          "blockHash": "0x7ae8749bdecbb37cd1c9c6354c093efbb0cfc6c5e7efa304142fc162797a17fb",
          "blockNumber": "0x25e6f23",
          "blockTimestamp": "0x6a286127",
          "transactionHash": "0x3c23daaa2bc25ae5c9826f56842bddaa18664df4c3e00670f09873de07c9596f",
          "transactionIndex": "0x1",
          "logIndex": "0x0",
          "removed": false
        }
      ],
      "logsBloom": "0x00000000000000000000000000000000000000000000000000000000000000002000000000000002000000000000004000000008400000000000000000000000000000000000000000000000000000000000000000000000000000000000000000000000000000000000000000000000000000000000200000000000000000000000000000000000000200000000000000000000000000000000080000000000000010000000000000000000000000000000000000000000000000000000000000000000000000000000000000000000000000000000000000000000000000000000000000000000000000000000000000000000000000000000000000000000",
      "transactionHash": "0x3c23daaa2bc25ae5c9826f56842bddaa18664df4c3e00670f09873de07c9596f",
      "transactionIndex": "0x1",
      "blockHash": "0x7ae8749bdecbb37cd1c9c6354c093efbb0cfc6c5e7efa304142fc162797a17fb",
      "blockNumber": "0x25e6f23",
      "gasUsed": "0xbb07",
      "effectiveGasPrice": "0xba43cfaa0",
      "blobGasUsed": "0x9c40",
      "from": "0xecf9541c6ff5e8774a6d8f64b57a4be473de49ef",
      "to": "0xece0489534c8c16d6a5282315479fee6928bdb13",
      "contractAddress": null
    },
    {
      "type": "0x0",
      "status": "0x1",
      "cumulativeGasUsed": "0x17cba",
      "logs": [
        {
          "address": "0xbc17d7f8f265d069781ed765914ed092989d92e7",
          "topics": [
            "0xddf252ad1be2c89b69c2b068fc378daa952ba7f163c4a11628f55a4df523b3ef",
            "0x0000000000000000000000000000000000000000000000000000000000000000",
            "0x000000000000000000000000ecf9541c6ff5e8774a6d8f64b57a4be473de49ef"
          ],
          "data": "0x000000000000000000000000000000000000000000000002b5e3af16b1880000",
          "blockHash": "0xb5542a46ebe824b00016fa437051460de4bf4f01a92980e6e5d9c7b3cc91bde2",
          "blockNumber": "0x25e6f26",
          "blockTimestamp": "0x6a28612d",
          "transactionHash": "0x5a04aee50a8da91225b6b633ec79ce5307d4497c6e0dfca7e85b5c9effb2c10d",
          "transactionIndex": "0x1",
          "logIndex": "0x0",
          "removed": false
        }
      ],
      "logsBloom": "0x00000000000000000000000000000000000000000000000000000000000000000000000000000000002000000000004000000000000000000000000000000000000000000000000000000008000000000000010000000000000000000000000000000000020000000000000000000800000000000000000000000010000000000000000000000000000000000000000000000000000000000000080000000000000010000000000000000000000000000000000000000000000000000000000000000002000000000000000000000000000000000000000000000000000020000000000000000000000004000000000000000000000000000000000000000000",
      "transactionHash": "0x5a04aee50a8da91225b6b633ec79ce5307d4497c6e0dfca7e85b5c9effb2c10d",
      "transactionIndex": "0x1",
      "blockHash": "0xb5542a46ebe824b00016fa437051460de4bf4f01a92980e6e5d9c7b3cc91bde2",
      "blockNumber": "0x25e6f26",
      "gasUsed": "0xc803",
      "effectiveGasPrice": "0xba43cfaa0",
      "blobGasUsed": "0x9c40",
      "from": "0xecf9541c6ff5e8774a6d8f64b57a4be473de49ef",
      "to": "0xbc17d7f8f265d069781ed765914ed092989d92e7",
      "contractAddress": null
    },
    {
      "type": "0x0",
      "status": "0x1",
      "cumulativeGasUsed": "0x1690e",
      "logs": [
        {
          "address": "0xbc17d7f8f265d069781ed765914ed092989d92e7",
          "topics": [
            "0x8c5be1e5ebec7d5bd14f71427d1e84f3dd0314c0f7b2291e5b200ac8c7c3b925",
            "0x000000000000000000000000ecf9541c6ff5e8774a6d8f64b57a4be473de49ef",
            "0x000000000000000000000000ece0489534c8c16d6a5282315479fee6928bdb13"
          ],
          "data": "0x000000000000000000000000000000000000000000000002b5e3af16b1880000",
          "blockHash": "0xba83a267d05a0ad05f8eb47912cd4e3f20c2ae682f5f0140666217a50cc3c27c",
          "blockNumber": "0x25e6f2a",
          "blockTimestamp": "0x6a286135",
          "transactionHash": "0xa742f753a0c0466c37659f6ebfe2fb1e1359500fbd3379fb95de42b1a064dfcc",
          "transactionIndex": "0x1",
          "logIndex": "0x0",
          "removed": false
        }
      ],
      "logsBloom": "0x00000000000000000000000000000000000000000000000000000000000000000000000000020000002000000000004000000000000000000000000000200000000000000000000000002000000000000000010000000000000000000000000000000000000000000000000000000000000000000000000000000000000000000000000000000000000000000000000000000000000000000000080000000000020010000000000000000000000000000000000000000000000000000000000000000000000000000000000000000000000000000000000000001000000000000010000000000000000004000000000000000000000000000000000000000000",
      "transactionHash": "0xa742f753a0c0466c37659f6ebfe2fb1e1359500fbd3379fb95de42b1a064dfcc",
      "transactionIndex": "0x1",
      "blockHash": "0xba83a267d05a0ad05f8eb47912cd4e3f20c2ae682f5f0140666217a50cc3c27c",
      "blockNumber": "0x25e6f2a",
      "gasUsed": "0xb457",
      "effectiveGasPrice": "0xba43cfaa0",
      "blobGasUsed": "0x9c40",
      "from": "0xecf9541c6ff5e8774a6d8f64b57a4be473de49ef",
      "to": "0xbc17d7f8f265d069781ed765914ed092989d92e7",
      "contractAddress": null
    },
    {
      "type": "0x0",
      "status": "0x1",
      "cumulativeGasUsed": "0x2bebc",
      "logs": [
        {
          "address": "0xbc17d7f8f265d069781ed765914ed092989d92e7",
          "topics": [
            "0xddf252ad1be2c89b69c2b068fc378daa952ba7f163c4a11628f55a4df523b3ef",
            "0x000000000000000000000000ecf9541c6ff5e8774a6d8f64b57a4be473de49ef",
            "0x000000000000000000000000ece0489534c8c16d6a5282315479fee6928bdb13"
          ],
          "data": "0x000000000000000000000000000000000000000000000002b5e3af16b1880000",
          "blockHash": "0x8ba7aeb3284f987e2b91078146fd3dc8cae4ea06d104188dc8137325fa5d1e60",
          "blockNumber": "0x25e6f2d",
          "blockTimestamp": "0x6a28613b",
          "transactionHash": "0xe5917b3b2e0e90b2d07d997823a48ff50edc3adcc29aad074d3e80a5adcb6ded",
          "transactionIndex": "0x1",
          "logIndex": "0x0",
          "removed": false
        },
        {
          "address": "0xece0489534c8c16d6a5282315479fee6928bdb13",
          "topics": [
            "0x90890809c654f11d6e72a28fa60149770a0d11ec6c92319d6ceb2bb0a4ea1a15",
            "0x000000000000000000000000ecf9541c6ff5e8774a6d8f64b57a4be473de49ef"
          ],
          "data": "0x000000000000000000000000000000000000000000000002b5e3af16b1880000000000000000000000000000000000000000000000000002b5e3af16b1880000",
          "blockHash": "0x8ba7aeb3284f987e2b91078146fd3dc8cae4ea06d104188dc8137325fa5d1e60",
          "blockNumber": "0x25e6f2d",
          "blockTimestamp": "0x6a28613b",
          "transactionHash": "0xe5917b3b2e0e90b2d07d997823a48ff50edc3adcc29aad074d3e80a5adcb6ded",
          "transactionIndex": "0x1",
          "logIndex": "0x1",
          "removed": false
        }
      ],
      "logsBloom": "0x00000000000000000000000000000000000000000400000000000000000000002000000000020000002000000000004008000000400000000000000000000000000000000000000000002008000000000000010000000000000000000000000000000000000000000000000000000000000000000000200000000010000000000000000000000000000000000000000000000000000000000000080000000000000010000000000000000000000000000000000000000000000000000000000000000002000000000000000000000000000000000000000000001000000000000000000000000000000004000000000000000000400000000000000000000000",
      "transactionHash": "0xe5917b3b2e0e90b2d07d997823a48ff50edc3adcc29aad074d3e80a5adcb6ded",
      "transactionIndex": "0x1",
      "blockHash": "0x8ba7aeb3284f987e2b91078146fd3dc8cae4ea06d104188dc8137325fa5d1e60",
      "blockNumber": "0x25e6f2d",
      "gasUsed": "0x209ed",
      "effectiveGasPrice": "0xba43cfaa0",
      "blobGasUsed": "0x9c40",
      "from": "0xecf9541c6ff5e8774a6d8f64b57a4be473de49ef",
      "to": "0xece0489534c8c16d6a5282315479fee6928bdb13",
      "contractAddress": null
    },
    {
      "type": "0x0",
      "status": "0x1",
      "cumulativeGasUsed": "0xa1475",
      "logs": [
        {
          "address": "0xbc17d7f8f265d069781ed765914ed092989d92e7",
          "topics": [
            "0x8c5be1e5ebec7d5bd14f71427d1e84f3dd0314c0f7b2291e5b200ac8c7c3b925",
            "0x000000000000000000000000ece0489534c8c16d6a5282315479fee6928bdb13",
            "0x000000000000000000000000ba8075d91983d15628de99cdc510cd6c70f434ee"
          ],
          "data": "0x000000000000000000000000000000000000000000000000d36887eb45c985d4",
          "blockHash": "0x5dd6fa1ff04b940a3ca35ce9c7d5a8a84b3d0a4e9c7ddab2603e0caa52d3e4e9",
          "blockNumber": "0x25e6f31",
          "blockTimestamp": "0x6a286143",
          "transactionHash": "0x4c3ff12b7f23bb179e529ae5b6586b82dda28c66361bb2f48259aa309011392c",
          "transactionIndex": "0x2",
          "logIndex": "0x1",
          "removed": false
        },
        {
          "address": "0xbc17d7f8f265d069781ed765914ed092989d92e7",
          "topics": [
            "0xddf252ad1be2c89b69c2b068fc378daa952ba7f163c4a11628f55a4df523b3ef",
            "0x000000000000000000000000ece0489534c8c16d6a5282315479fee6928bdb13",
            "0x000000000000000000000000ba8075d91983d15628de99cdc510cd6c70f434ee"
          ],
          "data": "0x000000000000000000000000000000000000000000000000d36887eb45c985d4",
          "blockHash": "0x5dd6fa1ff04b940a3ca35ce9c7d5a8a84b3d0a4e9c7ddab2603e0caa52d3e4e9",
          "blockNumber": "0x25e6f31",
          "blockTimestamp": "0x6a286143",
          "transactionHash": "0x4c3ff12b7f23bb179e529ae5b6586b82dda28c66361bb2f48259aa309011392c",
          "transactionIndex": "0x2",
          "logIndex": "0x2",
          "removed": false
        },
        {
          "address": "0xba8075d91983d15628de99cdc510cd6c70f434ee",
          "topics": [
            "0x73a19dd210f1a7f902193214c0ee91dd35ee5b4d920cba8d519eca65a7b488ca",
            "0x000000000000000000000000ece0489534c8c16d6a5282315479fee6928bdb13"
          ],
          "data": "0x000000000000000000000000000000000000000000000000d36887eb45c985d400000000000000000000000000000000000000000000000034da21fad1726174",
          "blockHash": "0x5dd6fa1ff04b940a3ca35ce9c7d5a8a84b3d0a4e9c7ddab2603e0caa52d3e4e9",
          "blockNumber": "0x25e6f31",
          "blockTimestamp": "0x6a286143",
          "transactionHash": "0x4c3ff12b7f23bb179e529ae5b6586b82dda28c66361bb2f48259aa309011392c",
          "transactionIndex": "0x2",
          "logIndex": "0x3",
          "removed": false
        },
        {
          "address": "0xbc17d7f8f265d069781ed765914ed092989d92e7",
          "topics": [
            "0x8c5be1e5ebec7d5bd14f71427d1e84f3dd0314c0f7b2291e5b200ac8c7c3b925",
            "0x000000000000000000000000ece0489534c8c16d6a5282315479fee6928bdb13",
            "0x0000000000000000000000007e1827697843f377761f19f6f3386d8750d75bbd"
          ],
          "data": "0x000000000000000000000000000000000000000000000000ef9ea9e37a687a2a",
          "blockHash": "0x5dd6fa1ff04b940a3ca35ce9c7d5a8a84b3d0a4e9c7ddab2603e0caa52d3e4e9",
          "blockNumber": "0x25e6f31",
          "blockTimestamp": "0x6a286143",
          "transactionHash": "0x4c3ff12b7f23bb179e529ae5b6586b82dda28c66361bb2f48259aa309011392c",
          "transactionIndex": "0x2",
          "logIndex": "0x4",
          "removed": false
        },
        {
          "address": "0xbc17d7f8f265d069781ed765914ed092989d92e7",
          "topics": [
            "0xddf252ad1be2c89b69c2b068fc378daa952ba7f163c4a11628f55a4df523b3ef",
            "0x000000000000000000000000ece0489534c8c16d6a5282315479fee6928bdb13",
            "0x0000000000000000000000007e1827697843f377761f19f6f3386d8750d75bbd"
          ],
          "data": "0x000000000000000000000000000000000000000000000000ef9ea9e37a687a2a",
          "blockHash": "0x5dd6fa1ff04b940a3ca35ce9c7d5a8a84b3d0a4e9c7ddab2603e0caa52d3e4e9",
          "blockNumber": "0x25e6f31",
          "blockTimestamp": "0x6a286143",
          "transactionHash": "0x4c3ff12b7f23bb179e529ae5b6586b82dda28c66361bb2f48259aa309011392c",
          "transactionIndex": "0x2",
          "logIndex": "0x5",
          "removed": false
        },
        {
          "address": "0x7e1827697843f377761f19f6f3386d8750d75bbd",
          "topics": [
            "0x73a19dd210f1a7f902193214c0ee91dd35ee5b4d920cba8d519eca65a7b488ca",
            "0x000000000000000000000000ece0489534c8c16d6a5282315479fee6928bdb13"
          ],
          "data": "0x000000000000000000000000000000000000000000000000ef9ea9e37a687a2a00000000000000000000000000000000000000000000000027efc6fb3f1169b1",
          "blockHash": "0x5dd6fa1ff04b940a3ca35ce9c7d5a8a84b3d0a4e9c7ddab2603e0caa52d3e4e9",
          "blockNumber": "0x25e6f31",
          "blockTimestamp": "0x6a286143",
          "transactionHash": "0x4c3ff12b7f23bb179e529ae5b6586b82dda28c66361bb2f48259aa309011392c",
          "transactionIndex": "0x2",
          "logIndex": "0x6",
          "removed": false
        },
        {
          "address": "0xbc17d7f8f265d069781ed765914ed092989d92e7",
          "topics": [
            "0x8c5be1e5ebec7d5bd14f71427d1e84f3dd0314c0f7b2291e5b200ac8c7c3b925",
            "0x000000000000000000000000ece0489534c8c16d6a5282315479fee6928bdb13",
            "0x000000000000000000000000a40af1a30e4094b2807fdfbf6195c06245ab0822"
          ],
          "data": "0x000000000000000000000000000000000000000000000000f2dc7d47f1560000",
          "blockHash": "0x5dd6fa1ff04b940a3ca35ce9c7d5a8a84b3d0a4e9c7ddab2603e0caa52d3e4e9",
          "blockNumber": "0x25e6f31",
          "blockTimestamp": "0x6a286143",
          "transactionHash": "0x4c3ff12b7f23bb179e529ae5b6586b82dda28c66361bb2f48259aa309011392c",
          "transactionIndex": "0x2",
          "logIndex": "0x7",
          "removed": false
        },
        {
          "address": "0xbc17d7f8f265d069781ed765914ed092989d92e7",
          "topics": [
            "0xddf252ad1be2c89b69c2b068fc378daa952ba7f163c4a11628f55a4df523b3ef",
            "0x000000000000000000000000ece0489534c8c16d6a5282315479fee6928bdb13",
            "0x000000000000000000000000a40af1a30e4094b2807fdfbf6195c06245ab0822"
          ],
          "data": "0x000000000000000000000000000000000000000000000000f2dc7d47f1560000",
          "blockHash": "0x5dd6fa1ff04b940a3ca35ce9c7d5a8a84b3d0a4e9c7ddab2603e0caa52d3e4e9",
          "blockNumber": "0x25e6f31",
          "blockTimestamp": "0x6a286143",
          "transactionHash": "0x4c3ff12b7f23bb179e529ae5b6586b82dda28c66361bb2f48259aa309011392c",
          "transactionIndex": "0x2",
          "logIndex": "0x8",
          "removed": false
        },
        {
          "address": "0xa40af1a30e4094b2807fdfbf6195c06245ab0822",
          "topics": [
            "0x73a19dd210f1a7f902193214c0ee91dd35ee5b4d920cba8d519eca65a7b488ca",
            "0x000000000000000000000000ece0489534c8c16d6a5282315479fee6928bdb13"
          ],
          "data": "0x000000000000000000000000000000000000000000000000f2dc7d47f15600000000000000000000000000000000000000000000000000001afc0deb8c97c71c",
          "blockHash": "0x5dd6fa1ff04b940a3ca35ce9c7d5a8a84b3d0a4e9c7ddab2603e0caa52d3e4e9",
          "blockNumber": "0x25e6f31",
          "blockTimestamp": "0x6a286143",
          "transactionHash": "0x4c3ff12b7f23bb179e529ae5b6586b82dda28c66361bb2f48259aa309011392c",
          "transactionIndex": "0x2",
          "logIndex": "0x9",
          "removed": false
        },
        {
          "address": "0xece0489534c8c16d6a5282315479fee6928bdb13",
          "topics": [
            "0x83387a3342ff1ebc5e437dc9ae0f98274afda12a11cf547eebec05a3e0b8f8a7",
            "0x0000000000000000000000000000000000000000000000000000000000000002"
          ],
          "data": "0x000000000000000000000000000000000000000000000002b5e3af16b18800000000000000000000000000000000000000000000000000000000000000000003",
          "blockHash": "0x5dd6fa1ff04b940a3ca35ce9c7d5a8a84b3d0a4e9c7ddab2603e0caa52d3e4e9",
          "blockNumber": "0x25e6f31",
          "blockTimestamp": "0x6a286143",
          "transactionHash": "0x4c3ff12b7f23bb179e529ae5b6586b82dda28c66361bb2f48259aa309011392c",
          "transactionIndex": "0x2",
          "logIndex": "0xa",
          "removed": false
        }
      ],
      "logsBloom": "0x04400000000200000000000000000000000000000100000000000000000000002000048000020001002900000000004000000000400000000000000000200000000000000000000000002008000002000000010000010000000000002000080000000000020000200000000000000000000000000000200000000010000000000000000000000000000000000000000000000000000000008800000000010000020000000000000000000100020000002000000200000000000000000000000000000002000000000000000000000000000002000000000002001000000000000010000000000000000004000000000000000000008000000000000000000000",
      "transactionHash": "0x4c3ff12b7f23bb179e529ae5b6586b82dda28c66361bb2f48259aa309011392c",
      "transactionIndex": "0x2",
      "blockHash": "0x5dd6fa1ff04b940a3ca35ce9c7d5a8a84b3d0a4e9c7ddab2603e0caa52d3e4e9",
      "blockNumber": "0x25e6f31",
      "gasUsed": "0x6f843",
      "effectiveGasPrice": "0xba43cfaa0",
      "blobGasUsed": "0x9c40",
      "from": "0xecf9541c6ff5e8774a6d8f64b57a4be473de49ef",
      "to": "0xece0489534c8c16d6a5282315479fee6928bdb13",
      "contractAddress": null
    }
  ],
  "libraries": [],
  "pending": [],
  "returns": {},
  "timestamp": 1781031237788,
  "chain": 5003,
  "commit": "0e1cb6e"
}